{
  "contractName": "Gestor",
  "abi": [
    {
      "inputs": [
        {
          "internalType": "address",
          "name": "_traductoresContract",
          "type": "address"
        }
      ],
      "stateMutability": "nonpayable",
      "type": "constructor"
    },
    {
      "anonymous": false,
      "inputs": [
        {
          "indexed": true,
          "internalType": "address",
          "name": "previousOwner",
          "type": "address"
        },
        {
          "indexed": true,
          "internalType": "address",
          "name": "newOwner",
          "type": "address"
        }
      ],
      "name": "OwnershipTransferred",
      "type": "event"
    },
    {
      "anonymous": false,
      "inputs": [
        {
          "indexed": false,
          "internalType": "uint256",
          "name": "nuevoValor",
          "type": "uint256"
        }
      ],
      "name": "ValorModificado",
      "type": "event"
    },
    {
      "inputs": [],
      "name": "owner",
      "outputs": [
        {
          "internalType": "address",
          "name": "",
          "type": "address"
        }
      ],
      "stateMutability": "view",
      "type": "function",
      "constant": true
    },
    {
      "inputs": [],
      "name": "renounceOwnership",
      "outputs": [],
      "stateMutability": "nonpayable",
      "type": "function"
    },
    {
      "inputs": [],
      "name": "traductoresContract",
      "outputs": [
        {
          "internalType": "address",
          "name": "",
          "type": "address"
        }
      ],
      "stateMutability": "view",
      "type": "function",
      "constant": true
    },
    {
      "inputs": [
        {
          "internalType": "address",
          "name": "newOwner",
          "type": "address"
        }
      ],
      "name": "transferOwnership",
      "outputs": [],
      "stateMutability": "nonpayable",
      "type": "function"
    },
    {
      "inputs": [],
      "name": "valor",
      "outputs": [
        {
          "internalType": "uint256",
          "name": "",
          "type": "uint256"
        }
      ],
      "stateMutability": "view",
      "type": "function",
      "constant": true
    },
    {
      "inputs": [
        {
          "internalType": "uint256",
          "name": "_nuevoValor",
          "type": "uint256"
        },
        {
          "internalType": "uint8",
          "name": "_valor",
          "type": "uint8"
        }
      ],
      "name": "modificarValor",
      "outputs": [],
      "stateMutability": "nonpayable",
      "type": "function"
    },
    {
      "inputs": [
        {
          "internalType": "uint256",
          "name": "_nuevoValor",
          "type": "uint256"
        },
        {
          "internalType": "address",
          "name": "_traductor",
          "type": "address"
        },
        {
          "internalType": "uint8",
          "name": "_valor",
          "type": "uint8"
        }
      ],
      "name": "modificarUNValor",
      "outputs": [],
      "stateMutability": "nonpayable",
      "type": "function"
    }
  ],
  "bytecode": "0x608060405234801561001057600080fd5b5060405161065f38038061065f83398101604081905261002f916100ad565b6100383361005d565b600280546001600160a01b0319166001600160a01b03929092169190911790556100dd565b600080546001600160a01b038381166001600160a01b0319831681178455604051919092169283917f8be0079c531659141344cd1fd0a4f28419497f9722a3daafe3b4186f6b6457e09190a35050565b6000602082840312156100bf57600080fd5b81516001600160a01b03811681146100d657600080fd5b9392505050565b610573806100ec6000396000f3fe608060405234801561001057600080fd5b506004361061007d5760003560e01c80638da5cb5b1161005b5780638da5cb5b146100b2578063d831eb92146100dc578063ecbac7cf146100ef578063f2fde38b1461010657600080fd5b80631b73463814610082578063715018a61461009757806378cbd07e1461009f575b600080fd5b610095610090366004610493565b610119565b005b610095610228565b6100956100ad3660046104cf565b61023c565b6000546001600160a01b03165b6040516001600160a01b0390911681526020015b60405180910390f35b6002546100bf906001600160a01b031681565b6100f860015481565b6040519081526020016100d3565b6100956101143660046104fb565b61033e565b600183905560ff81166000036101c25760008051602061051e83398151915260015460405161014a91815260200190565b60405180910390a1600254600154604051633f5916ed60e21b815260048101919091526001600160a01b0384811660248301529091169063fd645bb4906044015b600060405180830381600087803b1580156101a557600080fd5b505af11580156101b9573d6000803e3d6000fd5b50505050505050565b60008051602061051e8339815191526001546040516101e391815260200190565b60405180910390a1600254600154604051631da8c24160e11b815260048101919091526001600160a01b03848116602483015290911690633b5184829060440161018b565b6102306103bc565b61023a6000610416565b565b600182905560ff81166000036102e05760008051602061051e83398151915260015460405161026d91815260200190565b60405180910390a1600254600154604051637572e3a760e01b81526001600160a01b0390921691637572e3a7916102aa9160040190815260200190565b600060405180830381600087803b1580156102c457600080fd5b505af11580156102d8573d6000803e3d6000fd5b505050505050565b60008051602061051e83398151915260015460405161030191815260200190565b60405180910390a160025460015460405163c0b353ed60e01b81526001600160a01b039092169163c0b353ed916102aa9160040190815260200190565b6103466103bc565b6001600160a01b0381166103b05760405162461bcd60e51b815260206004820152602660248201527f4f776e61626c653a206e6577206f776e657220697320746865207a65726f206160448201526564647265737360d01b60648201526084015b60405180910390fd5b6103b981610416565b50565b6000546001600160a01b0316331461023a5760405162461bcd60e51b815260206004820181905260248201527f4f776e61626c653a2063616c6c6572206973206e6f7420746865206f776e657260448201526064016103a7565b600080546001600160a01b038381166001600160a01b0319831681178455604051919092169283917f8be0079c531659141344cd1fd0a4f28419497f9722a3daafe3b4186f6b6457e09190a35050565b80356001600160a01b038116811461047d57600080fd5b919050565b803560ff8116811461047d57600080fd5b6000806000606084860312156104a857600080fd5b833592506104b860208501610466565b91506104c660408501610482565b90509250925092565b600080604083850312156104e257600080fd5b823591506104f260208401610482565b90509250929050565b60006020828403121561050d57600080fd5b61051682610466565b939250505056fe8d0481c70c3c89579ef9e3914cea564062b90d72e8a636432bf1b5fd47e46da8a264697066735822122020372695954c5e2f71e808160dc176549578869675805d26843cd08d61972d2464736f6c634300080d0033",
  "immutableReferences": {},
  "source": "// SPDX-License-Identifier: MIT\npragma solidity ^0.8.0;\nimport \"./Traductores.sol\";\nimport \"@openzeppelin/contracts/access/Ownable.sol\";\npragma solidity ^0.8.0;\n\ncontract Gestor is Ownable {\n    uint public valor;\n    address public traductoresContract;\n\n    event ValorModificado(uint nuevoValor);\n\n    //Constructor que alamcena la direccin del contrato Traductores\n    constructor(address _traductoresContract) {\n        traductoresContract = _traductoresContract;\n    }\n\n      //Funcin para minar o quemar los tokens de TODOS dependiendo de si _valor vale 0 o no\n    function modificarValor(uint256 _nuevoValor, uint8 _valor) public  {\n        valor = _nuevoValor;\n        if(_valor == 0)\n        {\n        emit ValorModificado(valor);\n\n        Traductores(traductoresContract).modificarValorTraductores(valor);\n        }\n        else {\n\n        emit ValorModificado(valor);\n\n        Traductores(traductoresContract).BurnTraductores(valor);\n        }\n    }\n      //Funcin para minar o quemar los tokens de 1 address en concreto dependiendo de si _valor vale 0 o no\n    function modificarUNValor(uint256 _nuevoValor,address _traductor ,uint8 _valor) public {\n        valor = _nuevoValor;\n        if(_valor == 0)\n        {\n        emit ValorModificado(valor);\n\n        Traductores(traductoresContract).MintONETraductores(valor, _traductor);\n        }\n        else {\n\n        emit ValorModificado(valor);\n\n        Traductores(traductoresContract).BurnONETraductores(valor, _traductor);\n        }\n    }\n\n\n}\n\n\n",
  "sourcePath": "/home/pablo/Desktop/DAO/truffle/contracts/Gestor.sol",
  "compiler": {
    "name": "solc",
    "version": "0.8.13+commit.abaa5c0e.Emscripten.clang"
  },
  "schemaVersion": "3.4.14",
  "updatedAt": "2023-09-01T15:49:02.101Z",
  "networkType": "ethereum",
  "devdoc": {
    "kind": "dev",
    "methods": {
      "owner()": {
        "details": "Returns the address of the current owner."
      },
      "renounceOwnership()": {
        "details": "Leaves the contract without owner. It will not be possible to call `onlyOwner` functions. Can only be called by the current owner. NOTE: Renouncing ownership will leave the contract without an owner, thereby disabling any functionality that is only available to the owner."
      },
      "transferOwnership(address)": {
        "details": "Transfers ownership of the contract to a new account (`newOwner`). Can only be called by the current owner."
      }
    },
    "version": 1
  },
  "userdoc": {
    "kind": "user",
    "methods": {},
    "version": 1
  }
}