{
  "contractName": "GovernorContract",
  "abi": [
    {
      "inputs": [
        {
          "internalType": "contract IVotes",
          "name": "_token",
          "type": "address"
        },
        {
          "internalType": "contract TimelockController",
          "name": "_timelock",
          "type": "address"
        },
        {
          "internalType": "uint256",
          "name": "_quorumPercentage",
          "type": "uint256"
        },
        {
          "internalType": "uint256",
          "name": "_votingPeriod",
          "type": "uint256"
        },
        {
          "internalType": "uint256",
          "name": "_votingDelay",
          "type": "uint256"
        }
      ],
      "stateMutability": "nonpayable",
      "type": "constructor"
    },
    {
      "inputs": [],
      "name": "Empty",
      "type": "error"
    },
    {
      "inputs": [],
      "name": "InvalidShortString",
      "type": "error"
    },
    {
      "inputs": [
        {
          "internalType": "string",
          "name": "str",
          "type": "string"
        }
      ],
      "name": "StringTooLong",
      "type": "error"
    },
    {
      "anonymous": false,
      "inputs": [],
      "name": "EIP712DomainChanged",
      "type": "event"
    },
    {
      "anonymous": false,
      "inputs": [
        {
          "indexed": false,
          "internalType": "uint256",
          "name": "proposalId",
          "type": "uint256"
        }
      ],
      "name": "ProposalCanceled",
      "type": "event"
    },
    {
      "anonymous": false,
      "inputs": [
        {
          "indexed": false,
          "internalType": "uint256",
          "name": "proposalId",
          "type": "uint256"
        },
        {
          "indexed": false,
          "internalType": "address",
          "name": "proposer",
          "type": "address"
        },
        {
          "indexed": false,
          "internalType": "address[]",
          "name": "targets",
          "type": "address[]"
        },
        {
          "indexed": false,
          "internalType": "uint256[]",
          "name": "values",
          "type": "uint256[]"
        },
        {
          "indexed": false,
          "internalType": "string[]",
          "name": "signatures",
          "type": "string[]"
        },
        {
          "indexed": false,
          "internalType": "bytes[]",
          "name": "calldatas",
          "type": "bytes[]"
        },
        {
          "indexed": false,
          "internalType": "uint256",
          "name": "voteStart",
          "type": "uint256"
        },
        {
          "indexed": false,
          "internalType": "uint256",
          "name": "voteEnd",
          "type": "uint256"
        },
        {
          "indexed": false,
          "internalType": "string",
          "name": "description",
          "type": "string"
        }
      ],
      "name": "ProposalCreated",
      "type": "event"
    },
    {
      "anonymous": false,
      "inputs": [
        {
          "indexed": false,
          "internalType": "uint256",
          "name": "proposalId",
          "type": "uint256"
        }
      ],
      "name": "ProposalExecuted",
      "type": "event"
    },
    {
      "anonymous": false,
      "inputs": [
        {
          "indexed": false,
          "internalType": "uint256",
          "name": "proposalId",
          "type": "uint256"
        },
        {
          "indexed": false,
          "internalType": "uint256",
          "name": "eta",
          "type": "uint256"
        }
      ],
      "name": "ProposalQueued",
      "type": "event"
    },
    {
      "anonymous": false,
      "inputs": [
        {
          "indexed": false,
          "internalType": "uint256",
          "name": "oldProposalThreshold",
          "type": "uint256"
        },
        {
          "indexed": false,
          "internalType": "uint256",
          "name": "newProposalThreshold",
          "type": "uint256"
        }
      ],
      "name": "ProposalThresholdSet",
      "type": "event"
    },
    {
      "anonymous": false,
      "inputs": [
        {
          "indexed": false,
          "internalType": "uint256",
          "name": "oldQuorumNumerator",
          "type": "uint256"
        },
        {
          "indexed": false,
          "internalType": "uint256",
          "name": "newQuorumNumerator",
          "type": "uint256"
        }
      ],
      "name": "QuorumNumeratorUpdated",
      "type": "event"
    },
    {
      "anonymous": false,
      "inputs": [
        {
          "indexed": false,
          "internalType": "address",
          "name": "oldTimelock",
          "type": "address"
        },
        {
          "indexed": false,
          "internalType": "address",
          "name": "newTimelock",
          "type": "address"
        }
      ],
      "name": "TimelockChange",
      "type": "event"
    },
    {
      "anonymous": false,
      "inputs": [
        {
          "indexed": true,
          "internalType": "address",
          "name": "voter",
          "type": "address"
        },
        {
          "indexed": false,
          "internalType": "uint256",
          "name": "proposalId",
          "type": "uint256"
        },
        {
          "indexed": false,
          "internalType": "uint8",
          "name": "support",
          "type": "uint8"
        },
        {
          "indexed": false,
          "internalType": "uint256",
          "name": "weight",
          "type": "uint256"
        },
        {
          "indexed": false,
          "internalType": "string",
          "name": "reason",
          "type": "string"
        }
      ],
      "name": "VoteCast",
      "type": "event"
    },
    {
      "anonymous": false,
      "inputs": [
        {
          "indexed": true,
          "internalType": "address",
          "name": "voter",
          "type": "address"
        },
        {
          "indexed": false,
          "internalType": "uint256",
          "name": "proposalId",
          "type": "uint256"
        },
        {
          "indexed": false,
          "internalType": "uint8",
          "name": "support",
          "type": "uint8"
        },
        {
          "indexed": false,
          "internalType": "uint256",
          "name": "weight",
          "type": "uint256"
        },
        {
          "indexed": false,
          "internalType": "string",
          "name": "reason",
          "type": "string"
        },
        {
          "indexed": false,
          "internalType": "bytes",
          "name": "params",
          "type": "bytes"
        }
      ],
      "name": "VoteCastWithParams",
      "type": "event"
    },
    {
      "anonymous": false,
      "inputs": [
        {
          "indexed": false,
          "internalType": "uint256",
          "name": "oldVotingDelay",
          "type": "uint256"
        },
        {
          "indexed": false,
          "internalType": "uint256",
          "name": "newVotingDelay",
          "type": "uint256"
        }
      ],
      "name": "VotingDelaySet",
      "type": "event"
    },
    {
      "anonymous": false,
      "inputs": [
        {
          "indexed": false,
          "internalType": "uint256",
          "name": "oldVotingPeriod",
          "type": "uint256"
        },
        {
          "indexed": false,
          "internalType": "uint256",
          "name": "newVotingPeriod",
          "type": "uint256"
        }
      ],
      "name": "VotingPeriodSet",
      "type": "event"
    },
    {
      "inputs": [],
      "name": "BALLOT_TYPEHASH",
      "outputs": [
        {
          "internalType": "bytes32",
          "name": "",
          "type": "bytes32"
        }
      ],
      "stateMutability": "view",
      "type": "function",
      "constant": true
    },
    {
      "inputs": [],
      "name": "CLOCK_MODE",
      "outputs": [
        {
          "internalType": "string",
          "name": "",
          "type": "string"
        }
      ],
      "stateMutability": "view",
      "type": "function",
      "constant": true
    },
    {
      "inputs": [],
      "name": "COUNTING_MODE",
      "outputs": [
        {
          "internalType": "string",
          "name": "",
          "type": "string"
        }
      ],
      "stateMutability": "pure",
      "type": "function",
      "constant": true
    },
    {
      "inputs": [],
      "name": "EXTENDED_BALLOT_TYPEHASH",
      "outputs": [
        {
          "internalType": "bytes32",
          "name": "",
          "type": "bytes32"
        }
      ],
      "stateMutability": "view",
      "type": "function",
      "constant": true
    },
    {
      "inputs": [
        {
          "internalType": "address[]",
          "name": "targets",
          "type": "address[]"
        },
        {
          "internalType": "uint256[]",
          "name": "values",
          "type": "uint256[]"
        },
        {
          "internalType": "bytes[]",
          "name": "calldatas",
          "type": "bytes[]"
        },
        {
          "internalType": "bytes32",
          "name": "descriptionHash",
          "type": "bytes32"
        }
      ],
      "name": "cancel",
      "outputs": [
        {
          "internalType": "uint256",
          "name": "",
          "type": "uint256"
        }
      ],
      "stateMutability": "nonpayable",
      "type": "function"
    },
    {
      "inputs": [
        {
          "internalType": "uint256",
          "name": "proposalId",
          "type": "uint256"
        },
        {
          "internalType": "uint8",
          "name": "support",
          "type": "uint8"
        }
      ],
      "name": "castVote",
      "outputs": [
        {
          "internalType": "uint256",
          "name": "",
          "type": "uint256"
        }
      ],
      "stateMutability": "nonpayable",
      "type": "function"
    },
    {
      "inputs": [
        {
          "internalType": "uint256",
          "name": "proposalId",
          "type": "uint256"
        },
        {
          "internalType": "uint8",
          "name": "support",
          "type": "uint8"
        },
        {
          "internalType": "uint8",
          "name": "v",
          "type": "uint8"
        },
        {
          "internalType": "bytes32",
          "name": "r",
          "type": "bytes32"
        },
        {
          "internalType": "bytes32",
          "name": "s",
          "type": "bytes32"
        }
      ],
      "name": "castVoteBySig",
      "outputs": [
        {
          "internalType": "uint256",
          "name": "",
          "type": "uint256"
        }
      ],
      "stateMutability": "nonpayable",
      "type": "function"
    },
    {
      "inputs": [
        {
          "internalType": "uint256",
          "name": "proposalId",
          "type": "uint256"
        },
        {
          "internalType": "uint8",
          "name": "support",
          "type": "uint8"
        },
        {
          "internalType": "string",
          "name": "reason",
          "type": "string"
        }
      ],
      "name": "castVoteWithReason",
      "outputs": [
        {
          "internalType": "uint256",
          "name": "",
          "type": "uint256"
        }
      ],
      "stateMutability": "nonpayable",
      "type": "function"
    },
    {
      "inputs": [
        {
          "internalType": "uint256",
          "name": "proposalId",
          "type": "uint256"
        },
        {
          "internalType": "uint8",
          "name": "support",
          "type": "uint8"
        },
        {
          "internalType": "string",
          "name": "reason",
          "type": "string"
        },
        {
          "internalType": "bytes",
          "name": "params",
          "type": "bytes"
        }
      ],
      "name": "castVoteWithReasonAndParams",
      "outputs": [
        {
          "internalType": "uint256",
          "name": "",
          "type": "uint256"
        }
      ],
      "stateMutability": "nonpayable",
      "type": "function"
    },
    {
      "inputs": [
        {
          "internalType": "uint256",
          "name": "proposalId",
          "type": "uint256"
        },
        {
          "internalType": "uint8",
          "name": "support",
          "type": "uint8"
        },
        {
          "internalType": "string",
          "name": "reason",
          "type": "string"
        },
        {
          "internalType": "bytes",
          "name": "params",
          "type": "bytes"
        },
        {
          "internalType": "uint8",
          "name": "v",
          "type": "uint8"
        },
        {
          "internalType": "bytes32",
          "name": "r",
          "type": "bytes32"
        },
        {
          "internalType": "bytes32",
          "name": "s",
          "type": "bytes32"
        }
      ],
      "name": "castVoteWithReasonAndParamsBySig",
      "outputs": [
        {
          "internalType": "uint256",
          "name": "",
          "type": "uint256"
        }
      ],
      "stateMutability": "nonpayable",
      "type": "function"
    },
    {
      "inputs": [],
      "name": "clock",
      "outputs": [
        {
          "internalType": "uint48",
          "name": "",
          "type": "uint48"
        }
      ],
      "stateMutability": "view",
      "type": "function",
      "constant": true
    },
    {
      "inputs": [
        {
          "internalType": "uint256",
          "name": "",
          "type": "uint256"
        }
      ],
      "name": "datosPropose",
      "outputs": [
        {
          "internalType": "uint256",
          "name": "id",
          "type": "uint256"
        },
        {
          "internalType": "address",
          "name": "targets",
          "type": "address"
        },
        {
          "internalType": "bytes",
          "name": "calldatas",
          "type": "bytes"
        },
        {
          "internalType": "string",
          "name": "description",
          "type": "string"
        }
      ],
      "stateMutability": "view",
      "type": "function",
      "constant": true
    },
    {
      "inputs": [],
      "name": "eip712Domain",
      "outputs": [
        {
          "internalType": "bytes1",
          "name": "fields",
          "type": "bytes1"
        },
        {
          "internalType": "string",
          "name": "name",
          "type": "string"
        },
        {
          "internalType": "string",
          "name": "version",
          "type": "string"
        },
        {
          "internalType": "uint256",
          "name": "chainId",
          "type": "uint256"
        },
        {
          "internalType": "address",
          "name": "verifyingContract",
          "type": "address"
        },
        {
          "internalType": "bytes32",
          "name": "salt",
          "type": "bytes32"
        },
        {
          "internalType": "uint256[]",
          "name": "extensions",
          "type": "uint256[]"
        }
      ],
      "stateMutability": "view",
      "type": "function",
      "constant": true
    },
    {
      "inputs": [
        {
          "internalType": "address[]",
          "name": "targets",
          "type": "address[]"
        },
        {
          "internalType": "uint256[]",
          "name": "values",
          "type": "uint256[]"
        },
        {
          "internalType": "bytes[]",
          "name": "calldatas",
          "type": "bytes[]"
        },
        {
          "internalType": "bytes32",
          "name": "descriptionHash",
          "type": "bytes32"
        }
      ],
      "name": "execute",
      "outputs": [
        {
          "internalType": "uint256",
          "name": "",
          "type": "uint256"
        }
      ],
      "stateMutability": "payable",
      "type": "function",
      "payable": true
    },
    {
      "inputs": [
        {
          "internalType": "address",
          "name": "account",
          "type": "address"
        },
        {
          "internalType": "uint256",
          "name": "timepoint",
          "type": "uint256"
        },
        {
          "internalType": "bytes",
          "name": "params",
          "type": "bytes"
        }
      ],
      "name": "getVotesWithParams",
      "outputs": [
        {
          "internalType": "uint256",
          "name": "",
          "type": "uint256"
        }
      ],
      "stateMutability": "view",
      "type": "function",
      "constant": true
    },
    {
      "inputs": [
        {
          "internalType": "uint256",
          "name": "proposalId",
          "type": "uint256"
        },
        {
          "internalType": "address",
          "name": "account",
          "type": "address"
        }
      ],
      "name": "hasVoted",
      "outputs": [
        {
          "internalType": "bool",
          "name": "",
          "type": "bool"
        }
      ],
      "stateMutability": "view",
      "type": "function",
      "constant": true
    },
    {
      "inputs": [
        {
          "internalType": "address[]",
          "name": "targets",
          "type": "address[]"
        },
        {
          "internalType": "uint256[]",
          "name": "values",
          "type": "uint256[]"
        },
        {
          "internalType": "bytes[]",
          "name": "calldatas",
          "type": "bytes[]"
        },
        {
          "internalType": "bytes32",
          "name": "descriptionHash",
          "type": "bytes32"
        }
      ],
      "name": "hashProposal",
      "outputs": [
        {
          "internalType": "uint256",
          "name": "",
          "type": "uint256"
        }
      ],
      "stateMutability": "pure",
      "type": "function",
      "constant": true
    },
    {
      "inputs": [],
      "name": "name",
      "outputs": [
        {
          "internalType": "string",
          "name": "",
          "type": "string"
        }
      ],
      "stateMutability": "view",
      "type": "function",
      "constant": true
    },
    {
      "inputs": [
        {
          "internalType": "address",
          "name": "",
          "type": "address"
        },
        {
          "internalType": "address",
          "name": "",
          "type": "address"
        },
        {
          "internalType": "uint256[]",
          "name": "",
          "type": "uint256[]"
        },
        {
          "internalType": "uint256[]",
          "name": "",
          "type": "uint256[]"
        },
        {
          "internalType": "bytes",
          "name": "",
          "type": "bytes"
        }
      ],
      "name": "onERC1155BatchReceived",
      "outputs": [
        {
          "internalType": "bytes4",
          "name": "",
          "type": "bytes4"
        }
      ],
      "stateMutability": "nonpayable",
      "type": "function"
    },
    {
      "inputs": [
        {
          "internalType": "address",
          "name": "",
          "type": "address"
        },
        {
          "internalType": "address",
          "name": "",
          "type": "address"
        },
        {
          "internalType": "uint256",
          "name": "",
          "type": "uint256"
        },
        {
          "internalType": "uint256",
          "name": "",
          "type": "uint256"
        },
        {
          "internalType": "bytes",
          "name": "",
          "type": "bytes"
        }
      ],
      "name": "onERC1155Received",
      "outputs": [
        {
          "internalType": "bytes4",
          "name": "",
          "type": "bytes4"
        }
      ],
      "stateMutability": "nonpayable",
      "type": "function"
    },
    {
      "inputs": [
        {
          "internalType": "address",
          "name": "",
          "type": "address"
        },
        {
          "internalType": "address",
          "name": "",
          "type": "address"
        },
        {
          "internalType": "uint256",
          "name": "",
          "type": "uint256"
        },
        {
          "internalType": "bytes",
          "name": "",
          "type": "bytes"
        }
      ],
      "name": "onERC721Received",
      "outputs": [
        {
          "internalType": "bytes4",
          "name": "",
          "type": "bytes4"
        }
      ],
      "stateMutability": "nonpayable",
      "type": "function"
    },
    {
      "inputs": [
        {
          "internalType": "uint256",
          "name": "proposalId",
          "type": "uint256"
        }
      ],
      "name": "proposalDeadline",
      "outputs": [
        {
          "internalType": "uint256",
          "name": "",
          "type": "uint256"
        }
      ],
      "stateMutability": "view",
      "type": "function",
      "constant": true
    },
    {
      "inputs": [
        {
          "internalType": "uint256",
          "name": "proposalId",
          "type": "uint256"
        }
      ],
      "name": "proposalEta",
      "outputs": [
        {
          "internalType": "uint256",
          "name": "",
          "type": "uint256"
        }
      ],
      "stateMutability": "view",
      "type": "function",
      "constant": true
    },
    {
      "inputs": [
        {
          "internalType": "uint256",
          "name": "proposalId",
          "type": "uint256"
        }
      ],
      "name": "proposalProposer",
      "outputs": [
        {
          "internalType": "address",
          "name": "",
          "type": "address"
        }
      ],
      "stateMutability": "view",
      "type": "function",
      "constant": true
    },
    {
      "inputs": [
        {
          "internalType": "uint256",
          "name": "proposalId",
          "type": "uint256"
        }
      ],
      "name": "proposalSnapshot",
      "outputs": [
        {
          "internalType": "uint256",
          "name": "",
          "type": "uint256"
        }
      ],
      "stateMutability": "view",
      "type": "function",
      "constant": true
    },
    {
      "inputs": [
        {
          "internalType": "uint256",
          "name": "proposalId",
          "type": "uint256"
        }
      ],
      "name": "proposalVotes",
      "outputs": [
        {
          "internalType": "uint256",
          "name": "againstVotes",
          "type": "uint256"
        },
        {
          "internalType": "uint256",
          "name": "forVotes",
          "type": "uint256"
        },
        {
          "internalType": "uint256",
          "name": "abstainVotes",
          "type": "uint256"
        }
      ],
      "stateMutability": "view",
      "type": "function",
      "constant": true
    },
    {
      "inputs": [
        {
          "internalType": "uint256",
          "name": "",
          "type": "uint256"
        }
      ],
      "name": "proposes",
      "outputs": [
        {
          "internalType": "uint256",
          "name": "",
          "type": "uint256"
        }
      ],
      "stateMutability": "view",
      "type": "function",
      "constant": true
    },
    {
      "inputs": [
        {
          "internalType": "address[]",
          "name": "targets",
          "type": "address[]"
        },
        {
          "internalType": "uint256[]",
          "name": "values",
          "type": "uint256[]"
        },
        {
          "internalType": "bytes[]",
          "name": "calldatas",
          "type": "bytes[]"
        },
        {
          "internalType": "bytes32",
          "name": "descriptionHash",
          "type": "bytes32"
        }
      ],
      "name": "queue",
      "outputs": [
        {
          "internalType": "uint256",
          "name": "",
          "type": "uint256"
        }
      ],
      "stateMutability": "nonpayable",
      "type": "function"
    },
    {
      "inputs": [],
      "name": "quorumDenominator",
      "outputs": [
        {
          "internalType": "uint256",
          "name": "",
          "type": "uint256"
        }
      ],
      "stateMutability": "view",
      "type": "function",
      "constant": true
    },
    {
      "inputs": [
        {
          "internalType": "uint256",
          "name": "timepoint",
          "type": "uint256"
        }
      ],
      "name": "quorumNumerator",
      "outputs": [
        {
          "internalType": "uint256",
          "name": "",
          "type": "uint256"
        }
      ],
      "stateMutability": "view",
      "type": "function",
      "constant": true
    },
    {
      "inputs": [],
      "name": "quorumNumerator",
      "outputs": [
        {
          "internalType": "uint256",
          "name": "",
          "type": "uint256"
        }
      ],
      "stateMutability": "view",
      "type": "function",
      "constant": true
    },
    {
      "inputs": [
        {
          "internalType": "address",
          "name": "target",
          "type": "address"
        },
        {
          "internalType": "uint256",
          "name": "value",
          "type": "uint256"
        },
        {
          "internalType": "bytes",
          "name": "data",
          "type": "bytes"
        }
      ],
      "name": "relay",
      "outputs": [],
      "stateMutability": "payable",
      "type": "function",
      "payable": true
    },
    {
      "inputs": [],
      "name": "s_proposalCount",
      "outputs": [
        {
          "internalType": "uint256",
          "name": "",
          "type": "uint256"
        }
      ],
      "stateMutability": "view",
      "type": "function",
      "constant": true
    },
    {
      "inputs": [
        {
          "internalType": "uint256",
          "name": "newProposalThreshold",
          "type": "uint256"
        }
      ],
      "name": "setProposalThreshold",
      "outputs": [],
      "stateMutability": "nonpayable",
      "type": "function"
    },
    {
      "inputs": [
        {
          "internalType": "uint256",
          "name": "newVotingDelay",
          "type": "uint256"
        }
      ],
      "name": "setVotingDelay",
      "outputs": [],
      "stateMutability": "nonpayable",
      "type": "function"
    },
    {
      "inputs": [
        {
          "internalType": "uint256",
          "name": "newVotingPeriod",
          "type": "uint256"
        }
      ],
      "name": "setVotingPeriod",
      "outputs": [],
      "stateMutability": "nonpayable",
      "type": "function"
    },
    {
      "inputs": [],
      "name": "timelock",
      "outputs": [
        {
          "internalType": "address",
          "name": "",
          "type": "address"
        }
      ],
      "stateMutability": "view",
      "type": "function",
      "constant": true
    },
    {
      "inputs": [],
      "name": "token",
      "outputs": [
        {
          "internalType": "contract IERC5805",
          "name": "",
          "type": "address"
        }
      ],
      "stateMutability": "view",
      "type": "function",
      "constant": true
    },
    {
      "inputs": [
        {
          "internalType": "uint256",
          "name": "newQuorumNumerator",
          "type": "uint256"
        }
      ],
      "name": "updateQuorumNumerator",
      "outputs": [],
      "stateMutability": "nonpayable",
      "type": "function"
    },
    {
      "inputs": [
        {
          "internalType": "contract TimelockController",
          "name": "newTimelock",
          "type": "address"
        }
      ],
      "name": "updateTimelock",
      "outputs": [],
      "stateMutability": "nonpayable",
      "type": "function"
    },
    {
      "inputs": [],
      "name": "version",
      "outputs": [
        {
          "internalType": "string",
          "name": "",
          "type": "string"
        }
      ],
      "stateMutability": "view",
      "type": "function",
      "constant": true
    },
    {
      "stateMutability": "payable",
      "type": "receive",
      "payable": true
    },
    {
      "inputs": [],
      "name": "votingDelay",
      "outputs": [
        {
          "internalType": "uint256",
          "name": "",
          "type": "uint256"
        }
      ],
      "stateMutability": "view",
      "type": "function",
      "constant": true
    },
    {
      "inputs": [],
      "name": "votingPeriod",
      "outputs": [
        {
          "internalType": "uint256",
          "name": "",
          "type": "uint256"
        }
      ],
      "stateMutability": "view",
      "type": "function",
      "constant": true
    },
    {
      "inputs": [
        {
          "internalType": "uint256",
          "name": "blockNumber",
          "type": "uint256"
        }
      ],
      "name": "quorum",
      "outputs": [
        {
          "internalType": "uint256",
          "name": "",
          "type": "uint256"
        }
      ],
      "stateMutability": "view",
      "type": "function",
      "constant": true
    },
    {
      "inputs": [
        {
          "internalType": "address",
          "name": "account",
          "type": "address"
        },
        {
          "internalType": "uint256",
          "name": "blockNumber",
          "type": "uint256"
        }
      ],
      "name": "getVotes",
      "outputs": [
        {
          "internalType": "uint256",
          "name": "",
          "type": "uint256"
        }
      ],
      "stateMutability": "view",
      "type": "function",
      "constant": true
    },
    {
      "inputs": [
        {
          "internalType": "uint256",
          "name": "proposalId",
          "type": "uint256"
        }
      ],
      "name": "state",
      "outputs": [
        {
          "internalType": "enum IGovernor.ProposalState",
          "name": "",
          "type": "uint8"
        }
      ],
      "stateMutability": "view",
      "type": "function",
      "constant": true
    },
    {
      "inputs": [
        {
          "internalType": "address[]",
          "name": "targets",
          "type": "address[]"
        },
        {
          "internalType": "uint256[]",
          "name": "values",
          "type": "uint256[]"
        },
        {
          "internalType": "bytes[]",
          "name": "calldatas",
          "type": "bytes[]"
        },
        {
          "internalType": "string",
          "name": "description",
          "type": "string"
        }
      ],
      "name": "propose",
      "outputs": [
        {
          "internalType": "uint256",
          "name": "proposalId",
          "type": "uint256"
        }
      ],
      "stateMutability": "nonpayable",
      "type": "function"
    },
    {
      "inputs": [],
      "name": "proposalThreshold",
      "outputs": [
        {
          "internalType": "uint256",
          "name": "",
          "type": "uint256"
        }
      ],
      "stateMutability": "view",
      "type": "function",
      "constant": true
    },
    {
      "inputs": [
        {
          "internalType": "bytes4",
          "name": "interfaceId",
          "type": "bytes4"
        }
      ],
      "name": "supportsInterface",
      "outputs": [
        {
          "internalType": "bool",
          "name": "",
          "type": "bool"
        }
      ],
      "stateMutability": "view",
      "type": "function",
      "constant": true
    },
    {
      "inputs": [],
      "name": "getNumberOfProposals",
      "outputs": [
        {
          "internalType": "uint256",
          "name": "",
          "type": "uint256"
        }
      ],
      "stateMutability": "view",
      "type": "function",
      "constant": true
    },
    {
      "inputs": [],
      "name": "proposesLength",
      "outputs": [
        {
          "internalType": "uint256",
          "name": "",
          "type": "uint256"
        }
      ],
      "stateMutability": "view",
      "type": "function",
      "constant": true
    }
  ],
  "bytecode": "0x6101806040523480156200001257600080fd5b50604051620058ca380380620058ca833981016040819052620000359162000a7e565b838386838560006040518060400160405280601081526020016f11dbdd995c9b9bdc90dbdb9d1c9858dd60821b8152508062000076620001b760201b60201c565b62000091600083620001d260201b62001c121790919060201c565b61012052620000ae816001620001d2602090811b62001c1217901c565b61014052815160208084019190912060e052815190820120610100524660a0526200013c60e05161010051604080517f8b73c3c69bb8fe3d512ecc4cf759cc79239f7b179b0ffacaa9a75d522b39400f60208201529081019290925260608201524660808201523060a082015260009060c00160405160208183030381529060405280519060200120905090565b60805250503060c05280516200015a906002906020840190620009c9565b506200016890508362000226565b620001738262000267565b6200017e816200030e565b5050506001600160a01b03166101605262000199816200034f565b50620001a58162000504565b50506000600e555062000bdc92505050565b6040805180820190915260018152603160f81b602082015290565b6000602083511015620001f257620001ea836200056d565b905062000220565b826200020983620005b060201b62001c491760201c565b81516200021a9260200190620009c9565b5060ff90505b92915050565b60065460408051918252602082018390527fc565b045403dc03c2eea82b81a0465edad9e2e7fc4d97e11421c209da93d7a93910160405180910390a1600655565b60008111620002cd5760405162461bcd60e51b815260206004820152602760248201527f476f7665726e6f7253657474696e67733a20766f74696e6720706572696f6420604482015266746f6f206c6f7760c81b60648201526084015b60405180910390fd5b60075460408051918252602082018390527f7e3f7f0708a84de9203036abaa450dccc85ad5ff52f78c170f3edb55cf5e8828910160405180910390a1600755565b60085460408051918252602082018390527fccb45da8d5717e6c4544694297c4ba5cf151d455c9bb0ed4fc7a38411bc05461910160405180910390a1600855565b6064811115620003d45760405162461bcd60e51b815260206004820152604360248201527f476f7665726e6f72566f74657351756f72756d4672616374696f6e3a2071756f60448201527f72756d4e756d657261746f72206f7665722071756f72756d44656e6f6d696e616064820152623a37b960e91b608482015260a401620002c4565b6000620003e0620005b3565b90508015801590620003f25750600b54155b156200046d57600b6000016040518060400160405280600063ffffffff1681526020016200042b84620005ed60201b62001c4c1760201c565b6001600160e01b0390811690915282546001810184556000938452602093849020835194909301519091166401000000000263ffffffff909316929092179101555b620004c5620004986200047f6200065c565b65ffffffffffff16620006de60201b62001cb91760201c565b620004ae84620005ed60201b62001c4c1760201c565b600b6200074560201b62001d1e179092919060201c565b505060408051828152602081018490527f0553476bf02ef2726e8ce5ced78d63e26e602e4a2257b1f559418e24b4633997910160405180910390a15050565b600c54604080516001600160a01b03928316815291831660208301527f08f74ea46ef7894f65eabfb5e6e695de773a000b47c529ab559178069b226401910160405180910390a1600c80546001600160a01b0319166001600160a01b0392909216919091179055565b600080829050601f815111156200059b578260405163305a27a960e01b8152600401620002c4919062000ad6565b8051620005a88262000b2e565b179392505050565b90565b600b5460009015620005e457620005d6600b6200076260201b62001d391760201c565b6001600160e01b0316905090565b600a545b905090565b60006001600160e01b03821115620006585760405162461bcd60e51b815260206004820152602760248201527f53616665436173743a2076616c756520646f65736e27742066697420696e20326044820152663234206269747360c81b6064820152608401620002c4565b5090565b6000610160516001600160a01b03166391ddadf46040518163ffffffff1660e01b8152600401602060405180830381865afa925050508015620006be575060408051601f3d908101601f19168201909252620006bb9181019062000b56565b60015b620006d957620005e843620007b060201b62001d771760201c565b919050565b600063ffffffff821115620006585760405162461bcd60e51b815260206004820152602660248201527f53616665436173743a2076616c756520646f65736e27742066697420696e203360448201526532206269747360d01b6064820152608401620002c4565b6000806200075585858562000819565b915091505b935093915050565b80546000908015620007a6576200078e836200078060018462000b80565b600091825260209091200190565b5464010000000090046001600160e01b0316620007a9565b60005b9392505050565b600065ffffffffffff821115620006585760405162461bcd60e51b815260206004820152602660248201527f53616665436173743a2076616c756520646f65736e27742066697420696e203460448201526538206269747360d01b6064820152608401620002c4565b8254600090819080156200096e5760006200083b876200078060018562000b80565b60408051808201909152905463ffffffff8082168084526401000000009092046001600160e01b031660208401529192509087161015620008bf5760405162461bcd60e51b815260206004820152601b60248201527f436865636b706f696e743a2064656372656173696e67206b65797300000000006044820152606401620002c4565b805163ffffffff8088169116036200090d5784620008e4886200078060018662000b80565b80546001600160e01b03929092166401000000000263ffffffff9092169190911790556200095d565b6040805180820190915263ffffffff80881682526001600160e01b0380881660208085019182528b54600181018d5560008d81529190912094519151909216640100000000029216919091179101555b6020015192508391506200075a9050565b50506040805180820190915263ffffffff80851682526001600160e01b0380851660208085019182528854600181018a5560008a8152918220955192519093166401000000000291909316179201919091559050816200075a565b828054620009d79062000ba6565b90600052602060002090601f016020900481019282620009fb576000855562000a46565b82601f1062000a1657805160ff191683800117855562000a46565b8280016001018555821562000a46579182015b8281111562000a4657825182559160200191906001019062000a29565b50620006589291505b8082111562000658576000815560010162000a4f565b6001600160a01b038116811462000a7b57600080fd5b50565b600080600080600060a0868803121562000a9757600080fd5b855162000aa48162000a65565b602087015190955062000ab78162000a65565b6040870151606088015160809098015196999198509695945092505050565b600060208083528351808285015260005b8181101562000b055785810183015185820160400152820162000ae7565b8181111562000b18576000604083870101525b50601f01601f1916929092016040019392505050565b8051602080830151919081101562000b50576000198160200360031b1b821691505b50919050565b60006020828403121562000b6957600080fd5b815165ffffffffffff81168114620007a957600080fd5b60008282101562000ba157634e487b7160e01b600052601160045260246000fd5b500390565b600181811c9082168062000bbb57607f821691505b60208210810362000b5057634e487b7160e01b600052602260045260246000fd5b60805160a05160c05160e05161010051610120516101405161016051614c6c62000c5e60003960008181610ad80152818161133b015281816117b2015281816129880152612b9d0152600061175e0152600061173401526000612f7701526000612f4f01526000612eaa01526000612ed401526000612efe0152614c6c6000f3fe6080604052600436106102e85760003560e01c806360c4247f11610190578063bc197c81116100dc578063deaaa7cc11610095578063ece40cc11161006f578063ece40cc114610a5a578063f23a6e6114610a7a578063f8ce560a14610aa6578063fc0c546a14610ac657600080fd5b8063deaaa7cc146109e6578063ea0217cf14610a1a578063eb9019d414610a3a57600080fd5b8063bc197c81146108ea578063c01f9e3714610916578063c28bc2fa1461094f578063c59057e414610962578063d33219b414610982578063dd4e2ba5146109a057600080fd5b806397c3d33411610149578063a890c91011610123578063a890c9101461087f578063ab58fb8e1461089f578063b3cbcf1b146108bf578063b58131b0146108d557600080fd5b806397c3d334146108365780639a802a6d1461084a578063a7713a701461086a57600080fd5b806360c4247f1461076257806370b0f660146107825780637b3c71d3146107a25780637d5e81e2146107c257806384b0196e146107e257806391ddadf41461080a57600080fd5b806333809b6c1161024f5780634385963211610208578063544ffc9c116101e2578063544ffc9c146106a357806354fd4d50146106f857806356781388146107225780635f398a141461074257600080fd5b80634385963214610624578063452115d61461066e5780634bf5d7e91461068e57600080fd5b806333809b6c14610578578063376b2b051461058d5780633828de82146105a25780633932abb1146105c25780633bccf4fd146105d75780633e4f49e6146105f757600080fd5b8063150b7a02116102a1578063150b7a0214610467578063160cbed7146104ab57806317dc757d146104cb5780632656227d146104fb5780632d63f6931461050e5780632fe3e2611461054457600080fd5b806301ffc9a71461035857806302a251a31461038d57806303420181146103b057806306f3f9e6146103d057806306fdde03146103f0578063143489d01461041257600080fd5b3661035357306102f6610afa565b6001600160a01b0316146103515760405162461bcd60e51b815260206004820152601f60248201527f476f7665726e6f723a206d7573742073656e6420746f206578656375746f720060448201526064015b60405180910390fd5b005b600080fd5b34801561036457600080fd5b50610378610373366004613c61565b610b13565b60405190151581526020015b60405180910390f35b34801561039957600080fd5b506103a2610b24565b604051908152602001610384565b3480156103bc57600080fd5b506103a26103cb366004613daf565b610b2f565b3480156103dc57600080fd5b506103516103eb366004613e55565b610c27565b3480156103fc57600080fd5b50610405610cb1565b6040516103849190613eca565b34801561041e57600080fd5b5061044f61042d366004613e55565b600090815260036020526040902054600160401b90046001600160a01b031690565b6040516001600160a01b039091168152602001610384565b34801561047357600080fd5b50610492610482366004613ef2565b630a85bd0160e11b949350505050565b6040516001600160e01b03199091168152602001610384565b3480156104b757600080fd5b506103a26104c63660046140c9565b610d43565b3480156104d757600080fd5b506104eb6104e6366004613e55565b610f44565b6040516103849493929190614158565b6103a26105093660046140c9565b611087565b34801561051a57600080fd5b506103a2610529366004613e55565b6000908152600360205260409020546001600160401b031690565b34801561055057600080fd5b506103a27fb3b3f3b703cd84ce352197dcff232b1b5d3cfb2025ce47cf04742d0651f1af8881565b34801561058457600080fd5b50600e546103a2565b34801561059957600080fd5b506010546103a2565b3480156105ae57600080fd5b506103a26105bd366004613e55565b611179565b3480156105ce57600080fd5b506103a261119a565b3480156105e357600080fd5b506103a26105f2366004614194565b6111a5565b34801561060357600080fd5b50610617610612366004613e55565b61121b565b60405161038491906141f8565b34801561063057600080fd5b5061037861063f366004614220565b60008281526009602090815260408083206001600160a01b038516845260030190915290205460ff1692915050565b34801561067a57600080fd5b506103a26106893660046140c9565b611226565b34801561069a57600080fd5b50610405611337565b3480156106af57600080fd5b506106dd6106be366004613e55565b6000908152600960205260409020805460018201546002909201549092565b60408051938452602084019290925290820152606001610384565b34801561070457600080fd5b506040805180820190915260018152603160f81b6020820152610405565b34801561072e57600080fd5b506103a261073d366004614250565b6113f9565b34801561074e57600080fd5b506103a261075d36600461427c565b611422565b34801561076e57600080fd5b506103a261077d366004613e55565b61146c565b34801561078e57600080fd5b5061035161079d366004613e55565b61151d565b3480156107ae57600080fd5b506103a26107bd3660046142ff565b6115a4565b3480156107ce57600080fd5b506103a26107dd366004614358565b6115ec565b3480156107ee57600080fd5b506107f7611726565b6040516103849796959493929190614447565b34801561081657600080fd5b5061081f6117ae565b60405165ffffffffffff9091168152602001610384565b34801561084257600080fd5b5060646103a2565b34801561085657600080fd5b506103a26108653660046144a9565b611837565b34801561087657600080fd5b506103a261184e565b34801561088b57600080fd5b5061035161089a366004614501565b611878565b3480156108ab57600080fd5b506103a26108ba366004613e55565b6118ff565b3480156108cb57600080fd5b506103a2600e5481565b3480156108e157600080fd5b506103a2611999565b3480156108f657600080fd5b5061049261090536600461451e565b63bc197c8160e01b95945050505050565b34801561092257600080fd5b506103a2610931366004613e55565b6000908152600360205260409020600101546001600160401b031690565b61035161095d3660046145b1565b6119a4565b34801561096e57600080fd5b506103a261097d3660046140c9565b611ab3565b34801561098e57600080fd5b50600c546001600160a01b031661044f565b3480156109ac57600080fd5b506040805180820190915260208082527f737570706f72743d627261766f2671756f72756d3d666f722c6162737461696e90820152610405565b3480156109f257600080fd5b506103a27f150214d74d59b7d1e90c73fc22ef3d991dd0a76b046543d4d80ab92d2a50328f81565b348015610a2657600080fd5b50610351610a35366004613e55565b611aed565b348015610a4657600080fd5b506103a2610a553660046145f4565b611b74565b348015610a6657600080fd5b50610351610a75366004613e55565b611b80565b348015610a8657600080fd5b50610492610a95366004614620565b63f23a6e6160e01b95945050505050565b348015610ab257600080fd5b506103a2610ac1366004613e55565b611c07565b348015610ad257600080fd5b5061044f7f000000000000000000000000000000000000000000000000000000000000000081565b6000610b0e600c546001600160a01b031690565b905090565b6000610b1e82611dde565b92915050565b6000610b0e60075490565b600080610bd3610bcb7fb3b3f3b703cd84ce352197dcff232b1b5d3cfb2025ce47cf04742d0651f1af888c8c8c8c604051610b6b929190614688565b60405180910390208b80519060200120604051602001610bb0959493929190948552602085019390935260ff9190911660408401526060830152608082015260a00190565b60405160208183030381529060405280519060200120611e03565b868686611e30565b9050610c198a828b8b8b8080601f0160208091040260200160405190810160405280939291908181526020018383808284376000920191909152508d9250611e4e915050565b9a9950505050505050505050565b610c2f610afa565b6001600160a01b0316336001600160a01b031614610c5f5760405162461bcd60e51b815260040161034890614698565b30610c68610afa565b6001600160a01b031614610ca55760008036604051610c88929190614688565b604051809103902090505b80610c9e6004611fa3565b03610c9357505b610cae81612022565b50565b606060028054610cc0906146cf565b80601f0160208091040260200160405190810160405280929190818152602001828054610cec906146cf565b8015610d395780601f10610d0e57610100808354040283529160200191610d39565b820191906000526020600020905b815481529060010190602001808311610d1c57829003601f168201915b5050505050905090565b600080610d5286868686611ab3565b90506004610d5f8261121b565b6007811115610d7057610d706141e2565b14610d8d5760405162461bcd60e51b815260040161034890614709565b600c546040805163793d064960e11b815290516000926001600160a01b03169163f27a0c929160048083019260209291908290030181865afa158015610dd7573d6000803e3d6000fd5b505050506040513d601f19601f82011682018060405250810190610dfb919061474a565b600c5460405163b1c5f42760e01b81529192506001600160a01b03169063b1c5f42790610e35908a908a908a906000908b906004016147f1565b602060405180830381865afa158015610e52573d6000803e3d6000fd5b505050506040513d601f19601f82011682018060405250810190610e76919061474a565b6000838152600d602052604080822092909255600c5491516308f2a0bb60e41b81526001600160a01b0390921691638f2a0bb091610ec1918b918b918b91908b90899060040161483f565b600060405180830381600087803b158015610edb57600080fd5b505af1158015610eef573d6000803e3d6000fd5b505050507f9a2e42fd6722813d69113e7d0079d3d940171428df7373df9c7f7617cfda2892828242610f2191906148ad565b604080519283526020830191909152015b60405180910390a15095945050505050565b600f6020526000908152604090208054600182015460028301805492936001600160a01b0390921692610f76906146cf565b80601f0160208091040260200160405190810160405280929190818152602001828054610fa2906146cf565b8015610fef5780601f10610fc457610100808354040283529160200191610fef565b820191906000526020600020905b815481529060010190602001808311610fd257829003601f168201915b505050505090806003018054611004906146cf565b80601f0160208091040260200160405190810160405280929190818152602001828054611030906146cf565b801561107d5780601f106110525761010080835404028352916020019161107d565b820191906000526020600020905b81548152906001019060200180831161106057829003601f168201915b5050505050905084565b60008061109686868686611ab3565b905060006110a38261121b565b905060048160078111156110b9576110b96141e2565b14806110d6575060058160078111156110d4576110d46141e2565b145b6110f25760405162461bcd60e51b815260040161034890614709565b60008281526003602052604090819020600201805460ff19166001179055517f712ae1383f79ac853f8d882153778e0260ef8f03b504e2866e0593e04d2b291f906111409084815260200190565b60405180910390a16111558288888888612190565b6111628288888888612232565b61116f828888888861223f565b5095945050505050565b6010818154811061118957600080fd5b600091825260209091200154905081565b6000610b0e60065490565b604080517f150214d74d59b7d1e90c73fc22ef3d991dd0a76b046543d4d80ab92d2a50328f602082015290810186905260ff8516606082015260009081906111f390610bcb90608001610bb0565b905061121087828860405180602001604052806000815250612278565b979650505050505050565b6000610b1e826122a4565b60008061123586868686611ab3565b905060006112428261121b565b6007811115611253576112536141e2565b146112a05760405162461bcd60e51b815260206004820152601c60248201527f476f7665726e6f723a20746f6f206c61746520746f2063616e63656c000000006044820152606401610348565b600081815260036020526040902054600160401b90046001600160a01b0316336001600160a01b0316146113215760405162461bcd60e51b815260206004820152602260248201527f476f7665726e6f723a206f6e6c792070726f706f7365722063616e2063616e63604482015261195b60f21b6064820152608401610348565b61132d868686866123ee565b9695505050505050565b60607f00000000000000000000000000000000000000000000000000000000000000006001600160a01b0316634bf5d7e96040518163ffffffff1660e01b8152600401600060405180830381865afa9250505080156113b857506040513d6000823e601f3d908101601f191682016040526113b591908101906148c5565b60015b6113f4575060408051808201909152601d81527f6d6f64653d626c6f636b6e756d6265722666726f6d3d64656661756c74000000602082015290565b919050565b60008033905061141a84828560405180602001604052806000815250612278565b949350505050565b60008033905061121087828888888080601f0160208091040260200160405190810160405280939291908181526020018383808284376000920191909152508a9250611e4e915050565b600b54600090808203611483575050600a54919050565b6000600b611492600184614932565b815481106114a2576114a2614949565b60009182526020918290206040805180820190915291015463ffffffff8116808352600160201b9091046001600160e01b031692820192909252915084106114f857602001516001600160e01b03169392505050565b61150c61150485611cb9565b600b906123fc565b6001600160e01b0316949350505050565b611525610afa565b6001600160a01b0316336001600160a01b0316146115555760405162461bcd60e51b815260040161034890614698565b3061155e610afa565b6001600160a01b03161461159b576000803660405161157e929190614688565b604051809103902090505b806115946004611fa3565b0361158957505b610cae816124a1565b60008033905061132d86828787878080601f01602080910402602001604051908101604052809392919081815260200183838082843760009201919091525061227892505050565b60006115fa858585856124e2565b9050600060405180608001604052808381526020018760008151811061162257611622614949565b60200260200101516001600160a01b031681526020018560008151811061164b5761164b614949565b60209081029190910181015182529081018590526000848152600f825260409081902083518155838301516001820180546001600160a01b0319166001600160a01b03909216919091179055908301518051939450849391926116b692600285019290910190613bd1565b50606082015180516116d2916003840191602090910190613bd1565b50506010805460018101825560009182527f1b6847dc741a1b0cd08d278845f9d819d87b734759afb55fe2de5cb82a9ae67201849055600e80549250906117188361495f565b919050555050949350505050565b6000606080828080836117597f0000000000000000000000000000000000000000000000000000000000000000836128bb565b6117847f000000000000000000000000000000000000000000000000000000000000000060016128bb565b60408051600080825260208201909252600f60f81b9b939a50919850469750309650945092509050565b60007f00000000000000000000000000000000000000000000000000000000000000006001600160a01b03166391ddadf46040518163ffffffff1660e01b8152600401602060405180830381865afa92505050801561182a575060408051601f3d908101601f1916820190925261182791810190614978565b60015b6113f457610b0e43611d77565b600061184484848461295f565b90505b9392505050565b600b546000901561187157611863600b611d39565b6001600160e01b0316905090565b50600a5490565b611880610afa565b6001600160a01b0316336001600160a01b0316146118b05760405162461bcd60e51b815260040161034890614698565b306118b9610afa565b6001600160a01b0316146118f657600080366040516118d9929190614688565b604051809103902090505b806118ef6004611fa3565b036118e457505b610cae816129f5565b600c546000828152600d602052604080822054905163d45c443560e01b81526004810191909152909182916001600160a01b039091169063d45c443590602401602060405180830381865afa15801561195c573d6000803e3d6000fd5b505050506040513d601f19601f82011682018060405250810190611980919061474a565b9050806001146119905780611847565b60009392505050565b6000610b0e60085490565b6119ac610afa565b6001600160a01b0316336001600160a01b0316146119dc5760405162461bcd60e51b815260040161034890614698565b306119e5610afa565b6001600160a01b031614611a225760008036604051611a05929190614688565b604051809103902090505b80611a1b6004611fa3565b03611a1057505b600080856001600160a01b0316858585604051611a40929190614688565b60006040518083038185875af1925050503d8060008114611a7d576040519150601f19603f3d011682016040523d82523d6000602084013e611a82565b606091505b5091509150611aaa8282604051806060016040528060288152602001614c0f60289139612a5e565b50505050505050565b600084848484604051602001611acc94939291906149a0565b60408051601f19818403018152919052805160209091012095945050505050565b611af5610afa565b6001600160a01b0316336001600160a01b031614611b255760405162461bcd60e51b815260040161034890614698565b30611b2e610afa565b6001600160a01b031614611b6b5760008036604051611b4e929190614688565b604051809103902090505b80611b646004611fa3565b03611b5957505b610cae81612a77565b60006118478383612b18565b611b88610afa565b6001600160a01b0316336001600160a01b031614611bb85760405162461bcd60e51b815260040161034890614698565b30611bc1610afa565b6001600160a01b031614611bfe5760008036604051611be1929190614688565b604051809103902090505b80611bf76004611fa3565b03611bec57505b610cae81612b39565b6000610b1e82612b7a565b6000602083511015611c2e57611c2783612c24565b9050610b1e565b82828151611c3f9260200190613bd1565b5060ff9050610b1e565b90565b60006001600160e01b03821115611cb55760405162461bcd60e51b815260206004820152602760248201527f53616665436173743a2076616c756520646f65736e27742066697420696e20326044820152663234206269747360c81b6064820152608401610348565b5090565b600063ffffffff821115611cb55760405162461bcd60e51b815260206004820152602660248201527f53616665436173743a2076616c756520646f65736e27742066697420696e203360448201526532206269747360d01b6064820152608401610348565b600080611d2c858585612c62565b915091505b935093915050565b8054600090801561199057611d6183611d53600184614932565b600091825260209091200190565b54600160201b90046001600160e01b0316611847565b600065ffffffffffff821115611cb55760405162461bcd60e51b815260206004820152602660248201527f53616665436173743a2076616c756520646f65736e27742066697420696e203460448201526538206269747360d01b6064820152608401610348565b60006001600160e01b03198216636e665ced60e01b1480610b1e5750610b1e82612e01565b6000610b1e611e10612e9d565b8360405161190160f01b8152600281019290925260228201526042902090565b6000806000611e4187878787612fc8565b9150915061116f8161308c565b60008581526003602052604081206001611e678861121b565b6007811115611e7857611e786141e2565b14611ed15760405162461bcd60e51b815260206004820152602360248201527f476f7665726e6f723a20766f7465206e6f742063757272656e746c792061637460448201526269766560e81b6064820152608401610348565b8054600090611eeb9088906001600160401b03168661295f565b9050611efa88888884886131d6565b8351600003611f4f57866001600160a01b03167fb8e138887d0aa13bab447e82de9d5c1777041ecd21ca36ba824ff1e6c07ddda489888489604051611f4294939291906149eb565b60405180910390a2611210565b866001600160a01b03167fe2babfbac5889a709b63bb7f598b324e08bc5a4fb9ec647fb3cbc9ec07eb87128988848989604051611f90959493929190614a13565b60405180910390a2979650505050505050565b6000611fbe8254600f81810b600160801b909204900b131590565b15611fdc57604051631ed9509560e11b815260040160405180910390fd5b508054600f0b6000818152600180840160205260408220805492905583546fffffffffffffffffffffffffffffffff191692016001600160801b03169190911790915590565b60648111156120a55760405162461bcd60e51b815260206004820152604360248201527f476f7665726e6f72566f74657351756f72756d4672616374696f6e3a2071756f60448201527f72756d4e756d657261746f72206f7665722071756f72756d44656e6f6d696e616064820152623a37b960e91b608482015260a401610348565b60006120af61184e565b905080158015906120c05750600b54155b15612124576040805180820190915260008152600b90602081016120e384611c4c565b6001600160e01b039081169091528254600181018455600093845260209384902083519490930151909116600160201b0263ffffffff909316929092179101555b61215161213f6121326117ae565b65ffffffffffff16611cb9565b61214884611c4c565b600b9190611d1e565b505060408051828152602081018490527f0553476bf02ef2726e8ce5ced78d63e26e602e4a2257b1f559418e24b4633997910160405180910390a15050565b30612199610afa565b6001600160a01b03161461222b5760005b845181101561222957306001600160a01b03168582815181106121cf576121cf614949565b60200260200101516001600160a01b031603612219576122198382815181106121fa576121fa614949565b602002602001015180519060200120600461335090919063ffffffff16565b6122228161495f565b90506121aa565b505b5050505050565b61222b858585858561338c565b30612248610afa565b6001600160a01b03161461222b57600454600f81810b600160801b909204900b131561222b57600060045561222b565b600061229b8585858561229660408051602081019091526000815290565b611e4e565b95945050505050565b6000806122b083613400565b905060048160078111156122c6576122c66141e2565b146122d15792915050565b6000838152600d6020526040902054806122ec575092915050565b600c54604051632ab0f52960e01b8152600481018390526001600160a01b0390911690632ab0f52990602401602060405180830381865afa158015612335573d6000803e3d6000fd5b505050506040513d601f19601f820116820180604052508101906123599190614a59565b15612368575060079392505050565b600c54604051632c258a9f60e11b8152600481018390526001600160a01b039091169063584b153e90602401602060405180830381865afa1580156123b1573d6000803e3d6000fd5b505050506040513d601f19601f820116820180604052508101906123d59190614a59565b156123e4575060059392505050565b5060029392505050565b600061229b85858585613540565b815460009081816005811115612459576000612417846135f2565b6124219085614932565b60008881526020902090915081015463ffffffff908116908716101561244957809150612457565b6124548160016148ad565b92505b505b6000612467878785856136da565b905080156124945761247e87611d53600184614932565b54600160201b90046001600160e01b0316611210565b6000979650505050505050565b60065460408051918252602082018390527fc565b045403dc03c2eea82b81a0465edad9e2e7fc4d97e11421c209da93d7a93910160405180910390a1600655565b6000336124ef8184613738565b61253b5760405162461bcd60e51b815260206004820152601d60248201527f476f7665726e6f723a2070726f706f73657220726573747269637465640000006044820152606401610348565b60006125456117ae565b65ffffffffffff169050612557611999565b61256683610a55600185614932565b10156125ce5760405162461bcd60e51b815260206004820152603160248201527f476f7665726e6f723a2070726f706f73657220766f7465732062656c6f7720706044820152701c9bdc1bdcd85b081d1a1c995cda1bdb19607a1b6064820152608401610348565b60006125e38888888880519060200120611ab3565b905086518851146126065760405162461bcd60e51b815260040161034890614a7b565b85518851146126275760405162461bcd60e51b815260040161034890614a7b565b60008851116126785760405162461bcd60e51b815260206004820152601860248201527f476f7665726e6f723a20656d7074792070726f706f73616c00000000000000006044820152606401610348565b6000818152600360205260409020546001600160401b0316156126e75760405162461bcd60e51b815260206004820152602160248201527f476f7665726e6f723a2070726f706f73616c20616c72656164792065786973746044820152607360f81b6064820152608401610348565b60006126f161119a565b6126fb90846148ad565b90506000612707610b24565b61271190836148ad565b90506040518060e0016040528061272784613829565b6001600160401b031681526001600160a01b03871660208201526000604082015260600161275483613829565b6001600160401b039081168252600060208084018290526040808501839052606094850183905288835260038252918290208551815492870151878501519186166001600160e01b031990941693909317600160401b6001600160a01b039094168402176001600160e01b0316600160e01b60e09290921c91909102178155938501516080860151908416921c0217600183015560a08301516002909201805460c09094015161ffff1990941692151561ff00191692909217610100931515939093029290921790558a517f7d84a6263ae0d98d3329bd7b46bb4e8d6f98cd35a7adb45c274c8b7fd5ebd5e091859188918e918e9181111561285857612858613ce4565b60405190808252806020026020018201604052801561288b57816020015b60608152602001906001900390816128765790505b508d88888f6040516128a599989796959493929190614abc565b60405180910390a1509098975050505050505050565b606060ff83146128ce57611c2783613891565b8180546128da906146cf565b80601f0160208091040260200160405190810160405280929190818152602001828054612906906146cf565b80156129535780601f1061292857610100808354040283529160200191612953565b820191906000526020600020905b81548152906001019060200180831161293657829003601f168201915b50505050509050610b1e565b604051630748d63560e31b81526001600160a01b038481166004830152602482018490526000917f000000000000000000000000000000000000000000000000000000000000000090911690633a46b1a890604401602060405180830381865afa1580156129d1573d6000803e3d6000fd5b505050506040513d601f19601f82011682018060405250810190611844919061474a565b600c54604080516001600160a01b03928316815291831660208301527f08f74ea46ef7894f65eabfb5e6e695de773a000b47c529ab559178069b226401910160405180910390a1600c80546001600160a01b0319166001600160a01b0392909216919091179055565b60608315612a6d575081611847565b61184783836138d0565b60008111612ad75760405162461bcd60e51b815260206004820152602760248201527f476f7665726e6f7253657474696e67733a20766f74696e6720706572696f6420604482015266746f6f206c6f7760c81b6064820152608401610348565b60075460408051918252602082018390527f7e3f7f0708a84de9203036abaa450dccc85ad5ff52f78c170f3edb55cf5e8828910160405180910390a1600755565b60006118478383612b3460408051602081019091526000815290565b61295f565b60085460408051918252602082018390527fccb45da8d5717e6c4544694297c4ba5cf151d455c9bb0ed4fc7a38411bc05461910160405180910390a1600855565b60006064612b878361146c565b604051632394e7a360e21b8152600481018590527f00000000000000000000000000000000000000000000000000000000000000006001600160a01b031690638e539e8c90602401602060405180830381865afa158015612bec573d6000803e3d6000fd5b505050506040513d601f19601f82011682018060405250810190612c10919061474a565b612c1a9190614b93565b610b1e9190614bc8565b600080829050601f81511115612c4f578260405163305a27a960e01b81526004016103489190613eca565b8051612c5a82614bea565b179392505050565b825460009081908015612da8576000612c8087611d53600185614932565b60408051808201909152905463ffffffff808216808452600160201b9092046001600160e01b031660208401529192509087161015612d015760405162461bcd60e51b815260206004820152601b60248201527f436865636b706f696e743a2064656372656173696e67206b65797300000000006044820152606401610348565b805163ffffffff808816911603612d495784612d2288611d53600186614932565b80546001600160e01b0392909216600160201b0263ffffffff909216919091179055612d98565b6040805180820190915263ffffffff80881682526001600160e01b0380881660208085019182528b54600181018d5560008d81529190912094519151909216600160201b029216919091179101555b602001519250839150611d319050565b50506040805180820190915263ffffffff80851682526001600160e01b0380851660208085019182528854600181018a5560008a815291822095519251909316600160201b029190931617920191909155905081611d31565b600063288ace0360e11b6318df743f60e31b63bf26d89760e01b6379dd796f60e01b6001600160e01b03198616821480612e4757506001600160e01b0319868116908216145b80612e5e57506001600160e01b0319868116908516145b80612e7957506001600160e01b03198616630271189760e51b145b8061132d57506301ffc9a760e01b6001600160e01b03198716149695505050505050565b6000306001600160a01b037f000000000000000000000000000000000000000000000000000000000000000016148015612ef657507f000000000000000000000000000000000000000000000000000000000000000046145b15612f2057507f000000000000000000000000000000000000000000000000000000000000000090565b610b0e604080517f8b73c3c69bb8fe3d512ecc4cf759cc79239f7b179b0ffacaa9a75d522b39400f60208201527f0000000000000000000000000000000000000000000000000000000000000000918101919091527f000000000000000000000000000000000000000000000000000000000000000060608201524660808201523060a082015260009060c00160405160208183030381529060405280519060200120905090565b6000807f7fffffffffffffffffffffffffffffff5d576e7357a4501ddfe92f46681b20a0831115612fff5750600090506003613083565b6040805160008082526020820180845289905260ff881692820192909252606081018690526080810185905260019060a0016020604051602081039080840390855afa158015613053573d6000803e3d6000fd5b5050604051601f1901519150506001600160a01b03811661307c57600060019250925050613083565b9150600090505b94509492505050565b60008160048111156130a0576130a06141e2565b036130a85750565b60018160048111156130bc576130bc6141e2565b036131095760405162461bcd60e51b815260206004820152601860248201527f45434453413a20696e76616c6964207369676e617475726500000000000000006044820152606401610348565b600281600481111561311d5761311d6141e2565b0361316a5760405162461bcd60e51b815260206004820152601f60248201527f45434453413a20696e76616c6964207369676e6174757265206c656e677468006044820152606401610348565b600381600481111561317e5761317e6141e2565b03610cae5760405162461bcd60e51b815260206004820152602260248201527f45434453413a20696e76616c6964207369676e6174757265202773272076616c604482015261756560f01b6064820152608401610348565b60008581526009602090815260408083206001600160a01b0388168452600381019092529091205460ff161561325e5760405162461bcd60e51b815260206004820152602760248201527f476f7665726e6f72566f74696e6753696d706c653a20766f746520616c726561604482015266191e4818d85cdd60ca1b6064820152608401610348565b6001600160a01b03851660009081526003820160205260409020805460ff1916600117905560ff84166132aa578281600001600082825461329f91906148ad565b909155506122299050565b60001960ff8516016132ca578281600101600082825461329f91906148ad565b60011960ff8516016132ea578281600201600082825461329f91906148ad565b60405162461bcd60e51b815260206004820152603560248201527f476f7665726e6f72566f74696e6753696d706c653a20696e76616c69642076616044820152746c756520666f7220656e756d20566f74655479706560581b6064820152608401610348565b8154600160801b90819004600f0b6000818152600180860160205260409091209390935583546001600160801b03908116939091011602179055565b600c5460405163e38335e560e01b81526001600160a01b039091169063e38335e59034906133c79088908890889060009089906004016147f1565b6000604051808303818588803b1580156133e057600080fd5b505af11580156133f4573d6000803e3d6000fd5b50505050505050505050565b6000818152600360205260408120600281015460ff16156134245750600792915050565b6002810154610100900460ff161561343f5750600292915050565b6000838152600360205260408120546001600160401b0316908190036134a75760405162461bcd60e51b815260206004820152601d60248201527f476f7665726e6f723a20756e6b6e6f776e2070726f706f73616c2069640000006044820152606401610348565b60006134b16117ae565b65ffffffffffff1690508082106134cd57506000949350505050565b6000858152600360205260409020600101546001600160401b03168181106134fb5750600195945050505050565b613504866138fa565b8015613523575060008681526009602052604090208054600190910154115b156135345750600495945050505050565b50600395945050505050565b60008061354f86868686613946565b6000818152600d60205260409020549091501561229b57600c546000828152600d60205260409081902054905163c4d252f560e01b81526001600160a01b039092169163c4d252f5916135a89160040190815260200190565b600060405180830381600087803b1580156135c257600080fd5b505af11580156135d6573d6000803e3d6000fd5b5050506000828152600d60205260408120555095945050505050565b60008160000361360457506000919050565b6000600161361184613a52565b901c6001901b9050600181848161362a5761362a614bb2565b048201901c9050600181848161364257613642614bb2565b048201901c9050600181848161365a5761365a614bb2565b048201901c9050600181848161367257613672614bb2565b048201901c9050600181848161368a5761368a614bb2565b048201901c905060018184816136a2576136a2614bb2565b048201901c905060018184816136ba576136ba614bb2565b048201901c9050611847818285816136d4576136d4614bb2565b04613ae6565b60005b818310156137305760006136f18484613afc565b60008781526020902090915063ffffffff86169082015463ffffffff16111561371c5780925061372a565b6137278160016148ad565b93505b506136dd565b509392505050565b80516000906034811015613750576001915050610b1e565b82810160131901516001600160a01b031981166b046e0e4dee0dee6cae47a60f60a31b1461378357600192505050610b1e565b600080613791602885614932565b90505b83811015613808576000806137c88884815181106137b4576137b4614949565b01602001516001600160f81b031916613b17565b91509150816137e05760019650505050505050610b1e565b8060ff166004856001600160a01b0316901b1793505050806138019061495f565b9050613794565b50856001600160a01b0316816001600160a01b031614935050505092915050565b60006001600160401b03821115611cb55760405162461bcd60e51b815260206004820152602660248201527f53616665436173743a2076616c756520646f65736e27742066697420696e203660448201526534206269747360d01b6064820152608401610348565b6060600061389e83613ba9565b604080516020808252818301909252919250600091906020820181803683375050509182525060208101929092525090565b8151156138e05781518083602001fd5b8060405162461bcd60e51b81526004016103489190613eca565b60008181526009602052604081206002810154600182015461391c91906148ad565b60008481526003602052604090205461393d906001600160401b0316611c07565b11159392505050565b60008061395586868686611ab3565b905060006139628261121b565b90506002816007811115613978576139786141e2565b1415801561399857506006816007811115613995576139956141e2565b14155b80156139b6575060078160078111156139b3576139b36141e2565b14155b613a025760405162461bcd60e51b815260206004820152601d60248201527f476f7665726e6f723a2070726f706f73616c206e6f74206163746976650000006044820152606401610348565b60008281526003602052604090819020600201805461ff001916610100179055517f789cf55be980739dad1d0699b93b58e806b51c9d96619bfa8fe0a28abaa7b30c90610f329084815260200190565b600080608083901c15613a6757608092831c92015b604083901c15613a7957604092831c92015b602083901c15613a8b57602092831c92015b601083901c15613a9d57601092831c92015b600883901c15613aaf57600892831c92015b600483901c15613ac157600492831c92015b600283901c15613ad357600292831c92015b600183901c15610b1e5760010192915050565b6000818310613af55781611847565b5090919050565b6000613b0b6002848418614bc8565b611847908484166148ad565b60008060f883901c602f81118015613b325750603a8160ff16105b15613b4757600194602f199091019350915050565b8060ff166040108015613b5d575060478160ff16105b15613b72576001946036199091019350915050565b8060ff166060108015613b88575060678160ff16105b15613b9d576001946056199091019350915050565b50600093849350915050565b600060ff8216601f811115610b1e57604051632cd44ac360e21b815260040160405180910390fd5b828054613bdd906146cf565b90600052602060002090601f016020900481019282613bff5760008555613c45565b82601f10613c1857805160ff1916838001178555613c45565b82800160010185558215613c45579182015b82811115613c45578251825591602001919060010190613c2a565b50611cb59291505b80821115611cb55760008155600101613c4d565b600060208284031215613c7357600080fd5b81356001600160e01b03198116811461184757600080fd5b803560ff811681146113f457600080fd5b60008083601f840112613cae57600080fd5b5081356001600160401b03811115613cc557600080fd5b602083019150836020828501011115613cdd57600080fd5b9250929050565b634e487b7160e01b600052604160045260246000fd5b604051601f8201601f191681016001600160401b0381118282101715613d2257613d22613ce4565b604052919050565b60006001600160401b03821115613d4357613d43613ce4565b50601f01601f191660200190565b6000613d64613d5f84613d2a565b613cfa565b9050828152838383011115613d7857600080fd5b828260208301376000602084830101529392505050565b600082601f830112613da057600080fd5b61184783833560208501613d51565b60008060008060008060008060e0898b031215613dcb57600080fd5b88359750613ddb60208a01613c8b565b965060408901356001600160401b0380821115613df757600080fd5b613e038c838d01613c9c565b909850965060608b0135915080821115613e1c57600080fd5b50613e298b828c01613d8f565b945050613e3860808a01613c8b565b925060a0890135915060c089013590509295985092959890939650565b600060208284031215613e6757600080fd5b5035919050565b60005b83811015613e89578181015183820152602001613e71565b83811115613e98576000848401525b50505050565b60008151808452613eb6816020860160208601613e6e565b601f01601f19169290920160200192915050565b6020815260006118476020830184613e9e565b6001600160a01b0381168114610cae57600080fd5b60008060008060808587031215613f0857600080fd5b8435613f1381613edd565b93506020850135613f2381613edd565b92506040850135915060608501356001600160401b03811115613f4557600080fd5b613f5187828801613d8f565b91505092959194509250565b60006001600160401b03821115613f7657613f76613ce4565b5060051b60200190565b600082601f830112613f9157600080fd5b81356020613fa1613d5f83613f5d565b82815260059290921b84018101918181019086841115613fc057600080fd5b8286015b84811015613fe4578035613fd781613edd565b8352918301918301613fc4565b509695505050505050565b600082601f83011261400057600080fd5b81356020614010613d5f83613f5d565b82815260059290921b8401810191818101908684111561402f57600080fd5b8286015b84811015613fe45780358352918301918301614033565b600082601f83011261405b57600080fd5b8135602061406b613d5f83613f5d565b82815260059290921b8401810191818101908684111561408a57600080fd5b8286015b84811015613fe45780356001600160401b038111156140ad5760008081fd5b6140bb8986838b0101613d8f565b84525091830191830161408e565b600080600080608085870312156140df57600080fd5b84356001600160401b03808211156140f657600080fd5b61410288838901613f80565b9550602087013591508082111561411857600080fd5b61412488838901613fef565b9450604087013591508082111561413a57600080fd5b506141478782880161404a565b949793965093946060013593505050565b8481526001600160a01b038416602082015260806040820181905260009061418290830185613e9e565b82810360608401526112108185613e9e565b600080600080600060a086880312156141ac57600080fd5b853594506141bc60208701613c8b565b93506141ca60408701613c8b565b94979396509394606081013594506080013592915050565b634e487b7160e01b600052602160045260246000fd5b602081016008831061421a57634e487b7160e01b600052602160045260246000fd5b91905290565b6000806040838503121561423357600080fd5b82359150602083013561424581613edd565b809150509250929050565b6000806040838503121561426357600080fd5b8235915061427360208401613c8b565b90509250929050565b60008060008060006080868803121561429457600080fd5b853594506142a460208701613c8b565b935060408601356001600160401b03808211156142c057600080fd5b6142cc89838a01613c9c565b909550935060608801359150808211156142e557600080fd5b506142f288828901613d8f565b9150509295509295909350565b6000806000806060858703121561431557600080fd5b8435935061432560208601613c8b565b925060408501356001600160401b0381111561434057600080fd5b61434c87828801613c9c565b95989497509550505050565b6000806000806080858703121561436e57600080fd5b84356001600160401b038082111561438557600080fd5b61439188838901613f80565b955060208701359150808211156143a757600080fd5b6143b388838901613fef565b945060408701359150808211156143c957600080fd5b6143d58883890161404a565b935060608701359150808211156143eb57600080fd5b508501601f810187136143fd57600080fd5b613f5187823560208401613d51565b600081518084526020808501945080840160005b8381101561443c57815187529582019590820190600101614420565b509495945050505050565b60ff60f81b8816815260e06020820152600061446660e0830189613e9e565b82810360408401526144788189613e9e565b606084018890526001600160a01b038716608085015260a0840186905283810360c08501529050610c19818561440c565b6000806000606084860312156144be57600080fd5b83356144c981613edd565b92506020840135915060408401356001600160401b038111156144eb57600080fd5b6144f786828701613d8f565b9150509250925092565b60006020828403121561451357600080fd5b813561184781613edd565b600080600080600060a0868803121561453657600080fd5b853561454181613edd565b9450602086013561455181613edd565b935060408601356001600160401b038082111561456d57600080fd5b61457989838a01613fef565b9450606088013591508082111561458f57600080fd5b61459b89838a01613fef565b935060808801359150808211156142e557600080fd5b600080600080606085870312156145c757600080fd5b84356145d281613edd565b93506020850135925060408501356001600160401b0381111561434057600080fd5b6000806040838503121561460757600080fd5b823561461281613edd565b946020939093013593505050565b600080600080600060a0868803121561463857600080fd5b853561464381613edd565b9450602086013561465381613edd565b9350604086013592506060860135915060808601356001600160401b0381111561467c57600080fd5b6142f288828901613d8f565b8183823760009101908152919050565b60208082526018908201527f476f7665726e6f723a206f6e6c79476f7665726e616e63650000000000000000604082015260600190565b600181811c908216806146e357607f821691505b60208210810361470357634e487b7160e01b600052602260045260246000fd5b50919050565b60208082526021908201527f476f7665726e6f723a2070726f706f73616c206e6f74207375636365737366756040820152601b60fa1b606082015260800190565b60006020828403121561475c57600080fd5b5051919050565b600081518084526020808501945080840160005b8381101561443c5781516001600160a01b031687529582019590820190600101614777565b600081518084526020808501808196508360051b8101915082860160005b858110156147e45782840389526147d2848351613e9e565b988501989350908401906001016147ba565b5091979650505050505050565b60a08152600061480460a0830188614763565b8281036020840152614816818861440c565b9050828103604084015261482a818761479c565b60608401959095525050608001529392505050565b60c08152600061485260c0830189614763565b8281036020840152614864818961440c565b90508281036040840152614878818861479c565b60608401969096525050608081019290925260a0909101529392505050565b634e487b7160e01b600052601160045260246000fd5b600082198211156148c0576148c0614897565b500190565b6000602082840312156148d757600080fd5b81516001600160401b038111156148ed57600080fd5b8201601f810184136148fe57600080fd5b805161490c613d5f82613d2a565b81815285602083850101111561492157600080fd5b61229b826020830160208601613e6e565b60008282101561494457614944614897565b500390565b634e487b7160e01b600052603260045260246000fd5b60006001820161497157614971614897565b5060010190565b60006020828403121561498a57600080fd5b815165ffffffffffff8116811461184757600080fd5b6080815260006149b36080830187614763565b82810360208401526149c5818761440c565b905082810360408401526149d9818661479c565b91505082606083015295945050505050565b84815260ff8416602082015282604082015260806060820152600061132d6080830184613e9e565b85815260ff8516602082015283604082015260a060608201526000614a3b60a0830185613e9e565b8281036080840152614a4d8185613e9e565b98975050505050505050565b600060208284031215614a6b57600080fd5b8151801515811461184757600080fd5b60208082526021908201527f476f7665726e6f723a20696e76616c69642070726f706f73616c206c656e67746040820152600d60fb1b606082015260800190565b60006101208b8352602060018060a01b038c1681850152816040850152614ae58285018c614763565b91508382036060850152614af9828b61440c565b915083820360808501528189518084528284019150828160051b850101838c0160005b83811015614b4a57601f19878403018552614b38838351613e9e565b94860194925090850190600101614b1c565b505086810360a0880152614b5e818c61479c565b9450505050508560c08401528460e0840152828103610100840152614b838185613e9e565b9c9b505050505050505050505050565b6000816000190483118215151615614bad57614bad614897565b500290565b634e487b7160e01b600052601260045260246000fd5b600082614be557634e487b7160e01b600052601260045260246000fd5b500490565b805160208083015191908110156147035760001960209190910360031b1b1691905056fe476f7665726e6f723a2072656c617920726576657274656420776974686f7574206d657373616765a2646970667358221220ceb1f7d418ae4023d43970db478e83cca5cfe823023380a1616f95e091f0b0e664736f6c634300080d0033",
  "immutableReferences": {
    "4159": [
      {
        "length": 32,
        "start": 2776
      },
      {
        "length": 32,
        "start": 4923
      },
      {
        "length": 32,
        "start": 6066
      },
      {
        "length": 32,
        "start": 10632
      },
      {
        "length": 32,
        "start": 11165
      }
    ],
    "10683": [
      {
        "length": 32,
        "start": 12030
      }
    ],
    "10685": [
      {
        "length": 32,
        "start": 11988
      }
    ],
    "10687": [
      {
        "length": 32,
        "start": 11946
      }
    ],
    "10689": [
      {
        "length": 32,
        "start": 12111
      }
    ],
    "10691": [
      {
        "length": 32,
        "start": 12151
      }
    ],
    "10694": [
      {
        "length": 32,
        "start": 5940
      }
    ],
    "10697": [
      {
        "length": 32,
        "start": 5982
      }
    ]
  },
  "source": "// SPDX-License-Identifier: MIT\npragma solidity ^0.8.9;\n\nimport \"@openzeppelin/contracts/governance/Governor.sol\";\nimport \"@openzeppelin/contracts/governance/extensions/GovernorCountingSimple.sol\";\nimport \"@openzeppelin/contracts/governance/extensions/GovernorVotes.sol\";\nimport \"@openzeppelin/contracts/governance/extensions/GovernorVotesQuorumFraction.sol\";\nimport \"@openzeppelin/contracts/governance/extensions/GovernorTimelockControl.sol\";\nimport \"@openzeppelin/contracts/governance/extensions/GovernorSettings.sol\";\n\ncontract GovernorContract is\n  Governor,\n  GovernorSettings,\n  GovernorCountingSimple,\n  GovernorVotes,\n  GovernorVotesQuorumFraction,\n  GovernorTimelockControl\n{\n\n\n    //--- Propuestas -------------------------------------------------\n      // Proposal Counts\n  uint256 public s_proposalCount;\n\n    /// Datos de una propuesta.\n    struct DatosPropose {\n        uint256 id;\n        address targets;\n        bytes calldatas;\n        string description;\n    }\n\n    /// Acceder a los datos de una propuesta dada su id.\n    mapping (uint256 => DatosPropose) public datosPropose;\n\n    // Array con los ids de las proposes creadas.\n    uint256[] public proposes;\n\n\n    //----------------------------------------------------\n\n\n  constructor(\n    IVotes _token,\n    TimelockController _timelock,\n    uint256 _quorumPercentage,\n    uint256 _votingPeriod,\n    uint256 _votingDelay\n  )\n    Governor(\"GovernorContract\")\n    GovernorSettings(\n      _votingDelay, /* 1 block */ // voting delay\n      _votingPeriod, // 45818, /* 1 week */ // voting period\n      0 // proposal threshold\n    )\n    GovernorVotes(_token)\n    GovernorVotesQuorumFraction(_quorumPercentage)\n    GovernorTimelockControl(_timelock)\n  {\n     s_proposalCount = 0;\n  }\n\n  function votingDelay()\n    public\n    view\n    override(IGovernor, GovernorSettings)\n    returns (uint256)\n  {\n    return super.votingDelay();\n  }\n\n  function votingPeriod()\n    public\n    view\n    override(IGovernor, GovernorSettings)\n    returns (uint256)\n  {\n    return super.votingPeriod();\n  }\n\n  // The following functions are overrides required by Solidity.\n\n  function quorum(uint256 blockNumber)\n    public\n    view\n    override(IGovernor, GovernorVotesQuorumFraction)\n    returns (uint256)\n  {\n    return super.quorum(blockNumber);\n  }\n\n  function getVotes(address account, uint256 blockNumber)\n    public\n    view\n    override(IGovernor, Governor)\n    returns (uint256)\n  {\n    return super.getVotes(account, blockNumber);\n  }\n\n  function state(uint256 proposalId)\n    public\n    view\n    override(Governor, GovernorTimelockControl)\n    returns (ProposalState)\n  {\n    return super.state(proposalId);\n  }\n\n  function propose(\n    address[] memory targets,\n    uint256[] memory values,\n    bytes[] memory calldatas,\n    string memory description\n  ) public override(Governor, IGovernor) returns (uint256 proposalId) {\n\n    proposalId = super.propose(targets, values, calldatas, description);\n\n\n     DatosPropose memory datos = DatosPropose(proposalId, targets[0],calldatas[0],description);\n     datosPropose[proposalId] = datos;\n     proposes.push(proposalId);\n     s_proposalCount++;\n\n\n  }\n\n  function proposalThreshold()\n    public\n    view\n    override(Governor, GovernorSettings)\n    returns (uint256)\n  {\n    return super.proposalThreshold();\n  }\n\n  function _execute(\n    uint256 proposalId,\n    address[] memory targets,\n    uint256[] memory values,\n    bytes[] memory calldatas,\n    bytes32 descriptionHash\n  ) internal override(Governor, GovernorTimelockControl) {\n    super._execute(proposalId, targets, values, calldatas, descriptionHash);\n  }\n\n  function _cancel(\n    address[] memory targets,\n    uint256[] memory values,\n    bytes[] memory calldatas,\n    bytes32 descriptionHash\n  ) internal override(Governor, GovernorTimelockControl) returns (uint256) {\n    return super._cancel(targets, values, calldatas, descriptionHash);\n  }\n\n  function _executor()\n    internal\n    view\n    override(Governor, GovernorTimelockControl)\n    returns (address)\n  {\n    return super._executor();\n  }\n\n  function supportsInterface(bytes4 interfaceId)\n    public\n    view\n    override(Governor, GovernorTimelockControl)\n    returns (bool)\n  {\n    return super.supportsInterface(interfaceId);\n  }\n\n  function getNumberOfProposals() public view returns (uint256) {\n        return s_proposalCount;\n    }\n\n    /**\n     * El numero de proposes aadidas.\n     *\n     * @return El numero de proposes aadidas.\n     */\n    function proposesLength() public view returns(uint) {\n        return proposes.length;\n    }\n\n\n}",
  "sourcePath": "/home/pablo/Desktop/DAO/truffle/contracts/governance_standard/GovernorContract.sol",
  "compiler": {
    "name": "solc",
    "version": "0.8.13+commit.abaa5c0e.Emscripten.clang"
  },
  "schemaVersion": "3.4.14",
  "updatedAt": "2023-09-01T15:49:02.017Z",
  "networkType": "ethereum",
  "devdoc": {
    "errors": {
      "Empty()": [
        {
          "details": "An operation (e.g. {front}) couldn't be completed due to the queue being empty."
        }
      ]
    },
    "kind": "dev",
    "methods": {
      "CLOCK_MODE()": {
        "details": "Machine-readable description of the clock as specified in EIP-6372."
      },
      "COUNTING_MODE()": {
        "details": "See {IGovernor-COUNTING_MODE}."
      },
      "cancel(address[],uint256[],bytes[],bytes32)": {
        "details": "See {IGovernor-cancel}."
      },
      "castVote(uint256,uint8)": {
        "details": "See {IGovernor-castVote}."
      },
      "castVoteBySig(uint256,uint8,uint8,bytes32,bytes32)": {
        "details": "See {IGovernor-castVoteBySig}."
      },
      "castVoteWithReason(uint256,uint8,string)": {
        "details": "See {IGovernor-castVoteWithReason}."
      },
      "castVoteWithReasonAndParams(uint256,uint8,string,bytes)": {
        "details": "See {IGovernor-castVoteWithReasonAndParams}."
      },
      "castVoteWithReasonAndParamsBySig(uint256,uint8,string,bytes,uint8,bytes32,bytes32)": {
        "details": "See {IGovernor-castVoteWithReasonAndParamsBySig}."
      },
      "clock()": {
        "details": "Clock (as specified in EIP-6372) is set to match the token's clock. Fallback to block numbers if the token does not implement EIP-6372."
      },
      "eip712Domain()": {
        "details": "See {EIP-5267}. _Available since v4.9._"
      },
      "execute(address[],uint256[],bytes[],bytes32)": {
        "details": "See {IGovernor-execute}."
      },
      "getVotesWithParams(address,uint256,bytes)": {
        "details": "See {IGovernor-getVotesWithParams}."
      },
      "hasVoted(uint256,address)": {
        "details": "See {IGovernor-hasVoted}."
      },
      "hashProposal(address[],uint256[],bytes[],bytes32)": {
        "details": "See {IGovernor-hashProposal}. The proposal id is produced by hashing the ABI encoded `targets` array, the `values` array, the `calldatas` array and the descriptionHash (bytes32 which itself is the keccak256 hash of the description string). This proposal id can be produced from the proposal data which is part of the {ProposalCreated} event. It can even be computed in advance, before the proposal is submitted. Note that the chainId and the governor address are not part of the proposal id computation. Consequently, the same proposal (with same operation and same description) will have the same id if submitted on multiple governors across multiple networks. This also means that in order to execute the same operation twice (on the same governor) the proposer will have to change the description in order to avoid proposal id conflicts."
      },
      "name()": {
        "details": "See {IGovernor-name}."
      },
      "onERC1155BatchReceived(address,address,uint256[],uint256[],bytes)": {
        "details": "See {IERC1155Receiver-onERC1155BatchReceived}."
      },
      "onERC1155Received(address,address,uint256,uint256,bytes)": {
        "details": "See {IERC1155Receiver-onERC1155Received}."
      },
      "onERC721Received(address,address,uint256,bytes)": {
        "details": "See {IERC721Receiver-onERC721Received}."
      },
      "proposalDeadline(uint256)": {
        "details": "See {IGovernor-proposalDeadline}."
      },
      "proposalEta(uint256)": {
        "details": "Public accessor to check the eta of a queued proposal"
      },
      "proposalProposer(uint256)": {
        "details": "Returns the account that created a given proposal."
      },
      "proposalSnapshot(uint256)": {
        "details": "See {IGovernor-proposalSnapshot}."
      },
      "proposalVotes(uint256)": {
        "details": "Accessor to the internal vote counts."
      },
      "proposesLength()": {
        "returns": {
          "_0": "El numero de proposes aadidas."
        }
      },
      "queue(address[],uint256[],bytes[],bytes32)": {
        "details": "Function to queue a proposal to the timelock."
      },
      "quorumDenominator()": {
        "details": "Returns the quorum denominator. Defaults to 100, but may be overridden."
      },
      "quorumNumerator()": {
        "details": "Returns the current quorum numerator. See {quorumDenominator}."
      },
      "quorumNumerator(uint256)": {
        "details": "Returns the quorum numerator at a specific timepoint. See {quorumDenominator}."
      },
      "relay(address,uint256,bytes)": {
        "details": "Relays a transaction or function call to an arbitrary target. In cases where the governance executor is some contract other than the governor itself, like when using a timelock, this function can be invoked in a governance proposal to recover tokens or Ether that was sent to the governor contract by mistake. Note that if the executor is simply the governor itself, use of `relay` is redundant."
      },
      "setProposalThreshold(uint256)": {
        "details": "Update the proposal threshold. This operation can only be performed through a governance proposal. Emits a {ProposalThresholdSet} event."
      },
      "setVotingDelay(uint256)": {
        "details": "Update the voting delay. This operation can only be performed through a governance proposal. Emits a {VotingDelaySet} event."
      },
      "setVotingPeriod(uint256)": {
        "details": "Update the voting period. This operation can only be performed through a governance proposal. Emits a {VotingPeriodSet} event."
      },
      "timelock()": {
        "details": "Public accessor to check the address of the timelock"
      },
      "updateQuorumNumerator(uint256)": {
        "details": "Changes the quorum numerator. Emits a {QuorumNumeratorUpdated} event. Requirements: - Must be called through a governance proposal. - New numerator must be smaller or equal to the denominator."
      },
      "updateTimelock(address)": {
        "details": "Public endpoint to update the underlying timelock instance. Restricted to the timelock itself, so updates must be proposed, scheduled, and executed through governance proposals. CAUTION: It is not recommended to change the timelock while there are other queued governance proposals."
      },
      "version()": {
        "details": "See {IGovernor-version}."
      }
    },
    "version": 1
  },
  "userdoc": {
    "kind": "user",
    "methods": {
      "datosPropose(uint256)": {
        "notice": "Acceder a los datos de una propuesta dada su id."
      },
      "proposesLength()": {
        "notice": "El numero de proposes aadidas."
      }
    },
    "version": 1
  }
}