{
  "contractName": "GovernanceToken",
  "abi": [
    {
      "inputs": [
        {
          "internalType": "uint256",
          "name": "_keepPercentage",
          "type": "uint256"
        }
      ],
      "stateMutability": "nonpayable",
      "type": "constructor"
    },
    {
      "inputs": [],
      "name": "InvalidShortString",
      "type": "error"
    },
    {
      "inputs": [
        {
          "internalType": "string",
          "name": "str",
          "type": "string"
        }
      ],
      "name": "StringTooLong",
      "type": "error"
    },
    {
      "anonymous": false,
      "inputs": [
        {
          "indexed": true,
          "internalType": "address",
          "name": "owner",
          "type": "address"
        },
        {
          "indexed": true,
          "internalType": "address",
          "name": "spender",
          "type": "address"
        },
        {
          "indexed": false,
          "internalType": "uint256",
          "name": "value",
          "type": "uint256"
        }
      ],
      "name": "Approval",
      "type": "event"
    },
    {
      "anonymous": false,
      "inputs": [
        {
          "indexed": true,
          "internalType": "address",
          "name": "delegator",
          "type": "address"
        },
        {
          "indexed": true,
          "internalType": "address",
          "name": "fromDelegate",
          "type": "address"
        },
        {
          "indexed": true,
          "internalType": "address",
          "name": "toDelegate",
          "type": "address"
        }
      ],
      "name": "DelegateChanged",
      "type": "event"
    },
    {
      "anonymous": false,
      "inputs": [
        {
          "indexed": true,
          "internalType": "address",
          "name": "delegate",
          "type": "address"
        },
        {
          "indexed": false,
          "internalType": "uint256",
          "name": "previousBalance",
          "type": "uint256"
        },
        {
          "indexed": false,
          "internalType": "uint256",
          "name": "newBalance",
          "type": "uint256"
        }
      ],
      "name": "DelegateVotesChanged",
      "type": "event"
    },
    {
      "anonymous": false,
      "inputs": [],
      "name": "EIP712DomainChanged",
      "type": "event"
    },
    {
      "anonymous": false,
      "inputs": [
        {
          "indexed": true,
          "internalType": "address",
          "name": "from",
          "type": "address"
        },
        {
          "indexed": false,
          "internalType": "uint256",
          "name": "amount",
          "type": "uint256"
        }
      ],
      "name": "TokenBurned",
      "type": "event"
    },
    {
      "anonymous": false,
      "inputs": [
        {
          "indexed": true,
          "internalType": "address",
          "name": "to",
          "type": "address"
        },
        {
          "indexed": false,
          "internalType": "uint256",
          "name": "amount",
          "type": "uint256"
        }
      ],
      "name": "TokenMinted",
      "type": "event"
    },
    {
      "anonymous": false,
      "inputs": [
        {
          "indexed": true,
          "internalType": "address",
          "name": "from",
          "type": "address"
        },
        {
          "indexed": true,
          "internalType": "address",
          "name": "to",
          "type": "address"
        },
        {
          "indexed": false,
          "internalType": "uint256",
          "name": "value",
          "type": "uint256"
        }
      ],
      "name": "Transfer",
      "type": "event"
    },
    {
      "inputs": [],
      "name": "CLOCK_MODE",
      "outputs": [
        {
          "internalType": "string",
          "name": "",
          "type": "string"
        }
      ],
      "stateMutability": "view",
      "type": "function",
      "constant": true
    },
    {
      "inputs": [],
      "name": "DOMAIN_SEPARATOR",
      "outputs": [
        {
          "internalType": "bytes32",
          "name": "",
          "type": "bytes32"
        }
      ],
      "stateMutability": "view",
      "type": "function",
      "constant": true
    },
    {
      "inputs": [],
      "name": "admin",
      "outputs": [
        {
          "internalType": "address",
          "name": "",
          "type": "address"
        }
      ],
      "stateMutability": "view",
      "type": "function",
      "constant": true
    },
    {
      "inputs": [
        {
          "internalType": "address",
          "name": "owner",
          "type": "address"
        },
        {
          "internalType": "address",
          "name": "spender",
          "type": "address"
        }
      ],
      "name": "allowance",
      "outputs": [
        {
          "internalType": "uint256",
          "name": "",
          "type": "uint256"
        }
      ],
      "stateMutability": "view",
      "type": "function",
      "constant": true
    },
    {
      "inputs": [
        {
          "internalType": "address",
          "name": "spender",
          "type": "address"
        },
        {
          "internalType": "uint256",
          "name": "amount",
          "type": "uint256"
        }
      ],
      "name": "approve",
      "outputs": [
        {
          "internalType": "bool",
          "name": "",
          "type": "bool"
        }
      ],
      "stateMutability": "nonpayable",
      "type": "function"
    },
    {
      "inputs": [
        {
          "internalType": "address",
          "name": "account",
          "type": "address"
        }
      ],
      "name": "balanceOf",
      "outputs": [
        {
          "internalType": "uint256",
          "name": "",
          "type": "uint256"
        }
      ],
      "stateMutability": "view",
      "type": "function",
      "constant": true
    },
    {
      "inputs": [
        {
          "internalType": "address",
          "name": "account",
          "type": "address"
        },
        {
          "internalType": "uint32",
          "name": "pos",
          "type": "uint32"
        }
      ],
      "name": "checkpoints",
      "outputs": [
        {
          "components": [
            {
              "internalType": "uint32",
              "name": "fromBlock",
              "type": "uint32"
            },
            {
              "internalType": "uint224",
              "name": "votes",
              "type": "uint224"
            }
          ],
          "internalType": "struct ERC20Votes.Checkpoint",
          "name": "",
          "type": "tuple"
        }
      ],
      "stateMutability": "view",
      "type": "function",
      "constant": true
    },
    {
      "inputs": [],
      "name": "clock",
      "outputs": [
        {
          "internalType": "uint48",
          "name": "",
          "type": "uint48"
        }
      ],
      "stateMutability": "view",
      "type": "function",
      "constant": true
    },
    {
      "inputs": [
        {
          "internalType": "address",
          "name": "",
          "type": "address"
        }
      ],
      "name": "datosHolders",
      "outputs": [
        {
          "internalType": "uint256",
          "name": "amount",
          "type": "uint256"
        }
      ],
      "stateMutability": "view",
      "type": "function",
      "constant": true
    },
    {
      "inputs": [],
      "name": "decimals",
      "outputs": [
        {
          "internalType": "uint8",
          "name": "",
          "type": "uint8"
        }
      ],
      "stateMutability": "view",
      "type": "function",
      "constant": true
    },
    {
      "inputs": [
        {
          "internalType": "address",
          "name": "spender",
          "type": "address"
        },
        {
          "internalType": "uint256",
          "name": "subtractedValue",
          "type": "uint256"
        }
      ],
      "name": "decreaseAllowance",
      "outputs": [
        {
          "internalType": "bool",
          "name": "",
          "type": "bool"
        }
      ],
      "stateMutability": "nonpayable",
      "type": "function"
    },
    {
      "inputs": [
        {
          "internalType": "address",
          "name": "delegatee",
          "type": "address"
        }
      ],
      "name": "delegate",
      "outputs": [],
      "stateMutability": "nonpayable",
      "type": "function"
    },
    {
      "inputs": [
        {
          "internalType": "address",
          "name": "delegatee",
          "type": "address"
        },
        {
          "internalType": "uint256",
          "name": "nonce",
          "type": "uint256"
        },
        {
          "internalType": "uint256",
          "name": "expiry",
          "type": "uint256"
        },
        {
          "internalType": "uint8",
          "name": "v",
          "type": "uint8"
        },
        {
          "internalType": "bytes32",
          "name": "r",
          "type": "bytes32"
        },
        {
          "internalType": "bytes32",
          "name": "s",
          "type": "bytes32"
        }
      ],
      "name": "delegateBySig",
      "outputs": [],
      "stateMutability": "nonpayable",
      "type": "function"
    },
    {
      "inputs": [
        {
          "internalType": "address",
          "name": "account",
          "type": "address"
        }
      ],
      "name": "delegates",
      "outputs": [
        {
          "internalType": "address",
          "name": "",
          "type": "address"
        }
      ],
      "stateMutability": "view",
      "type": "function",
      "constant": true
    },
    {
      "inputs": [],
      "name": "eip712Domain",
      "outputs": [
        {
          "internalType": "bytes1",
          "name": "fields",
          "type": "bytes1"
        },
        {
          "internalType": "string",
          "name": "name",
          "type": "string"
        },
        {
          "internalType": "string",
          "name": "version",
          "type": "string"
        },
        {
          "internalType": "uint256",
          "name": "chainId",
          "type": "uint256"
        },
        {
          "internalType": "address",
          "name": "verifyingContract",
          "type": "address"
        },
        {
          "internalType": "bytes32",
          "name": "salt",
          "type": "bytes32"
        },
        {
          "internalType": "uint256[]",
          "name": "extensions",
          "type": "uint256[]"
        }
      ],
      "stateMutability": "view",
      "type": "function",
      "constant": true
    },
    {
      "inputs": [
        {
          "internalType": "uint256",
          "name": "timepoint",
          "type": "uint256"
        }
      ],
      "name": "getPastTotalSupply",
      "outputs": [
        {
          "internalType": "uint256",
          "name": "",
          "type": "uint256"
        }
      ],
      "stateMutability": "view",
      "type": "function",
      "constant": true
    },
    {
      "inputs": [
        {
          "internalType": "address",
          "name": "account",
          "type": "address"
        },
        {
          "internalType": "uint256",
          "name": "timepoint",
          "type": "uint256"
        }
      ],
      "name": "getPastVotes",
      "outputs": [
        {
          "internalType": "uint256",
          "name": "",
          "type": "uint256"
        }
      ],
      "stateMutability": "view",
      "type": "function",
      "constant": true
    },
    {
      "inputs": [
        {
          "internalType": "address",
          "name": "account",
          "type": "address"
        }
      ],
      "name": "getVotes",
      "outputs": [
        {
          "internalType": "uint256",
          "name": "",
          "type": "uint256"
        }
      ],
      "stateMutability": "view",
      "type": "function",
      "constant": true
    },
    {
      "inputs": [
        {
          "internalType": "address",
          "name": "spender",
          "type": "address"
        },
        {
          "internalType": "uint256",
          "name": "addedValue",
          "type": "uint256"
        }
      ],
      "name": "increaseAllowance",
      "outputs": [
        {
          "internalType": "bool",
          "name": "",
          "type": "bool"
        }
      ],
      "stateMutability": "nonpayable",
      "type": "function"
    },
    {
      "inputs": [],
      "name": "name",
      "outputs": [
        {
          "internalType": "string",
          "name": "",
          "type": "string"
        }
      ],
      "stateMutability": "view",
      "type": "function",
      "constant": true
    },
    {
      "inputs": [
        {
          "internalType": "address",
          "name": "owner",
          "type": "address"
        }
      ],
      "name": "nonces",
      "outputs": [
        {
          "internalType": "uint256",
          "name": "",
          "type": "uint256"
        }
      ],
      "stateMutability": "view",
      "type": "function",
      "constant": true
    },
    {
      "inputs": [
        {
          "internalType": "address",
          "name": "account",
          "type": "address"
        }
      ],
      "name": "numCheckpoints",
      "outputs": [
        {
          "internalType": "uint32",
          "name": "",
          "type": "uint32"
        }
      ],
      "stateMutability": "view",
      "type": "function",
      "constant": true
    },
    {
      "inputs": [
        {
          "internalType": "address",
          "name": "owner",
          "type": "address"
        },
        {
          "internalType": "address",
          "name": "spender",
          "type": "address"
        },
        {
          "internalType": "uint256",
          "name": "value",
          "type": "uint256"
        },
        {
          "internalType": "uint256",
          "name": "deadline",
          "type": "uint256"
        },
        {
          "internalType": "uint8",
          "name": "v",
          "type": "uint8"
        },
        {
          "internalType": "bytes32",
          "name": "r",
          "type": "bytes32"
        },
        {
          "internalType": "bytes32",
          "name": "s",
          "type": "bytes32"
        }
      ],
      "name": "permit",
      "outputs": [],
      "stateMutability": "nonpayable",
      "type": "function"
    },
    {
      "inputs": [
        {
          "internalType": "address",
          "name": "",
          "type": "address"
        }
      ],
      "name": "s_claimedTokens",
      "outputs": [
        {
          "internalType": "bool",
          "name": "",
          "type": "bool"
        }
      ],
      "stateMutability": "view",
      "type": "function",
      "constant": true
    },
    {
      "inputs": [
        {
          "internalType": "uint256",
          "name": "",
          "type": "uint256"
        }
      ],
      "name": "s_traductores",
      "outputs": [
        {
          "internalType": "address",
          "name": "",
          "type": "address"
        }
      ],
      "stateMutability": "view",
      "type": "function",
      "constant": true
    },
    {
      "inputs": [],
      "name": "symbol",
      "outputs": [
        {
          "internalType": "string",
          "name": "",
          "type": "string"
        }
      ],
      "stateMutability": "view",
      "type": "function",
      "constant": true
    },
    {
      "inputs": [],
      "name": "totalSupply",
      "outputs": [
        {
          "internalType": "uint256",
          "name": "",
          "type": "uint256"
        }
      ],
      "stateMutability": "view",
      "type": "function",
      "constant": true
    },
    {
      "inputs": [
        {
          "internalType": "address",
          "name": "to",
          "type": "address"
        },
        {
          "internalType": "uint256",
          "name": "amount",
          "type": "uint256"
        }
      ],
      "name": "transfer",
      "outputs": [
        {
          "internalType": "bool",
          "name": "",
          "type": "bool"
        }
      ],
      "stateMutability": "nonpayable",
      "type": "function"
    },
    {
      "inputs": [
        {
          "internalType": "address",
          "name": "from",
          "type": "address"
        },
        {
          "internalType": "address",
          "name": "to",
          "type": "address"
        },
        {
          "internalType": "uint256",
          "name": "amount",
          "type": "uint256"
        }
      ],
      "name": "transferFrom",
      "outputs": [
        {
          "internalType": "bool",
          "name": "",
          "type": "bool"
        }
      ],
      "stateMutability": "nonpayable",
      "type": "function"
    },
    {
      "inputs": [
        {
          "internalType": "address",
          "name": "_newOwner",
          "type": "address"
        }
      ],
      "name": "setOwner",
      "outputs": [],
      "stateMutability": "nonpayable",
      "type": "function"
    },
    {
      "inputs": [
        {
          "internalType": "address",
          "name": "_nft",
          "type": "address"
        }
      ],
      "name": "setNFT",
      "outputs": [],
      "stateMutability": "nonpayable",
      "type": "function"
    },
    {
      "inputs": [
        {
          "internalType": "address",
          "name": "_sender",
          "type": "address"
        },
        {
          "internalType": "uint256",
          "name": "_dato",
          "type": "uint256"
        }
      ],
      "name": "claimTokens",
      "outputs": [],
      "stateMutability": "nonpayable",
      "type": "function"
    },
    {
      "inputs": [
        {
          "internalType": "address",
          "name": "to",
          "type": "address"
        },
        {
          "internalType": "uint256",
          "name": "amount",
          "type": "uint256"
        }
      ],
      "name": "burn",
      "outputs": [],
      "stateMutability": "nonpayable",
      "type": "function"
    },
    {
      "inputs": [
        {
          "internalType": "address",
          "name": "to",
          "type": "address"
        },
        {
          "internalType": "uint256",
          "name": "amount",
          "type": "uint256"
        }
      ],
      "name": "mint",
      "outputs": [],
      "stateMutability": "nonpayable",
      "type": "function"
    },
    {
      "inputs": [
        {
          "internalType": "address",
          "name": "to",
          "type": "address"
        },
        {
          "internalType": "uint256",
          "name": "amount",
          "type": "uint256"
        }
      ],
      "name": "burnComapny",
      "outputs": [],
      "stateMutability": "nonpayable",
      "type": "function"
    },
    {
      "inputs": [
        {
          "internalType": "address",
          "name": "to",
          "type": "address"
        },
        {
          "internalType": "uint256",
          "name": "amount",
          "type": "uint256"
        }
      ],
      "name": "mintCompany",
      "outputs": [],
      "stateMutability": "nonpayable",
      "type": "function"
    }
  ],
  "bytecode": "0x6101606040523480156200001257600080fd5b506040516200378638038062003786833981016040819052620000359162000c22565b60405180604001604052806008815260200167546f6b656e44414f60c01b81525080604051806040016040528060018152602001603160f81b81525060405180604001604052806008815260200167546f6b656e44414f60c01b815250604051806040016040528060048152602001635444414f60e01b8152508160039080519060200190620000c792919062000b86565b508051620000dd90600490602084019062000b86565b505050620000fb600583620002a360201b620011a31790919060201c565b6101205262000118816006620002a3602090811b620011a317901c565b61014052815160208084019190912060e052815190820120610100524660a052620001a660e05161010051604080517f8b73c3c69bb8fe3d512ecc4cf759cc79239f7b179b0ffacaa9a75d522b39400f60208201529081019290925260608201524660808201523060a082015260009060c00160405160208183030381529060405280519060200120905090565b60805250503060c0525060006064620001c98368056bc75e2d6310000062000c52565b620001d5919062000c74565b9050620001ec3368056bc75e2d63100000620002f7565b600c80546001600160a01b0319908116909155600d8054339216821790556200022b9030620002258468056bc75e2d6310000062000c97565b62000356565b336000818152600e60205260409020805460ff191660011790556200025990670de0b6b3a7640000620002f7565b5050600f80546001810182556000919091527f8d1108e10bcb7c27dddfc02ed9d693a074039d026cf4ea4240b40f7d581ac8020180546001600160a01b0319163317905562000d82565b6000602083511015620002c357620002bb8362000501565b9050620002f1565b82620002da836200054460201b620011da1760201c565b8151620002eb926020019062000b86565b5060ff90505b92915050565b6200030e82826200054760201b620011dd1760201c565b816001600160a01b03167fb9144c96c86541f6fa89c9f2f02495cccf4b08cd6643e26d34ee00aa586558a8826040516200034a91815260200190565b60405180910390a25050565b6001600160a01b038316620003c05760405162461bcd60e51b815260206004820152602560248201527f45524332303a207472616e736665722066726f6d20746865207a65726f206164604482015264647265737360d81b60648201526084015b60405180910390fd5b6001600160a01b038216620004245760405162461bcd60e51b815260206004820152602360248201527f45524332303a207472616e7366657220746f20746865207a65726f206164647260448201526265737360e81b6064820152608401620003b7565b6001600160a01b038316600090815260208190526040902054818110156200049e5760405162461bcd60e51b815260206004820152602660248201527f45524332303a207472616e7366657220616d6f756e7420657863656564732062604482015265616c616e636560d01b6064820152608401620003b7565b6001600160a01b038481166000818152602081815260408083208787039055938716808352918490208054870190559251858152909260008051602062003746833981519152910160405180910390a3620004fb848484620005f9565b50505050565b600080829050601f815111156200052f578260405163305a27a960e01b8152600401620003b7919062000cb1565b80516200053c8262000d09565b179392505050565b90565b6200055e82826200061160201b6200126d1760201c565b6001600160e01b0362000572620006d18216565b1115620005db5760405162461bcd60e51b815260206004820152603060248201527f4552433230566f7465733a20746f74616c20737570706c79207269736b73206f60448201526f766572666c6f77696e6720766f74657360801b6064820152608401620003b7565b620004fb600b62001334620006d760201b1783620006ec565b505050565b620005f48383836200089560201b620013401760201c565b6001600160a01b038216620006695760405162461bcd60e51b815260206004820152601f60248201527f45524332303a206d696e7420746f20746865207a65726f2061646472657373006044820152606401620003b7565b80600260008282546200067d919062000d31565b90915550506001600160a01b0382166000818152602081815260408083208054860190555184815260008051602062003746833981519152910160405180910390a3620006cd60008383620005f9565b5050565b60025490565b6000620006e5828462000d31565b9392505050565b825460009081908181156200073b5760008781526020902082016000190160408051808201909152905463ffffffff8116825264010000000090046001600160e01b0316602082015262000750565b60408051808201909152600080825260208201525b905080602001516001600160e01b031693506200076e84868860201c565b92506000821180156200079b575062000786620008e1565b65ffffffffffff16816000015163ffffffff16145b15620007ef57620007b783620008fe60201b620013771760201c565b60008881526020902083016000190180546001600160e01b03929092166401000000000263ffffffff9092169190911790556200088b565b866040518060400160405280620008286200080f620008e160201b60201c565b65ffffffffffff166200096d60201b620013e41760201c565b63ffffffff1681526020016200084986620008fe60201b620013771760201c565b6001600160e01b0390811690915282546001810184556000938452602093849020835194909301519091166401000000000263ffffffff909316929092179101555b5050935093915050565b620008ad838383620005f460201b620013721760201c565b6001600160a01b03838116600090815260096020526040808220548584168352912054620005f492918216911683620009d4565b6000620008f94362000b0f60201b620014491760201c565b905090565b60006001600160e01b03821115620009695760405162461bcd60e51b815260206004820152602760248201527f53616665436173743a2076616c756520646f65736e27742066697420696e20326044820152663234206269747360c81b6064820152608401620003b7565b5090565b600063ffffffff821115620009695760405162461bcd60e51b815260206004820152602660248201527f53616665436173743a2076616c756520646f65736e27742066697420696e203360448201526532206269747360d01b6064820152608401620003b7565b816001600160a01b0316836001600160a01b031614158015620009f75750600081115b15620005f4576001600160a01b0383161562000a84576001600160a01b0383166000908152600a602090815260408220829162000a41919062000b78901b620014b01785620006ec565b91509150846001600160a01b031660008051602062003766833981519152838360405162000a79929190918252602082015260400190565b60405180910390a250505b6001600160a01b03821615620005f4576001600160a01b0382166000908152600a602090815260408220829162000ac89190620006d7901b620013341785620006ec565b91509150836001600160a01b031660008051602062003766833981519152838360405162000b00929190918252602082015260400190565b60405180910390a25050505050565b600065ffffffffffff821115620009695760405162461bcd60e51b815260206004820152602660248201527f53616665436173743a2076616c756520646f65736e27742066697420696e203460448201526538206269747360d01b6064820152608401620003b7565b6000620006e5828462000c97565b82805462000b949062000d4c565b90600052602060002090601f01602090048101928262000bb8576000855562000c03565b82601f1062000bd357805160ff191683800117855562000c03565b8280016001018555821562000c03579182015b8281111562000c0357825182559160200191906001019062000be6565b50620009699291505b8082111562000969576000815560010162000c0c565b60006020828403121562000c3557600080fd5b5051919050565b634e487b7160e01b600052601160045260246000fd5b600081600019048311821515161562000c6f5762000c6f62000c3c565b500290565b60008262000c9257634e487b7160e01b600052601260045260246000fd5b500490565b60008282101562000cac5762000cac62000c3c565b500390565b600060208083528351808285015260005b8181101562000ce05785810183015185820160400152820162000cc2565b8181111562000cf3576000604083870101525b50601f01601f1916929092016040019392505050565b8051602080830151919081101562000d2b576000198160200360031b1b821691505b50919050565b6000821982111562000d475762000d4762000c3c565b500190565b600181811c9082168062000d6157607f821691505b60208210810362000d2b57634e487b7160e01b600052602260045260246000fd5b60805160a05160c05160e05161010051610120516101405161296962000ddd6000396000610ac501526000610a9a01526000611929015260006119010152600061185c01526000611886015260006118b001526129696000f3fe608060405234801561001057600080fd5b506004361061021c5760003560e01c80637ecebe0011610125578063c3cda520116100ad578063f1127ed81161007c578063f1127ed8146104de578063f56e9c661461051b578063f851a4401461052e578063fe3f53eb14610541578063fe417fa51461056457600080fd5b8063c3cda52014610485578063d505accf14610498578063dcbc96ed146104ab578063dd62ed3e146104cb57600080fd5b806395d89b41116100f457806395d89b41146104315780639ab24eb0146104395780639dc29fac1461044c578063a457c2d71461045f578063a9059cbb1461047257600080fd5b80637ecebe00146103d157806384b0196e146103e45780638e539e8c146103ff57806391ddadf41461041257600080fd5b806339509351116101a8578063587cde1e11610177578063587cde1e1461032e5780635c19a95c1461035a5780636fcfff451461036d57806370a0823114610395578063720093e4146103be57600080fd5b806339509351146102ed5780633a46b1a81461030057806340c10f19146103135780634bf5d7e91461032657600080fd5b80631418100c116101ef5780631418100c1461029e57806318160ddd146102b157806323b872dd146102c3578063313ce567146102d65780633644e515146102e557600080fd5b806303f8ac991461022157806306fdde0314610251578063095ea7b31461026657806313af403514610289575b600080fd5b61023461022f366004612540565b610577565b6040516001600160a01b0390911681526020015b60405180910390f35b6102596105a1565b60405161024891906125a6565b6102796102743660046125d5565b610633565b6040519015158152602001610248565b61029c6102973660046125ff565b61064d565b005b61029c6102ac3660046125d5565b6107a2565b6002545b604051908152602001610248565b6102796102d136600461261a565b610802565b60405160128152602001610248565b6102b5610826565b6102796102fb3660046125d5565b610835565b6102b561030e3660046125d5565b610857565b61029c6103213660046125d5565b6108dc565b610259610955565b61023461033c3660046125ff565b6001600160a01b039081166000908152600960205260409020541690565b61029c6103683660046125ff565b6109ed565b61038061037b3660046125ff565b6109fa565b60405163ffffffff9091168152602001610248565b6102b56103a33660046125ff565b6001600160a01b031660009081526020819052604090205490565b61029c6103cc3660046125d5565b610a1c565b6102b56103df3660046125ff565b610a6e565b6103ec610a8c565b6040516102489796959493929190612656565b6102b561040d366004612540565b610b15565b61041a610b7c565b60405165ffffffffffff9091168152602001610248565b610259610b87565b6102b56104473660046125ff565b610b96565b61029c61045a3660046125d5565b610c18565b61027961046d3660046125d5565b610c87565b6102796104803660046125d5565b610d02565b61029c6104933660046126fd565b610d10565b61029c6104a6366004612755565b610e46565b6102b56104b93660046125ff565b60106020526000908152604090205481565b6102b56104d93660046127bf565b610faa565b6104f16104ec3660046127f2565b610fd5565b60408051825163ffffffff1681526020928301516001600160e01b03169281019290925201610248565b61029c6105293660046125ff565b611059565b600d54610234906001600160a01b031681565b61027961054f3660046125ff565b600e6020526000908152604090205460ff1681565b61029c6105723660046125d5565b61094b565b600f818154811061058757600080fd5b6000918252602090912001546001600160a01b0316905081565b6060600380546105b090612832565b80601f01602080910402602001604051908101604052809291908181526020018280546105dc90612832565b80156106295780601f106105fe57610100808354040283529160200191610629565b820191906000526020600020905b81548152906001019060200180831161060c57829003601f168201915b5050505050905090565b6000336106418185856114bc565b60019150505b92915050565b600d546001600160a01b031633146106ac5760405162461bcd60e51b815260206004820152601a60248201527f456c2061646d696e207469656e65207175652068616365726c6f00000000000060448201526064015b60405180910390fd5b600c546001600160a01b03161561071c5760405162461bcd60e51b815260206004820152602e60248201527f4c6120646972656363696f6e2064656c206f776e657220616c207072696e636960448201526d070696f20646562652073657220360941b60648201526084016106a3565b6001600160a01b0381166107805760405162461bcd60e51b815260206004820152602560248201527f4c6120646972656363696f6e2064656c206f776e6572206e6f20707565646520604482015264073657220360dc1b60648201526084016106a3565b600c80546001600160a01b0319166001600160a01b0392909216919091179055565b6101f48111156107f45760405162461bcd60e51b815260206004820181905260248201527f446562652073657220656c20696e666572696f72206c612063616e746964616460448201526064016106a3565b6107fe82826115e0565b5050565b600033610810858285611631565b61081b8585856116a5565b506001949350505050565b600061083061184f565b905090565b6000336106418185856108488383610faa565b610852919061287c565b6114bc565b6000610861610b7c565b65ffffffffffff1682106108b35760405162461bcd60e51b815260206004820152601960248201527804552433230566f7465733a20667574757265206c6f6f6b757603c1b60448201526064016106a3565b6001600160a01b0383166000908152600a602052604090206108d5908361197a565b9392505050565b600c546001600160a01b03163314806108ff57506011546001600160a01b031633145b61094b5760405162461bcd60e51b815260206004820152601a60248201527f446562652073657220656c206f776e6572206f20656c204e465400000000000060448201526064016106a3565b6107fe8282611a63565b606043610960610b7c565b65ffffffffffff16146109b55760405162461bcd60e51b815260206004820152601d60248201527f4552433230566f7465733a2062726f6b656e20636c6f636b206d6f646500000060448201526064016106a3565b5060408051808201909152601d81527f6d6f64653d626c6f636b6e756d6265722666726f6d3d64656661756c74000000602082015290565b6109f73382611aa8565b50565b6001600160a01b0381166000908152600a6020526040812054610647906113e4565b6101f481111561094b5760405162461bcd60e51b815260206004820181905260248201527f446562652073657220656c20696e666572696f72206c612063616e746964616460448201526064016106a3565b6001600160a01b038116600090815260076020526040812054610647565b600060608082808083610ac07f00000000000000000000000000000000000000000000000000000000000000006005611b21565b610aeb7f00000000000000000000000000000000000000000000000000000000000000006006611b21565b60408051600080825260208201909252600f60f81b9b939a50919850469750309650945092509050565b6000610b1f610b7c565b65ffffffffffff168210610b715760405162461bcd60e51b815260206004820152601960248201527804552433230566f7465733a20667574757265206c6f6f6b757603c1b60448201526064016106a3565b610647600b8361197a565b600061083043611449565b6060600480546105b090612832565b6001600160a01b0381166000908152600a60205260408120548015610c05576001600160a01b0383166000908152600a6020526040902080546000198301908110610be357610be3612894565b60009182526020909120015464010000000090046001600160e01b0316610c08565b60005b6001600160e01b03169392505050565b600c546001600160a01b0316331480610c3b57506011546001600160a01b031633145b6107f45760405162461bcd60e51b815260206004820152601a60248201527f446562652073657220656c206f776e6572206f20656c204e465400000000000060448201526064016106a3565b60003381610c958286610faa565b905083811015610cf55760405162461bcd60e51b815260206004820152602560248201527f45524332303a2064656372656173656420616c6c6f77616e63652062656c6f77604482015264207a65726f60d81b60648201526084016106a3565b61081b82868684036114bc565b6000336106418185856116a5565b83421115610d605760405162461bcd60e51b815260206004820152601d60248201527f4552433230566f7465733a207369676e6174757265206578706972656400000060448201526064016106a3565b604080517fe48329057bfd03d55e49b547132e39cffd9c1820ad7b9d4c5307691425d15adf60208201526001600160a01b038816918101919091526060810186905260808101859052600090610dda90610dd29060a00160405160208183030381529060405280519060200120611bc5565b858585611bf2565b9050610de581611c1a565b8614610e335760405162461bcd60e51b815260206004820152601960248201527f4552433230566f7465733a20696e76616c6964206e6f6e63650000000000000060448201526064016106a3565b610e3d8188611aa8565b50505050505050565b83421115610e965760405162461bcd60e51b815260206004820152601d60248201527f45524332305065726d69743a206578706972656420646561646c696e6500000060448201526064016106a3565b60007f6e71edae12b1b97f4d1f60370fef10105fa2faae0126114a169c64845d6126c9888888610ec58c611c1a565b6040805160208101969096526001600160a01b0394851690860152929091166060840152608083015260a082015260c0810186905260e0016040516020818303038152906040528051906020012090506000610f2082611bc5565b90506000610f3082878787611bf2565b9050896001600160a01b0316816001600160a01b031614610f935760405162461bcd60e51b815260206004820152601e60248201527f45524332305065726d69743a20696e76616c6964207369676e6174757265000060448201526064016106a3565b610f9e8a8a8a6114bc565b50505050505050505050565b6001600160a01b03918216600090815260016020908152604080832093909416825291909152205490565b60408051808201909152600080825260208201526001600160a01b0383166000908152600a60205260409020805463ffffffff841690811061101957611019612894565b60009182526020918290206040805180820190915291015463ffffffff8116825264010000000090046001600160e01b0316918101919091529392505050565b600d546001600160a01b031633146110b35760405162461bcd60e51b815260206004820152601a60248201527f456c2061646d696e207469656e65207175652068616365726c6f00000000000060448201526064016106a3565b6011546001600160a01b0316156111205760405162461bcd60e51b815260206004820152602b60248201527f4c6120646972656363696f6e206465204e465420616c207072696e636970696f60448201526a020646562652073657220360ac1b60648201526084016106a3565b6001600160a01b0381166111815760405162461bcd60e51b815260206004820152602260248201527f4c6120646972656363696f6e206465204e4654206e6f20707565646520736572604482015261020360f41b60648201526084016106a3565b601180546001600160a01b0319166001600160a01b0392909216919091179055565b60006020835110156111bf576111b883611c42565b9050610647565b828281516111d092602001906124b0565b5060ff9050610647565b90565b6111e7828261126d565b6002546001600160e01b0310156112595760405162461bcd60e51b815260206004820152603060248201527f4552433230566f7465733a20746f74616c20737570706c79207269736b73206f60448201526f766572666c6f77696e6720766f74657360801b60648201526084016106a3565b611267600b61133483611c80565b50505050565b6001600160a01b0382166112c35760405162461bcd60e51b815260206004820152601f60248201527f45524332303a206d696e7420746f20746865207a65726f20616464726573730060448201526064016106a3565b80600260008282546112d5919061287c565b90915550506001600160a01b038216600081815260208181526040808320805486019055518481527fddf252ad1be2c89b69c2b068fc378daa952ba7f163c4a11628f55a4df523b3ef910160405180910390a36107fe60008383611df5565b60006108d5828461287c565b6001600160a01b0383811660009081526009602052604080822054858416835291205461137292918216911683611e00565b505050565b60006001600160e01b038211156113e05760405162461bcd60e51b815260206004820152602760248201527f53616665436173743a2076616c756520646f65736e27742066697420696e20326044820152663234206269747360c81b60648201526084016106a3565b5090565b600063ffffffff8211156113e05760405162461bcd60e51b815260206004820152602660248201527f53616665436173743a2076616c756520646f65736e27742066697420696e203360448201526532206269747360d01b60648201526084016106a3565b600065ffffffffffff8211156113e05760405162461bcd60e51b815260206004820152602660248201527f53616665436173743a2076616c756520646f65736e27742066697420696e203460448201526538206269747360d01b60648201526084016106a3565b60006108d582846128aa565b6001600160a01b03831661151e5760405162461bcd60e51b8152602060048201526024808201527f45524332303a20617070726f76652066726f6d20746865207a65726f206164646044820152637265737360e01b60648201526084016106a3565b6001600160a01b03821661157f5760405162461bcd60e51b815260206004820152602260248201527f45524332303a20617070726f766520746f20746865207a65726f206164647265604482015261737360f01b60648201526084016106a3565b6001600160a01b0383811660008181526001602090815260408083209487168084529482529182902085905590518481527f8c5be1e5ebec7d5bd14f71427d1e84f3dd0314c0f7b2291e5b200ac8c7c3b925910160405180910390a3505050565b6115ea8282611f3d565b816001600160a01b03167f1af5163f80e79b5e554f61e1d052084d3a3fe1166e42a265798c4e2ddce8ffa28260405161162591815260200190565b60405180910390a25050565b600061163d8484610faa565b9050600019811461126757818110156116985760405162461bcd60e51b815260206004820152601d60248201527f45524332303a20696e73756666696369656e7420616c6c6f77616e636500000060448201526064016106a3565b61126784848484036114bc565b6001600160a01b0383166117095760405162461bcd60e51b815260206004820152602560248201527f45524332303a207472616e736665722066726f6d20746865207a65726f206164604482015264647265737360d81b60648201526084016106a3565b6001600160a01b03821661176b5760405162461bcd60e51b815260206004820152602360248201527f45524332303a207472616e7366657220746f20746865207a65726f206164647260448201526265737360e81b60648201526084016106a3565b6001600160a01b038316600090815260208190526040902054818110156117e35760405162461bcd60e51b815260206004820152602660248201527f45524332303a207472616e7366657220616d6f756e7420657863656564732062604482015265616c616e636560d01b60648201526084016106a3565b6001600160a01b03848116600081815260208181526040808320878703905593871680835291849020805487019055925185815290927fddf252ad1be2c89b69c2b068fc378daa952ba7f163c4a11628f55a4df523b3ef910160405180910390a3611267848484611df5565b6000306001600160a01b037f0000000000000000000000000000000000000000000000000000000000000000161480156118a857507f000000000000000000000000000000000000000000000000000000000000000046145b156118d257507f000000000000000000000000000000000000000000000000000000000000000090565b610830604080517f8b73c3c69bb8fe3d512ecc4cf759cc79239f7b179b0ffacaa9a75d522b39400f60208201527f0000000000000000000000000000000000000000000000000000000000000000918101919091527f000000000000000000000000000000000000000000000000000000000000000060608201524660808201523060a082015260009060c00160405160208183030381529060405280519060200120905090565b8154600090818160058111156119d457600061199584611f55565b61199f90856128aa565b600088815260209020909150869082015463ffffffff1611156119c4578091506119d2565b6119cf81600161287c565b92505b505b80821015611a215760006119e8838361203d565b600088815260209020909150869082015463ffffffff161115611a0d57809150611a1b565b611a1881600161287c565b92505b506119d4565b8015611a4d576000868152602090208101600019015464010000000090046001600160e01b0316611a50565b60005b6001600160e01b03169695505050505050565b611a6d82826111dd565b816001600160a01b03167fb9144c96c86541f6fa89c9f2f02495cccf4b08cd6643e26d34ee00aa586558a88260405161162591815260200190565b6001600160a01b038281166000818152600960208181526040808420805485845282862054949093528787166001600160a01b03198416811790915590519190951694919391928592917f3134e8a2e6d97e929a7e54011ea5485d7d196dd5f0ba4d4ef95803e8e3fc257f9190a4611267828483611e00565b606060ff8314611b34576111b883612058565b818054611b4090612832565b80601f0160208091040260200160405190810160405280929190818152602001828054611b6c90612832565b8015611bb95780601f10611b8e57610100808354040283529160200191611bb9565b820191906000526020600020905b815481529060010190602001808311611b9c57829003601f168201915b50505050509050610647565b6000610647611bd261184f565b8360405161190160f01b8152600281019290925260228201526042902090565b6000806000611c0387878787612097565b91509150611c108161215b565b5095945050505050565b6001600160a01b03811660009081526007602052604090208054600181018255905b50919050565b600080829050601f81511115611c6d578260405163305a27a960e01b81526004016106a391906125a6565b8051611c78826128c1565b179392505050565b82546000908190818115611ccd5760008781526020902082016000190160408051808201909152905463ffffffff8116825264010000000090046001600160e01b03166020820152611ce2565b60408051808201909152600080825260208201525b905080602001516001600160e01b03169350611d0284868863ffffffff16565b9250600082118015611d2c5750611d17610b7c565b65ffffffffffff16816000015163ffffffff16145b15611d7157611d3a83611377565b60008881526020902083016000190180546001600160e01b03929092166401000000000263ffffffff909216919091179055611deb565b866040518060400160405280611d95611d88610b7c565b65ffffffffffff166113e4565b63ffffffff168152602001611da986611377565b6001600160e01b0390811690915282546001810184556000938452602093849020835194909301519091166401000000000263ffffffff909316929092179101555b5050935093915050565b611372838383611340565b816001600160a01b0316836001600160a01b031614158015611e225750600081115b15611372576001600160a01b03831615611eb0576001600160a01b0383166000908152600a602052604081208190611e5d906114b085611c80565b91509150846001600160a01b03167fdec2bacdd2f05b59de34da9b523dff8be42e5e38e818c82fdb0bae774387a7248383604051611ea5929190918252602082015260400190565b60405180910390a250505b6001600160a01b03821615611372576001600160a01b0382166000908152600a602052604081208190611ee69061133485611c80565b91509150836001600160a01b03167fdec2bacdd2f05b59de34da9b523dff8be42e5e38e818c82fdb0bae774387a7248383604051611f2e929190918252602082015260400190565b60405180910390a25050505050565b611f4782826122a5565b611267600b6114b083611c80565b600081600003611f6757506000919050565b60006001611f74846123de565b901c6001901b90506001818481611f8d57611f8d6128e5565b048201901c90506001818481611fa557611fa56128e5565b048201901c90506001818481611fbd57611fbd6128e5565b048201901c90506001818481611fd557611fd56128e5565b048201901c90506001818481611fed57611fed6128e5565b048201901c90506001818481612005576120056128e5565b048201901c9050600181848161201d5761201d6128e5565b048201901c90506108d581828581612037576120376128e5565b04612472565b600061204c60028484186128fb565b6108d59084841661287c565b6060600061206583612488565b604080516020808252818301909252919250600091906020820181803683375050509182525060208101929092525090565b6000807f7fffffffffffffffffffffffffffffff5d576e7357a4501ddfe92f46681b20a08311156120ce5750600090506003612152565b6040805160008082526020820180845289905260ff881692820192909252606081018690526080810185905260019060a0016020604051602081039080840390855afa158015612122573d6000803e3d6000fd5b5050604051601f1901519150506001600160a01b03811661214b57600060019250925050612152565b9150600090505b94509492505050565b600081600481111561216f5761216f61291d565b036121775750565b600181600481111561218b5761218b61291d565b036121d85760405162461bcd60e51b815260206004820152601860248201527f45434453413a20696e76616c6964207369676e6174757265000000000000000060448201526064016106a3565b60028160048111156121ec576121ec61291d565b036122395760405162461bcd60e51b815260206004820152601f60248201527f45434453413a20696e76616c6964207369676e6174757265206c656e6774680060448201526064016106a3565b600381600481111561224d5761224d61291d565b036109f75760405162461bcd60e51b815260206004820152602260248201527f45434453413a20696e76616c6964207369676e6174757265202773272076616c604482015261756560f01b60648201526084016106a3565b6001600160a01b0382166123055760405162461bcd60e51b815260206004820152602160248201527f45524332303a206275726e2066726f6d20746865207a65726f206164647265736044820152607360f81b60648201526084016106a3565b6001600160a01b038216600090815260208190526040902054818110156123795760405162461bcd60e51b815260206004820152602260248201527f45524332303a206275726e20616d6f756e7420657863656564732062616c616e604482015261636560f01b60648201526084016106a3565b6001600160a01b0383166000818152602081815260408083208686039055600280548790039055518581529192917fddf252ad1be2c89b69c2b068fc378daa952ba7f163c4a11628f55a4df523b3ef910160405180910390a361137283600084611df5565b600080608083901c156123f357608092831c92015b604083901c1561240557604092831c92015b602083901c1561241757602092831c92015b601083901c1561242957601092831c92015b600883901c1561243b57600892831c92015b600483901c1561244d57600492831c92015b600283901c1561245f57600292831c92015b600183901c156106475760010192915050565b600081831061248157816108d5565b5090919050565b600060ff8216601f81111561064757604051632cd44ac360e21b815260040160405180910390fd5b8280546124bc90612832565b90600052602060002090601f0160209004810192826124de5760008555612524565b82601f106124f757805160ff1916838001178555612524565b82800160010185558215612524579182015b82811115612524578251825591602001919060010190612509565b506113e09291505b808211156113e0576000815560010161252c565b60006020828403121561255257600080fd5b5035919050565b6000815180845260005b8181101561257f57602081850181015186830182015201612563565b81811115612591576000602083870101525b50601f01601f19169290920160200192915050565b6020815260006108d56020830184612559565b80356001600160a01b03811681146125d057600080fd5b919050565b600080604083850312156125e857600080fd5b6125f1836125b9565b946020939093013593505050565b60006020828403121561261157600080fd5b6108d5826125b9565b60008060006060848603121561262f57600080fd5b612638846125b9565b9250612646602085016125b9565b9150604084013590509250925092565b60ff60f81b881681526000602060e08184015261267660e084018a612559565b8381036040850152612688818a612559565b606085018990526001600160a01b038816608086015260a0850187905284810360c0860152855180825283870192509083019060005b818110156126da578351835292840192918401916001016126be565b50909c9b505050505050505050505050565b803560ff811681146125d057600080fd5b60008060008060008060c0878903121561271657600080fd5b61271f876125b9565b9550602087013594506040870135935061273b606088016126ec565b92506080870135915060a087013590509295509295509295565b600080600080600080600060e0888a03121561277057600080fd5b612779886125b9565b9650612787602089016125b9565b955060408801359450606088013593506127a3608089016126ec565b925060a0880135915060c0880135905092959891949750929550565b600080604083850312156127d257600080fd5b6127db836125b9565b91506127e9602084016125b9565b90509250929050565b6000806040838503121561280557600080fd5b61280e836125b9565b9150602083013563ffffffff8116811461282757600080fd5b809150509250929050565b600181811c9082168061284657607f821691505b602082108103611c3c57634e487b7160e01b600052602260045260246000fd5b634e487b7160e01b600052601160045260246000fd5b6000821982111561288f5761288f612866565b500190565b634e487b7160e01b600052603260045260246000fd5b6000828210156128bc576128bc612866565b500390565b80516020808301519190811015611c3c5760001960209190910360031b1b16919050565b634e487b7160e01b600052601260045260246000fd5b60008261291857634e487b7160e01b600052601260045260246000fd5b500490565b634e487b7160e01b600052602160045260246000fdfea2646970667358221220c9c955e940cbeb2ef017a7c29100391c967baa807be84fcc7b22e3071db460b264736f6c634300080d0033ddf252ad1be2c89b69c2b068fc378daa952ba7f163c4a11628f55a4df523b3efdec2bacdd2f05b59de34da9b523dff8be42e5e38e818c82fdb0bae774387a724",
  "immutableReferences": {
    "10683": [
      {
        "length": 32,
        "start": 6320
      }
    ],
    "10685": [
      {
        "length": 32,
        "start": 6278
      }
    ],
    "10687": [
      {
        "length": 32,
        "start": 6236
      }
    ],
    "10689": [
      {
        "length": 32,
        "start": 6401
      }
    ],
    "10691": [
      {
        "length": 32,
        "start": 6441
      }
    ],
    "10694": [
      {
        "length": 32,
        "start": 2714
      }
    ],
    "10697": [
      {
        "length": 32,
        "start": 2757
      }
    ]
  },
  "source": "// SPDX-License-Identifier: MIT\npragma solidity ^0.8.9;\nimport \"@openzeppelin/contracts/token/ERC20/extensions/ERC20Votes.sol\";\ncontract GovernanceToken is ERC20Votes {\n\n // uint256 public s_maxSupply = 1000000000000000000000000;\n\n// Events\n  event TokenMinted(address indexed to, uint256 amount);\n  event TokenBurned(address indexed from, uint256 amount);\n  //EL que despliega el contrato\n  address private owner;\n  // max tokens per user\n  uint256 constant TOKENS_PER_USER = 1 * 10**18;\n  uint256 constant TOTAL_SUPPLY = 100 * 10**18;\n  //uint256 constant TOTAL_SUPPLY = 10000;\n\n     \n    address public admin; //Cuenta de admin, se usa para posteriormente aadir cosas\n\n\n\n      // Mappings\n  mapping(address => bool) public s_claimedTokens;\n\n    // Number of holders\n  address[] public s_traductores;\n\n    /// Datos de una propuesta.\n    struct DatosHolders {\n        uint256 amount;\n    }\n\n   /// Acceder a los datos de los holders dado su address\n    mapping (address => DatosHolders) public datosHolders;\n    \n    address NFT;\n\n\n\n      //Construcotr que inicia owner y admin, y posteriormente mina un porcentaje de tokens\n    constructor(uint256 _keepPercentage)\n        ERC20(\"TokenDAO\", \"TDAO\")\n        ERC20Permit(\"TokenDAO\")\n    {\n        uint256 keepAmount = (TOTAL_SUPPLY * _keepPercentage) / 100;\n        _mint(msg.sender, TOTAL_SUPPLY);\n\n        owner = address(0);\n        admin = msg.sender;\n\n       //   mint(msg.sender, TOTAL_SUPPLY - keepAmount);\n        _transfer(msg.sender, address(this), TOTAL_SUPPLY - keepAmount);\n        s_claimedTokens[msg.sender] = true;\n      //  _mint(msg.sender, TOKENS_PER_USER * 10**18);\n      _mint(msg.sender, TOKENS_PER_USER);\n        s_traductores.push(msg.sender);\n\n    }\n     \n      //Solo el Owner puede modificarlo\n        modifier onlyOwner() {\n        require(owner == msg.sender, \"El owner tiene que hacerlo\");\n        _;\n    }\n      //Solo el Admin puede modificarlo\n    modifier onlyAdmin() {\n        require(admin == msg.sender, \"El admin tiene que hacerlo\");\n        _;\n    }\n\n    modifier onlyNFToronlyOwner() {\n        require(msg.sender == owner || NFT == msg.sender, \"Debe ser el owner o el NFT\");\n        _;\n    }\n\n\n    \n\n      //Funcin para modificar el Owner una unica vez\n    function setOwner(address _newOwner) external onlyAdmin {\n        require(owner == address(0), \"La direccion del owner al principio debe ser 0\");\n        require(_newOwner != address(0), \"La direccion del owner no puede ser 0\");\n        owner = _newOwner;\n\n\n\n    }\n\n\n          //Funcin para modificar el Owner una unica vez\n    function setNFT(address _nft) external onlyAdmin {\n        require(NFT == address(0), \"La direccion de NFT al principio debe ser 0\");\n        require(_nft != address(0), \"La direccion de NFT no puede ser 0\");\n        NFT = _nft;\n\n\n\n    }\n    \n\n    // Funcin para pedir tokens por primera vez\n    function claimTokens(address _sender, uint256 _dato) external {\n\n    //    _mint(_sender, TOKENS_PER_USER * 10**18);\n\n    _mint(_sender, _dato);\n    }\n\n\n\n  //Para quemar los tokens de una cuenta en concreto\n    function burn(address to, uint256 amount) onlyNFToronlyOwner public {\n             _burn(to, amount);\n\n    }\n\n  //Para minar los tokens de una cuenta en concreto\n      function mint(address to, uint256 amount) onlyNFToronlyOwner public {\n             _mint(to, amount);\n\n    }\n\n  //Para quemar los tokens de una cuenta en concreto\n    function burnComapny(address to, uint256 amount)  public {\n     require(amount <= 500, \"Debe ser el inferior la cantidad\");\n        _burn(to, amount);\n\n    }\n\n  //Para minar los tokens de una cuenta en concreto\n      function mintCompany(address to, uint256 amount)  public {\n     require(amount <= 500, \"Debe ser el inferior la cantidad\");\n        _mint(to, amount);\n\n    }\n\nfunction _afterTokenTransfer(\n    address from,\n    address to,\n    uint256 amount\n  ) internal override(ERC20Votes) {\n    super._afterTokenTransfer(from, to, amount);\n  }\nfunction _mint(address to, uint256 amount) internal override(ERC20Votes) {\n    super._mint(to, amount);\n    emit TokenMinted(to, amount);\n  }\nfunction _burn(address account, uint256 amount) internal override(ERC20Votes) {\n    super._burn(account, amount);\n    emit TokenBurned(account, amount);\n  }\n}",
  "sourcePath": "/home/pablo/Desktop/DAO/truffle/contracts/GovernanceToken.sol",
  "compiler": {
    "name": "solc",
    "version": "0.8.13+commit.abaa5c0e.Emscripten.clang"
  },
  "schemaVersion": "3.4.14",
  "updatedAt": "2023-09-01T15:49:01.899Z",
  "networkType": "ethereum",
  "devdoc": {
    "kind": "dev",
    "methods": {
      "CLOCK_MODE()": {
        "details": "Description of the clock"
      },
      "DOMAIN_SEPARATOR()": {
        "details": "See {IERC20Permit-DOMAIN_SEPARATOR}."
      },
      "allowance(address,address)": {
        "details": "See {IERC20-allowance}."
      },
      "approve(address,uint256)": {
        "details": "See {IERC20-approve}. NOTE: If `amount` is the maximum `uint256`, the allowance is not updated on `transferFrom`. This is semantically equivalent to an infinite approval. Requirements: - `spender` cannot be the zero address."
      },
      "balanceOf(address)": {
        "details": "See {IERC20-balanceOf}."
      },
      "checkpoints(address,uint32)": {
        "details": "Get the `pos`-th checkpoint for `account`."
      },
      "clock()": {
        "details": "Clock used for flagging checkpoints. Can be overridden to implement timestamp based checkpoints (and voting)."
      },
      "decimals()": {
        "details": "Returns the number of decimals used to get its user representation. For example, if `decimals` equals `2`, a balance of `505` tokens should be displayed to a user as `5.05` (`505 / 10 ** 2`). Tokens usually opt for a value of 18, imitating the relationship between Ether and Wei. This is the default value returned by this function, unless it's overridden. NOTE: This information is only used for _display_ purposes: it in no way affects any of the arithmetic of the contract, including {IERC20-balanceOf} and {IERC20-transfer}."
      },
      "decreaseAllowance(address,uint256)": {
        "details": "Atomically decreases the allowance granted to `spender` by the caller. This is an alternative to {approve} that can be used as a mitigation for problems described in {IERC20-approve}. Emits an {Approval} event indicating the updated allowance. Requirements: - `spender` cannot be the zero address. - `spender` must have allowance for the caller of at least `subtractedValue`."
      },
      "delegate(address)": {
        "details": "Delegate votes from the sender to `delegatee`."
      },
      "delegateBySig(address,uint256,uint256,uint8,bytes32,bytes32)": {
        "details": "Delegates votes from signer to `delegatee`"
      },
      "delegates(address)": {
        "details": "Get the address `account` is currently delegating to."
      },
      "eip712Domain()": {
        "details": "See {EIP-5267}. _Available since v4.9._"
      },
      "getPastTotalSupply(uint256)": {
        "details": "Retrieve the `totalSupply` at the end of `timepoint`. Note, this value is the sum of all balances. It is NOT the sum of all the delegated votes! Requirements: - `timepoint` must be in the past"
      },
      "getPastVotes(address,uint256)": {
        "details": "Retrieve the number of votes for `account` at the end of `timepoint`. Requirements: - `timepoint` must be in the past"
      },
      "getVotes(address)": {
        "details": "Gets the current votes balance for `account`"
      },
      "increaseAllowance(address,uint256)": {
        "details": "Atomically increases the allowance granted to `spender` by the caller. This is an alternative to {approve} that can be used as a mitigation for problems described in {IERC20-approve}. Emits an {Approval} event indicating the updated allowance. Requirements: - `spender` cannot be the zero address."
      },
      "name()": {
        "details": "Returns the name of the token."
      },
      "nonces(address)": {
        "details": "See {IERC20Permit-nonces}."
      },
      "numCheckpoints(address)": {
        "details": "Get number of checkpoints for `account`."
      },
      "permit(address,address,uint256,uint256,uint8,bytes32,bytes32)": {
        "details": "See {IERC20Permit-permit}."
      },
      "symbol()": {
        "details": "Returns the symbol of the token, usually a shorter version of the name."
      },
      "totalSupply()": {
        "details": "See {IERC20-totalSupply}."
      },
      "transfer(address,uint256)": {
        "details": "See {IERC20-transfer}. Requirements: - `to` cannot be the zero address. - the caller must have a balance of at least `amount`."
      },
      "transferFrom(address,address,uint256)": {
        "details": "See {IERC20-transferFrom}. Emits an {Approval} event indicating the updated allowance. This is not required by the EIP. See the note at the beginning of {ERC20}. NOTE: Does not update the allowance if the current allowance is the maximum `uint256`. Requirements: - `from` and `to` cannot be the zero address. - `from` must have a balance of at least `amount`. - the caller must have allowance for ``from``'s tokens of at least `amount`."
      }
    },
    "version": 1
  },
  "userdoc": {
    "kind": "user",
    "methods": {
      "datosHolders(address)": {
        "notice": "Acceder a los datos de los holders dado su address"
      }
    },
    "version": 1
  }
}