{
  "contractName": "NFTContract",
  "abi": [
    {
      "inputs": [
        {
          "internalType": "string",
          "name": "name",
          "type": "string"
        },
        {
          "internalType": "string",
          "name": "symbol",
          "type": "string"
        },
        {
          "internalType": "address",
          "name": "_GovernanceTokenContract",
          "type": "address"
        }
      ],
      "stateMutability": "nonpayable",
      "type": "constructor"
    },
    {
      "anonymous": false,
      "inputs": [
        {
          "indexed": true,
          "internalType": "address",
          "name": "owner",
          "type": "address"
        },
        {
          "indexed": true,
          "internalType": "address",
          "name": "approved",
          "type": "address"
        },
        {
          "indexed": true,
          "internalType": "uint256",
          "name": "tokenId",
          "type": "uint256"
        }
      ],
      "name": "Approval",
      "type": "event"
    },
    {
      "anonymous": false,
      "inputs": [
        {
          "indexed": true,
          "internalType": "address",
          "name": "owner",
          "type": "address"
        },
        {
          "indexed": true,
          "internalType": "address",
          "name": "operator",
          "type": "address"
        },
        {
          "indexed": false,
          "internalType": "bool",
          "name": "approved",
          "type": "bool"
        }
      ],
      "name": "ApprovalForAll",
      "type": "event"
    },
    {
      "anonymous": false,
      "inputs": [
        {
          "indexed": true,
          "internalType": "address",
          "name": "previousOwner",
          "type": "address"
        },
        {
          "indexed": true,
          "internalType": "address",
          "name": "newOwner",
          "type": "address"
        }
      ],
      "name": "OwnershipTransferred",
      "type": "event"
    },
    {
      "anonymous": false,
      "inputs": [
        {
          "indexed": true,
          "internalType": "address",
          "name": "from",
          "type": "address"
        },
        {
          "indexed": true,
          "internalType": "address",
          "name": "to",
          "type": "address"
        },
        {
          "indexed": true,
          "internalType": "uint256",
          "name": "tokenId",
          "type": "uint256"
        }
      ],
      "name": "Transfer",
      "type": "event"
    },
    {
      "inputs": [],
      "name": "GovernanceTokenContract",
      "outputs": [
        {
          "internalType": "address",
          "name": "",
          "type": "address"
        }
      ],
      "stateMutability": "view",
      "type": "function",
      "constant": true
    },
    {
      "inputs": [
        {
          "internalType": "uint256",
          "name": "",
          "type": "uint256"
        }
      ],
      "name": "_nftMetadata",
      "outputs": [
        {
          "internalType": "string",
          "name": "name",
          "type": "string"
        },
        {
          "internalType": "string",
          "name": "cid",
          "type": "string"
        },
        {
          "internalType": "string",
          "name": "description",
          "type": "string"
        },
        {
          "internalType": "address",
          "name": "creator",
          "type": "address"
        },
        {
          "internalType": "uint256",
          "name": "price",
          "type": "uint256"
        },
        {
          "internalType": "uint8",
          "name": "format",
          "type": "uint8"
        }
      ],
      "stateMutability": "view",
      "type": "function",
      "constant": true
    },
    {
      "inputs": [
        {
          "internalType": "address",
          "name": "to",
          "type": "address"
        },
        {
          "internalType": "uint256",
          "name": "tokenId",
          "type": "uint256"
        }
      ],
      "name": "approve",
      "outputs": [],
      "stateMutability": "nonpayable",
      "type": "function"
    },
    {
      "inputs": [
        {
          "internalType": "address",
          "name": "owner",
          "type": "address"
        }
      ],
      "name": "balanceOf",
      "outputs": [
        {
          "internalType": "uint256",
          "name": "",
          "type": "uint256"
        }
      ],
      "stateMutability": "view",
      "type": "function",
      "constant": true
    },
    {
      "inputs": [
        {
          "internalType": "uint256",
          "name": "tokenId",
          "type": "uint256"
        }
      ],
      "name": "getApproved",
      "outputs": [
        {
          "internalType": "address",
          "name": "",
          "type": "address"
        }
      ],
      "stateMutability": "view",
      "type": "function",
      "constant": true
    },
    {
      "inputs": [
        {
          "internalType": "address",
          "name": "owner",
          "type": "address"
        },
        {
          "internalType": "address",
          "name": "operator",
          "type": "address"
        }
      ],
      "name": "isApprovedForAll",
      "outputs": [
        {
          "internalType": "bool",
          "name": "",
          "type": "bool"
        }
      ],
      "stateMutability": "view",
      "type": "function",
      "constant": true
    },
    {
      "inputs": [],
      "name": "name",
      "outputs": [
        {
          "internalType": "string",
          "name": "",
          "type": "string"
        }
      ],
      "stateMutability": "view",
      "type": "function",
      "constant": true
    },
    {
      "inputs": [],
      "name": "owner",
      "outputs": [
        {
          "internalType": "address",
          "name": "",
          "type": "address"
        }
      ],
      "stateMutability": "view",
      "type": "function",
      "constant": true
    },
    {
      "inputs": [
        {
          "internalType": "uint256",
          "name": "tokenId",
          "type": "uint256"
        }
      ],
      "name": "ownerOf",
      "outputs": [
        {
          "internalType": "address",
          "name": "",
          "type": "address"
        }
      ],
      "stateMutability": "view",
      "type": "function",
      "constant": true
    },
    {
      "inputs": [],
      "name": "renounceOwnership",
      "outputs": [],
      "stateMutability": "nonpayable",
      "type": "function"
    },
    {
      "inputs": [
        {
          "internalType": "address",
          "name": "from",
          "type": "address"
        },
        {
          "internalType": "address",
          "name": "to",
          "type": "address"
        },
        {
          "internalType": "uint256",
          "name": "tokenId",
          "type": "uint256"
        }
      ],
      "name": "safeTransferFrom",
      "outputs": [],
      "stateMutability": "nonpayable",
      "type": "function"
    },
    {
      "inputs": [
        {
          "internalType": "address",
          "name": "from",
          "type": "address"
        },
        {
          "internalType": "address",
          "name": "to",
          "type": "address"
        },
        {
          "internalType": "uint256",
          "name": "tokenId",
          "type": "uint256"
        },
        {
          "internalType": "bytes",
          "name": "data",
          "type": "bytes"
        }
      ],
      "name": "safeTransferFrom",
      "outputs": [],
      "stateMutability": "nonpayable",
      "type": "function"
    },
    {
      "inputs": [
        {
          "internalType": "address",
          "name": "operator",
          "type": "address"
        },
        {
          "internalType": "bool",
          "name": "approved",
          "type": "bool"
        }
      ],
      "name": "setApprovalForAll",
      "outputs": [],
      "stateMutability": "nonpayable",
      "type": "function"
    },
    {
      "inputs": [
        {
          "internalType": "bytes4",
          "name": "interfaceId",
          "type": "bytes4"
        }
      ],
      "name": "supportsInterface",
      "outputs": [
        {
          "internalType": "bool",
          "name": "",
          "type": "bool"
        }
      ],
      "stateMutability": "view",
      "type": "function",
      "constant": true
    },
    {
      "inputs": [],
      "name": "symbol",
      "outputs": [
        {
          "internalType": "string",
          "name": "",
          "type": "string"
        }
      ],
      "stateMutability": "view",
      "type": "function",
      "constant": true
    },
    {
      "inputs": [
        {
          "internalType": "uint256",
          "name": "index",
          "type": "uint256"
        }
      ],
      "name": "tokenByIndex",
      "outputs": [
        {
          "internalType": "uint256",
          "name": "",
          "type": "uint256"
        }
      ],
      "stateMutability": "view",
      "type": "function",
      "constant": true
    },
    {
      "inputs": [
        {
          "internalType": "address",
          "name": "owner",
          "type": "address"
        },
        {
          "internalType": "uint256",
          "name": "index",
          "type": "uint256"
        }
      ],
      "name": "tokenOfOwnerByIndex",
      "outputs": [
        {
          "internalType": "uint256",
          "name": "",
          "type": "uint256"
        }
      ],
      "stateMutability": "view",
      "type": "function",
      "constant": true
    },
    {
      "inputs": [
        {
          "internalType": "uint256",
          "name": "tokenId",
          "type": "uint256"
        }
      ],
      "name": "tokenURI",
      "outputs": [
        {
          "internalType": "string",
          "name": "",
          "type": "string"
        }
      ],
      "stateMutability": "view",
      "type": "function",
      "constant": true
    },
    {
      "inputs": [],
      "name": "totalSupply",
      "outputs": [
        {
          "internalType": "uint256",
          "name": "",
          "type": "uint256"
        }
      ],
      "stateMutability": "view",
      "type": "function",
      "constant": true
    },
    {
      "inputs": [
        {
          "internalType": "address",
          "name": "from",
          "type": "address"
        },
        {
          "internalType": "address",
          "name": "to",
          "type": "address"
        },
        {
          "internalType": "uint256",
          "name": "tokenId",
          "type": "uint256"
        }
      ],
      "name": "transferFrom",
      "outputs": [],
      "stateMutability": "nonpayable",
      "type": "function"
    },
    {
      "inputs": [
        {
          "internalType": "address",
          "name": "newOwner",
          "type": "address"
        }
      ],
      "name": "transferOwnership",
      "outputs": [],
      "stateMutability": "nonpayable",
      "type": "function"
    },
    {
      "inputs": [
        {
          "internalType": "string",
          "name": "name",
          "type": "string"
        },
        {
          "internalType": "string",
          "name": "cid",
          "type": "string"
        },
        {
          "internalType": "string",
          "name": "description",
          "type": "string"
        },
        {
          "internalType": "uint256",
          "name": "price",
          "type": "uint256"
        },
        {
          "internalType": "address",
          "name": "_creator",
          "type": "address"
        },
        {
          "internalType": "uint8",
          "name": "_format",
          "type": "uint8"
        }
      ],
      "name": "createNFT",
      "outputs": [],
      "stateMutability": "nonpayable",
      "type": "function"
    },
    {
      "inputs": [
        {
          "internalType": "uint256",
          "name": "tokenId",
          "type": "uint256"
        }
      ],
      "name": "getNFTMetadata",
      "outputs": [
        {
          "internalType": "string",
          "name": "name",
          "type": "string"
        },
        {
          "internalType": "string",
          "name": "cid",
          "type": "string"
        },
        {
          "internalType": "string",
          "name": "description",
          "type": "string"
        },
        {
          "internalType": "address",
          "name": "creator",
          "type": "address"
        },
        {
          "internalType": "uint256",
          "name": "price",
          "type": "uint256"
        }
      ],
      "stateMutability": "view",
      "type": "function",
      "constant": true
    },
    {
      "inputs": [
        {
          "internalType": "uint256",
          "name": "tokenId",
          "type": "uint256"
        },
        {
          "internalType": "address",
          "name": "recipient",
          "type": "address"
        }
      ],
      "name": "exchangeNFT",
      "outputs": [],
      "stateMutability": "nonpayable",
      "type": "function"
    },
    {
      "inputs": [
        {
          "internalType": "uint256",
          "name": "tokenId",
          "type": "uint256"
        },
        {
          "internalType": "address",
          "name": "recipient",
          "type": "address"
        }
      ],
      "name": "exchangeNFTOther",
      "outputs": [],
      "stateMutability": "nonpayable",
      "type": "function"
    },
    {
      "inputs": [
        {
          "internalType": "address",
          "name": "recipient",
          "type": "address"
        }
      ],
      "name": "NFTCompanydelete",
      "outputs": [],
      "stateMutability": "nonpayable",
      "type": "function"
    },
    {
      "inputs": [
        {
          "internalType": "uint256",
          "name": "tokenId",
          "type": "uint256"
        }
      ],
      "name": "getCurrentOwner",
      "outputs": [
        {
          "internalType": "address",
          "name": "",
          "type": "address"
        }
      ],
      "stateMutability": "view",
      "type": "function",
      "constant": true
    },
    {
      "inputs": [],
      "name": "getNFTlength",
      "outputs": [
        {
          "internalType": "uint256",
          "name": "",
          "type": "uint256"
        }
      ],
      "stateMutability": "view",
      "type": "function",
      "constant": true
    },
    {
      "inputs": [
        {
          "internalType": "address",
          "name": "owner",
          "type": "address"
        }
      ],
      "name": "getNFTsByOwner",
      "outputs": [
        {
          "internalType": "uint256[]",
          "name": "",
          "type": "uint256[]"
        }
      ],
      "stateMutability": "view",
      "type": "function",
      "constant": true
    }
  ],
  "bytecode": "0x60806040523480156200001157600080fd5b5060405162002e0738038062002e07833981016040819052620000349162000277565b8251839083906200004d90600090602085019062000104565b5080516200006390600190602084019062000104565b505050620000806200007a620000ae60201b60201c565b620000b2565b6001600c55600d80546001600160a01b0319166001600160a01b039290921691909117905550620003409050565b3390565b600a80546001600160a01b038381166001600160a01b0319831681179093556040519116919082907f8be0079c531659141344cd1fd0a4f28419497f9722a3daafe3b4186f6b6457e090600090a35050565b828054620001129062000304565b90600052602060002090601f01602090048101928262000136576000855562000181565b82601f106200015157805160ff191683800117855562000181565b8280016001018555821562000181579182015b828111156200018157825182559160200191906001019062000164565b506200018f92915062000193565b5090565b5b808211156200018f576000815560010162000194565b634e487b7160e01b600052604160045260246000fd5b600082601f830112620001d257600080fd5b81516001600160401b0380821115620001ef57620001ef620001aa565b604051601f8301601f19908116603f011681019082821181831017156200021a576200021a620001aa565b816040528381526020925086838588010111156200023757600080fd5b600091505b838210156200025b57858201830151818301840152908201906200023c565b838211156200026d5760008385830101525b9695505050505050565b6000806000606084860312156200028d57600080fd5b83516001600160401b0380821115620002a557600080fd5b620002b387838801620001c0565b94506020860151915080821115620002ca57600080fd5b50620002d986828701620001c0565b604086015190935090506001600160a01b0381168114620002f957600080fd5b809150509250925092565b600181811c908216806200031957607f821691505b6020821081036200033a57634e487b7160e01b600052602260045260246000fd5b50919050565b612ab780620003506000396000f3fe608060405234801561001057600080fd5b50600436106101cf5760003560e01c80636be9a6f111610104578063ac26f691116100a2578063e2afe8b311610071578063e2afe8b3146103df578063e985e9c5146103ff578063eb3e4bcf14610412578063f2fde38b1461042557600080fd5b8063ac26f6911461039e578063b88d4fde146103b1578063c87b56dd146103c4578063d41daa2b146103d757600080fd5b80637ace341b116100de5780637ace341b1461035f5780638da5cb5b1461037257806395d89b4114610383578063a22cb4651461038b57600080fd5b80636be9a6f11461032057806370a0823114610344578063715018a61461035757600080fd5b80631c6329b91161017157806342842e0e1161014b57806342842e0e146102d45780634f6ccce7146102e75780636352211e146102fa57806365f086a11461030d57600080fd5b80631c6329b91461029b57806323b872dd146102ae5780632f745c59146102c157600080fd5b8063081812fc116101ad578063081812fc14610236578063095ea7b31461026157806315cf2bc51461027657806318160ddd1461028957600080fd5b806301ffc9a7146101d4578063055b0390146101fc57806306fdde0314610221575b600080fd5b6101e76101e2366004612365565b610438565b60405190151581526020015b60405180910390f35b61020f61020a366004612382565b610463565b6040516101f3969594939291906123f3565b61022961063e565b6040516101f39190612457565b610249610244366004612382565b6106d0565b6040516001600160a01b0390911681526020016101f3565b61027461026f366004612486565b6106f7565b005b6102746102843660046124b0565b610811565b6008545b6040519081526020016101f3565b6102746102a93660046124b0565b610abd565b6102746102bc3660046124dc565b610de3565b61028d6102cf366004612486565b610e14565b6102746102e23660046124dc565b610eaa565b61028d6102f5366004612382565b610ec5565b610249610308366004612382565b610f58565b61027461031b3660046125c4565b610fb8565b61033361032e366004612382565b611111565b6040516101f3959493929190612680565b61028d6103523660046126d7565b611366565b6102746113ec565b61024961036d366004612382565b611400565b600a546001600160a01b0316610249565b610229611430565b6102746103993660046126f2565b61143f565b6102746103ac3660046126d7565b61144e565b6102746103bf36600461272e565b611511565b6102296103d2366004612382565b611543565b61028d6115b7565b6103f26103ed3660046126d7565b6115cd565b6040516101f391906127aa565b6101e761040d3660046127ee565b61166f565b600d54610249906001600160a01b031681565b6102746104333660046126d7565b61169d565b60006001600160e01b0319821663780e9d6360e01b148061045d575061045d82611716565b92915050565b600b6020526000908152604090208054819061047e90612818565b80601f01602080910402602001604051908101604052809291908181526020018280546104aa90612818565b80156104f75780601f106104cc576101008083540402835291602001916104f7565b820191906000526020600020905b8154815290600101906020018083116104da57829003601f168201915b50505050509080600101805461050c90612818565b80601f016020809104026020016040519081016040528092919081815260200182805461053890612818565b80156105855780601f1061055a57610100808354040283529160200191610585565b820191906000526020600020905b81548152906001019060200180831161056857829003601f168201915b50505050509080600201805461059a90612818565b80601f01602080910402602001604051908101604052809291908181526020018280546105c690612818565b80156106135780601f106105e857610100808354040283529160200191610613565b820191906000526020600020905b8154815290600101906020018083116105f657829003601f168201915b505050506003830154600484015460059094015492936001600160a01b039091169290915060ff1686565b60606000805461064d90612818565b80601f016020809104026020016040519081016040528092919081815260200182805461067990612818565b80156106c65780601f1061069b576101008083540402835291602001916106c6565b820191906000526020600020905b8154815290600101906020018083116106a957829003601f168201915b5050505050905090565b60006106db82611766565b506000908152600460205260409020546001600160a01b031690565b600061070282610f58565b9050806001600160a01b0316836001600160a01b0316036107745760405162461bcd60e51b815260206004820152602160248201527f4552433732313a20617070726f76616c20746f2063757272656e74206f776e656044820152603960f91b60648201526084015b60405180910390fd5b336001600160a01b03821614806107905750610790813361166f565b6108025760405162461bcd60e51b815260206004820152603d60248201527f4552433732313a20617070726f76652063616c6c6572206973206e6f7420746f60448201527f6b656e206f776e6572206f7220617070726f76656420666f7220616c6c000000606482015260840161076b565b61080c83836117b6565b505050565b61081a82611824565b6108365760405162461bcd60e51b815260040161076b90612852565b6000828152600b602052604090819020600490810154600d5492516370a0823160e01b815290926001600160a01b0316916370a0823191610888918691016001600160a01b0391909116815260200190565b602060405180830381865afa1580156108a5573d6000803e3d6000fd5b505050506040513d601f19601f820116820180604052508101906108c99190612889565b1161090b5760405162461bcd60e51b815260206004820152601260248201527153616c646f20696e737566696369656e746560701b604482015260640161076b565b600061091683610f58565b90506001600160a01b03811633148061093f575033610934846106d0565b6001600160a01b0316145b8061094f575061094f813361166f565b6109ac5760405162461bcd60e51b815260206004820152602860248201527f596f7520617265206e6f7420616c6c6f77656420746f207472616e73666572206044820152671d1a1a5cc813919560c21b606482015260840161076b565b600d546000848152600b6020526040908190206004908101549151632770a7eb60e21b81526001600160a01b0390931692639dc29fac92610a03928792016001600160a01b03929092168252602082015260400190565b600060405180830381600087803b158015610a1d57600080fd5b505af1158015610a31573d6000803e3d6000fd5b5050600d546000868152600b60205260409081902060049081015491516340c10f1960e01b8152339181019190915260248101919091526001600160a01b0390911692506340c10f1991506044015b600060405180830381600087803b158015610a9a57600080fd5b505af1158015610aae573d6000803e3d6000fd5b5050505061080c818385611841565b610ac682611824565b610ae25760405162461bcd60e51b815260040161076b90612852565b6001600160a01b0381163314610b3a5760405162461bcd60e51b815260206004820152601960248201527f596f7520617265206e6f742074686520726563697069656e7400000000000000604482015260640161076b565b6000610b4583610f58565b9050816001600160a01b0316816001600160a01b031603610bc05760405162461bcd60e51b815260206004820152602f60248201527f5468652073656c6c657220616e642062757965722063616e6e6f74206265207460448201526e68652073616d65206164647265737360881b606482015260840161076b565b6000838152600b6020526040902060040154610c2a5760405162461bcd60e51b815260206004820152602360248201527f4e4654207072696365206d7573742062652067726561746572207468616e207a60448201526265726f60e81b606482015260840161076b565b6000838152600b602052604090819020600490810154600d5492516370a0823160e01b815290926001600160a01b0316916370a0823191610c7c918791016001600160a01b0391909116815260200190565b602060405180830381865afa158015610c99573d6000803e3d6000fd5b505050506040513d601f19601f82011682018060405250810190610cbd9190612889565b1015610d025760405162461bcd60e51b8152602060048201526014602482015273496e73756666696369656e742062616c616e636560601b604482015260640161076b565b600d546000848152600b6020526040908190206004908101549151632770a7eb60e21b81526001600160a01b0390931692639dc29fac92610d59928792016001600160a01b03929092168252602082015260400190565b600060405180830381600087803b158015610d7357600080fd5b505af1158015610d87573d6000803e3d6000fd5b5050600d546000868152600b60205260409081902060049081015491516340c10f1960e01b81526001600160a01b0390931694506340c10f199350610a8092869291016001600160a01b03929092168252602082015260400190565b610ded33826119b2565b610e095760405162461bcd60e51b815260040161076b906128a2565b61080c838383611841565b6000610e1f83611366565b8210610e815760405162461bcd60e51b815260206004820152602b60248201527f455243373231456e756d657261626c653a206f776e657220696e646578206f7560448201526a74206f6620626f756e647360a81b606482015260840161076b565b506001600160a01b03919091166000908152600660209081526040808320938352929052205490565b61080c83838360405180602001604052806000815250611511565b6000610ed060085490565b8210610f335760405162461bcd60e51b815260206004820152602c60248201527f455243373231456e756d657261626c653a20676c6f62616c20696e646578206f60448201526b7574206f6620626f756e647360a01b606482015260840161076b565b60088281548110610f4657610f466128ef565b90600052602060002001549050919050565b6000818152600260205260408120546001600160a01b03168061045d5760405162461bcd60e51b8152602060048201526018602482015277115490cdcc8c4e881a5b9d985b1a59081d1bdad95b88125160421b604482015260640161076b565b600083116110085760405162461bcd60e51b815260206004820152601f60248201527f5072696365206d7573742062652067726561746572207468616e207a65726f00604482015260640161076b565b600c546110158382611a11565b6040805160c08101825288815260208082018990528183018890526001600160a01b03861660608301526080820187905260ff851660a08301526000848152600b825292909220815180519293919261107192849201906122b6565b50602082810151805161108a92600185019201906122b6565b50604082015180516110a69160028401916020909101906122b6565b5060608201516003820180546001600160a01b0319166001600160a01b039092169190911790556080820151600482015560a0909101516005909101805460ff191660ff909216919091179055600c80549060006111038361291b565b919050555050505050505050565b606080606060008061112286611824565b61113e5760405162461bcd60e51b815260040161076b90612852565b6000868152600b6020526040808220815160c0810190925280548290829061116590612818565b80601f016020809104026020016040519081016040528092919081815260200182805461119190612818565b80156111de5780601f106111b3576101008083540402835291602001916111de565b820191906000526020600020905b8154815290600101906020018083116111c157829003601f168201915b505050505081526020016001820180546111f790612818565b80601f016020809104026020016040519081016040528092919081815260200182805461122390612818565b80156112705780601f1061124557610100808354040283529160200191611270565b820191906000526020600020905b81548152906001019060200180831161125357829003601f168201915b5050505050815260200160028201805461128990612818565b80601f01602080910402602001604051908101604052809291908181526020018280546112b590612818565b80156113025780601f106112d757610100808354040283529160200191611302565b820191906000526020600020905b8154815290600101906020018083116112e557829003601f168201915b505050918352505060038201546001600160a01b0316602080830191909152600483015460408084019190915260059093015460ff166060928301528351908401519284015191840151608090940151909b929a5090985091965090945092505050565b60006001600160a01b0382166113d05760405162461bcd60e51b815260206004820152602960248201527f4552433732313a2061646472657373207a65726f206973206e6f7420612076616044820152683634b21037bbb732b960b91b606482015260840161076b565b506001600160a01b031660009081526003602052604090205490565b6113f4611a2b565b6113fe6000611a85565b565b600061140b82611824565b6114275760405162461bcd60e51b815260040161076b90612852565b61045d82610f58565b60606001805461064d90612818565b61144a338383611ad7565b5050565b600061145982611366565b905060008167ffffffffffffffff81111561147657611476612518565b60405190808252806020026020018201604052801561149f578160200160208202803683370190505b50905060005b8281101561150b576114b78482610e14565b8282815181106114c9576114c96128ef565b6020026020010181815250506114f933858484815181106114ec576114ec6128ef565b6020026020010151611841565b806115038161291b565b9150506114a5565b50505050565b61151b33836119b2565b6115375760405162461bcd60e51b815260040161076b906128a2565b61150b84848484611ba5565b606061154e82611766565b600061156560408051602081019091526000815290565b9050600081511161158557604051806020016040528060008152506115b0565b8061158f84611bd8565b6040516020016115a0929190612934565b6040516020818303038152906040525b9392505050565b60006001600c546115c89190612963565b905090565b606060006115da83611366565b905060008167ffffffffffffffff8111156115f7576115f7612518565b604051908082528060200260200182016040528015611620578160200160208202803683370190505b50905060005b82811015611667576116388582610e14565b82828151811061164a5761164a6128ef565b60209081029190910101528061165f8161291b565b915050611626565b509392505050565b6001600160a01b03918216600090815260056020908152604080832093909416825291909152205460ff1690565b6116a5611a2b565b6001600160a01b03811661170a5760405162461bcd60e51b815260206004820152602660248201527f4f776e61626c653a206e6577206f776e657220697320746865207a65726f206160448201526564647265737360d01b606482015260840161076b565b61171381611a85565b50565b60006001600160e01b031982166380ac58cd60e01b148061174757506001600160e01b03198216635b5e139f60e01b145b8061045d57506301ffc9a760e01b6001600160e01b031983161461045d565b61176f81611824565b6117135760405162461bcd60e51b8152602060048201526018602482015277115490cdcc8c4e881a5b9d985b1a59081d1bdad95b88125160421b604482015260640161076b565b600081815260046020526040902080546001600160a01b0319166001600160a01b03841690811790915581906117eb82610f58565b6001600160a01b03167f8c5be1e5ebec7d5bd14f71427d1e84f3dd0314c0f7b2291e5b200ac8c7c3b92560405160405180910390a45050565b6000908152600260205260409020546001600160a01b0316151590565b826001600160a01b031661185482610f58565b6001600160a01b03161461187a5760405162461bcd60e51b815260040161076b9061297a565b6001600160a01b0382166118dc5760405162461bcd60e51b8152602060048201526024808201527f4552433732313a207472616e7366657220746f20746865207a65726f206164646044820152637265737360e01b606482015260840161076b565b6118e98383836001611c6b565b826001600160a01b03166118fc82610f58565b6001600160a01b0316146119225760405162461bcd60e51b815260040161076b9061297a565b600081815260046020908152604080832080546001600160a01b03199081169091556001600160a01b0387811680865260038552838620805460001901905590871680865283862080546001019055868652600290945282852080549092168417909155905184937fddf252ad1be2c89b69c2b068fc378daa952ba7f163c4a11628f55a4df523b3ef91a4505050565b6000806119be83610f58565b9050806001600160a01b0316846001600160a01b031614806119e557506119e5818561166f565b80611a095750836001600160a01b03166119fe846106d0565b6001600160a01b0316145b949350505050565b61144a828260405180602001604052806000815250611d9f565b600a546001600160a01b031633146113fe5760405162461bcd60e51b815260206004820181905260248201527f4f776e61626c653a2063616c6c6572206973206e6f7420746865206f776e6572604482015260640161076b565b600a80546001600160a01b038381166001600160a01b0319831681179093556040519116919082907f8be0079c531659141344cd1fd0a4f28419497f9722a3daafe3b4186f6b6457e090600090a35050565b816001600160a01b0316836001600160a01b031603611b385760405162461bcd60e51b815260206004820152601960248201527f4552433732313a20617070726f766520746f2063616c6c657200000000000000604482015260640161076b565b6001600160a01b03838116600081815260056020908152604080832094871680845294825291829020805460ff191686151590811790915591519182527f17307eab39ab6107e8899845ad3d59bd9653f200f220920489ca2b5937696c31910160405180910390a3505050565b611bb0848484611841565b611bbc84848484611dd2565b61150b5760405162461bcd60e51b815260040161076b906129bf565b60606000611be583611ed3565b600101905060008167ffffffffffffffff811115611c0557611c05612518565b6040519080825280601f01601f191660200182016040528015611c2f576020820181803683370190505b5090508181016020015b600019016f181899199a1a9b1b9c1cb0b131b232b360811b600a86061a8153600a8504945084611c3957509392505050565b6001811115611cda5760405162461bcd60e51b815260206004820152603560248201527f455243373231456e756d657261626c653a20636f6e7365637574697665207472604482015274185b9cd9995c9cc81b9bdd081cdd5c1c1bdc9d1959605a1b606482015260840161076b565b816001600160a01b038516611d3657611d3181600880546000838152600960205260408120829055600182018355919091527ff3f7a9fe364faab93b216da50a3214154f22a0a2b415b23a84c8169e8b636ee30155565b611d59565b836001600160a01b0316856001600160a01b031614611d5957611d598582611fab565b6001600160a01b038416611d7557611d7081612048565b611d98565b846001600160a01b0316846001600160a01b031614611d9857611d9884826120f7565b5050505050565b611da9838361213b565b611db66000848484611dd2565b61080c5760405162461bcd60e51b815260040161076b906129bf565b60006001600160a01b0384163b15611ec857604051630a85bd0160e11b81526001600160a01b0385169063150b7a0290611e16903390899088908890600401612a11565b6020604051808303816000875af1925050508015611e51575060408051601f3d908101601f19168201909252611e4e91810190612a4e565b60015b611eae573d808015611e7f576040519150601f19603f3d011682016040523d82523d6000602084013e611e84565b606091505b508051600003611ea65760405162461bcd60e51b815260040161076b906129bf565b805181602001fd5b6001600160e01b031916630a85bd0160e11b149050611a09565b506001949350505050565b60008072184f03e93ff9f4daa797ed6e38ed64bf6a1f0160401b8310611f125772184f03e93ff9f4daa797ed6e38ed64bf6a1f0160401b830492506040015b6d04ee2d6d415b85acef81000000008310611f3e576d04ee2d6d415b85acef8100000000830492506020015b662386f26fc100008310611f5c57662386f26fc10000830492506010015b6305f5e1008310611f74576305f5e100830492506008015b6127108310611f8857612710830492506004015b60648310611f9a576064830492506002015b600a831061045d5760010192915050565b60006001611fb884611366565b611fc29190612963565b600083815260076020526040902054909150808214612015576001600160a01b03841660009081526006602090815260408083208584528252808320548484528184208190558352600790915290208190555b5060009182526007602090815260408084208490556001600160a01b039094168352600681528383209183525290812055565b60085460009061205a90600190612963565b60008381526009602052604081205460088054939450909284908110612082576120826128ef565b9060005260206000200154905080600883815481106120a3576120a36128ef565b60009182526020808320909101929092558281526009909152604080822084905585825281205560088054806120db576120db612a6b565b6001900381819060005260206000200160009055905550505050565b600061210283611366565b6001600160a01b039093166000908152600660209081526040808320868452825280832085905593825260079052919091209190915550565b6001600160a01b0382166121915760405162461bcd60e51b815260206004820181905260248201527f4552433732313a206d696e7420746f20746865207a65726f2061646472657373604482015260640161076b565b61219a81611824565b156121e75760405162461bcd60e51b815260206004820152601c60248201527f4552433732313a20746f6b656e20616c7265616479206d696e74656400000000604482015260640161076b565b6121f5600083836001611c6b565b6121fe81611824565b1561224b5760405162461bcd60e51b815260206004820152601c60248201527f4552433732313a20746f6b656e20616c7265616479206d696e74656400000000604482015260640161076b565b6001600160a01b038216600081815260036020908152604080832080546001019055848352600290915280822080546001600160a01b0319168417905551839291907fddf252ad1be2c89b69c2b068fc378daa952ba7f163c4a11628f55a4df523b3ef908290a45050565b8280546122c290612818565b90600052602060002090601f0160209004810192826122e4576000855561232a565b82601f106122fd57805160ff191683800117855561232a565b8280016001018555821561232a579182015b8281111561232a57825182559160200191906001019061230f565b5061233692915061233a565b5090565b5b80821115612336576000815560010161233b565b6001600160e01b03198116811461171357600080fd5b60006020828403121561237757600080fd5b81356115b08161234f565b60006020828403121561239457600080fd5b5035919050565b60005b838110156123b657818101518382015260200161239e565b8381111561150b5750506000910152565b600081518084526123df81602086016020860161239b565b601f01601f19169290920160200192915050565b60c08152600061240660c08301896123c7565b828103602084015261241881896123c7565b9050828103604084015261242c81886123c7565b6001600160a01b039690961660608401525050608081019290925260ff1660a0909101529392505050565b6020815260006115b060208301846123c7565b80356001600160a01b038116811461248157600080fd5b919050565b6000806040838503121561249957600080fd5b6124a28361246a565b946020939093013593505050565b600080604083850312156124c357600080fd5b823591506124d36020840161246a565b90509250929050565b6000806000606084860312156124f157600080fd5b6124fa8461246a565b92506125086020850161246a565b9150604084013590509250925092565b634e487b7160e01b600052604160045260246000fd5b600067ffffffffffffffff8084111561254957612549612518565b604051601f8501601f19908116603f0116810190828211818310171561257157612571612518565b8160405280935085815286868601111561258a57600080fd5b858560208301376000602087830101525050509392505050565b600082601f8301126125b557600080fd5b6115b08383356020850161252e565b60008060008060008060c087890312156125dd57600080fd5b863567ffffffffffffffff808211156125f557600080fd5b6126018a838b016125a4565b9750602089013591508082111561261757600080fd5b6126238a838b016125a4565b9650604089013591508082111561263957600080fd5b5061264689828a016125a4565b9450506060870135925061265c6080880161246a565b915060a087013560ff8116811461267257600080fd5b809150509295509295509295565b60a08152600061269360a08301886123c7565b82810360208401526126a581886123c7565b905082810360408401526126b981876123c7565b6001600160a01b039590951660608401525050608001529392505050565b6000602082840312156126e957600080fd5b6115b08261246a565b6000806040838503121561270557600080fd5b61270e8361246a565b91506020830135801515811461272357600080fd5b809150509250929050565b6000806000806080858703121561274457600080fd5b61274d8561246a565b935061275b6020860161246a565b925060408501359150606085013567ffffffffffffffff81111561277e57600080fd5b8501601f8101871361278f57600080fd5b61279e8782356020840161252e565b91505092959194509250565b6020808252825182820181905260009190848201906040850190845b818110156127e2578351835292840192918401916001016127c6565b50909695505050505050565b6000806040838503121561280157600080fd5b61280a8361246a565b91506124d36020840161246a565b600181811c9082168061282c57607f821691505b60208210810361284c57634e487b7160e01b600052602260045260246000fd5b50919050565b60208082526017908201527f546f6b656e20494420646f6573206e6f74206578697374000000000000000000604082015260600190565b60006020828403121561289b57600080fd5b5051919050565b6020808252602d908201527f4552433732313a2063616c6c6572206973206e6f7420746f6b656e206f776e6560408201526c1c881bdc88185c1c1c9bdd9959609a1b606082015260800190565b634e487b7160e01b600052603260045260246000fd5b634e487b7160e01b600052601160045260246000fd5b60006001820161292d5761292d612905565b5060010190565b6000835161294681846020880161239b565b83519083019061295a81836020880161239b565b01949350505050565b60008282101561297557612975612905565b500390565b60208082526025908201527f4552433732313a207472616e736665722066726f6d20696e636f72726563742060408201526437bbb732b960d91b606082015260800190565b60208082526032908201527f4552433732313a207472616e7366657220746f206e6f6e20455243373231526560408201527131b2b4bb32b91034b6b83632b6b2b73a32b960711b606082015260800190565b6001600160a01b0385811682528416602082015260408101839052608060608201819052600090612a44908301846123c7565b9695505050505050565b600060208284031215612a6057600080fd5b81516115b08161234f565b634e487b7160e01b600052603160045260246000fdfea2646970667358221220ea8093b97536517896716cd97a37290398f149c360d88b8c86d742e71ba0407064736f6c634300080d0033",
  "immutableReferences": {},
  "source": "// SPDX-License-Identifier: MIT\npragma solidity ^0.8.0;\n\nimport \"@openzeppelin/contracts/token/ERC721/extensions/ERC721Enumerable.sol\";\nimport \"@openzeppelin/contracts/access/Ownable.sol\";\n\n\nimport \"./GovernanceToken.sol\";\n\n\ncontract NFTContract is ERC721Enumerable, Ownable {\n    struct NFTMetadata {\n        string name;\n        string cid;\n        string description;\n        address creator;\n        uint256 price;\n        uint8 format;\n    }\n\n    mapping(uint256 => NFTMetadata) public _nftMetadata;\n    uint256 private _tokenIdCounter;\n\n    //Para enalzarlo con GovernanceTokenContract\n    address public GovernanceTokenContract;\n\n    constructor(string memory name, string memory symbol, address _GovernanceTokenContract) ERC721(name, symbol) {\n        _tokenIdCounter = 1;\n        GovernanceTokenContract = _GovernanceTokenContract;\n    }\n\n    function createNFT(string memory name, string memory cid, string memory description, uint256 price, address _creator, uint8 _format) public {\n        require(price > 0, \"Price must be greater than zero\");\n\n        uint256 tokenId = _tokenIdCounter;\n        _safeMint(_creator, tokenId);\n        _nftMetadata[tokenId] = NFTMetadata(name, cid, description, _creator, price, _format);\n        _tokenIdCounter++;\n    }\n\n    function getNFTMetadata(uint256 tokenId) public view returns (string memory name, string memory cid, string memory description, address creator, uint256 price) {\n        require(_exists(tokenId), \"Token ID does not exist\");\n        NFTMetadata memory metadata = _nftMetadata[tokenId];\n        return (metadata.name, metadata.cid, metadata.description, metadata.creator, metadata.price);\n    }\n\n    //Para vender un NFT tuyo a otro\n    function exchangeNFT(uint256 tokenId, address recipient) public {\n        require(_exists(tokenId), \"Token ID does not exist\");\n        require(GovernanceToken(GovernanceTokenContract).balanceOf(recipient) > _nftMetadata[tokenId].price, \"Saldo insuficiente\");\n\n        address owner = ownerOf(tokenId);\n        require(owner == msg.sender || getApproved(tokenId) == msg.sender || isApprovedForAll(owner, msg.sender), \"You are not allowed to transfer this NFT\");\n        \n        // Transfiere el NFT al destinatario\n                \n        GovernanceToken(GovernanceTokenContract).burn(recipient, _nftMetadata[tokenId].price);\n        GovernanceToken(GovernanceTokenContract).mint(msg.sender, _nftMetadata[tokenId].price);\n        \n        _transfer(owner, recipient, tokenId);\n    }\n\n\n    //Para comprar un NFT a otro\nfunction exchangeNFTOther(uint256 tokenId, address recipient) public {\n    require(_exists(tokenId), \"Token ID does not exist\");\n\n    // Asegurarse de que el comprador es el que llama a la funcin\n    require(recipient == msg.sender, \"You are not the recipient\");\n\n    address owner = ownerOf(tokenId);\n\n    // Verificar que el vendedor y el comprador sean diferentes\n    require(owner != recipient, \"The seller and buyer cannot be the same address\");\n\n    // Verificar que el precio del NFT es mayor que cero\n    require(_nftMetadata[tokenId].price > 0, \"NFT price must be greater than zero\");\n\n    // Verificar que el comprador tiene suficientes tokens de gobierno para comprar el NFT\n    require(GovernanceToken(GovernanceTokenContract).balanceOf(recipient) >= _nftMetadata[tokenId].price, \"Insufficient balance\");\n\n    // Transfiere los tokens de gobierno del comprador al vendedor y viceversa\n    GovernanceToken(GovernanceTokenContract).burn(recipient, _nftMetadata[tokenId].price);\n    GovernanceToken(GovernanceTokenContract).mint(owner, _nftMetadata[tokenId].price);\n\n    // Transfiere el NFT al destinatario\n    _transfer(owner, recipient, tokenId);\n}\n\n\n    //Tras eliminar una empresa\nfunction NFTCompanydelete(address recipient) public {\n\n\n    \n\n    uint256 balance = balanceOf(recipient);\n    uint256[] memory ownedNFTs = new uint256[](balance);\n\n    for (uint256 i = 0; i < balance; i++) {\n            ownedNFTs[i] = tokenOfOwnerByIndex(recipient, i);\n        _transfer(msg.sender, recipient, ownedNFTs[i]);\n\n            }\n\n\n}\n        \n\n    // Obtener la direccin del poseedor actual del NFT\n    function getCurrentOwner(uint256 tokenId) public view returns (address) {\n        require(_exists(tokenId), \"Token ID does not exist\");\n        return ownerOf(tokenId);\n    }\n\n\n        // Obtener la cantidad de NFT creados\n    function getNFTlength() public view returns (uint256) {\n        \n        return (_tokenIdCounter - 1);\n    }\n\n\n    // Obtener todos los IDs de los NFT que posee una direccin\n    function getNFTsByOwner(address owner) public view returns (uint256[] memory) {\n        uint256 balance = balanceOf(owner);\n        uint256[] memory ownedNFTs = new uint256[](balance);\n\n        for (uint256 i = 0; i < balance; i++) {\n            ownedNFTs[i] = tokenOfOwnerByIndex(owner, i);\n        }\n\n        return ownedNFTs;\n    }\n}\n",
  "sourcePath": "/home/pablo/Desktop/DAO/truffle/contracts/NFTContract.sol",
  "compiler": {
    "name": "solc",
    "version": "0.8.13+commit.abaa5c0e.Emscripten.clang"
  },
  "schemaVersion": "3.4.14",
  "updatedAt": "2023-09-01T15:49:02.132Z",
  "networkType": "ethereum",
  "devdoc": {
    "kind": "dev",
    "methods": {
      "approve(address,uint256)": {
        "details": "See {IERC721-approve}."
      },
      "balanceOf(address)": {
        "details": "See {IERC721-balanceOf}."
      },
      "getApproved(uint256)": {
        "details": "See {IERC721-getApproved}."
      },
      "isApprovedForAll(address,address)": {
        "details": "See {IERC721-isApprovedForAll}."
      },
      "name()": {
        "details": "See {IERC721Metadata-name}."
      },
      "owner()": {
        "details": "Returns the address of the current owner."
      },
      "ownerOf(uint256)": {
        "details": "See {IERC721-ownerOf}."
      },
      "renounceOwnership()": {
        "details": "Leaves the contract without owner. It will not be possible to call `onlyOwner` functions. Can only be called by the current owner. NOTE: Renouncing ownership will leave the contract without an owner, thereby disabling any functionality that is only available to the owner."
      },
      "safeTransferFrom(address,address,uint256)": {
        "details": "See {IERC721-safeTransferFrom}."
      },
      "safeTransferFrom(address,address,uint256,bytes)": {
        "details": "See {IERC721-safeTransferFrom}."
      },
      "setApprovalForAll(address,bool)": {
        "details": "See {IERC721-setApprovalForAll}."
      },
      "supportsInterface(bytes4)": {
        "details": "See {IERC165-supportsInterface}."
      },
      "symbol()": {
        "details": "See {IERC721Metadata-symbol}."
      },
      "tokenByIndex(uint256)": {
        "details": "See {IERC721Enumerable-tokenByIndex}."
      },
      "tokenOfOwnerByIndex(address,uint256)": {
        "details": "See {IERC721Enumerable-tokenOfOwnerByIndex}."
      },
      "tokenURI(uint256)": {
        "details": "See {IERC721Metadata-tokenURI}."
      },
      "totalSupply()": {
        "details": "See {IERC721Enumerable-totalSupply}."
      },
      "transferFrom(address,address,uint256)": {
        "details": "See {IERC721-transferFrom}."
      },
      "transferOwnership(address)": {
        "details": "Transfers ownership of the contract to a new account (`newOwner`). Can only be called by the current owner."
      }
    },
    "version": 1
  },
  "userdoc": {
    "kind": "user",
    "methods": {},
    "version": 1
  }
}