{
  "contractName": "Traductores",
  "abi": [
    {
      "inputs": [
        {
          "internalType": "address",
          "name": "_GovernanceTokenContract",
          "type": "address"
        },
        {
          "internalType": "string",
          "name": "_name",
          "type": "string"
        }
      ],
      "stateMutability": "nonpayable",
      "type": "constructor"
    },
    {
      "anonymous": false,
      "inputs": [
        {
          "indexed": false,
          "internalType": "uint256",
          "name": "nuevoValorTraductores",
          "type": "uint256"
        }
      ],
      "name": "ValorTraductoresModificado",
      "type": "event"
    },
    {
      "inputs": [],
      "name": "GovernanceTokenContract",
      "outputs": [
        {
          "internalType": "address",
          "name": "",
          "type": "address"
        }
      ],
      "stateMutability": "view",
      "type": "function",
      "constant": true
    },
    {
      "inputs": [],
      "name": "admin",
      "outputs": [
        {
          "internalType": "address",
          "name": "",
          "type": "address"
        }
      ],
      "stateMutability": "view",
      "type": "function",
      "constant": true
    },
    {
      "inputs": [
        {
          "internalType": "uint256",
          "name": "",
          "type": "uint256"
        }
      ],
      "name": "companies",
      "outputs": [
        {
          "internalType": "address",
          "name": "",
          "type": "address"
        }
      ],
      "stateMutability": "view",
      "type": "function",
      "constant": true
    },
    {
      "inputs": [
        {
          "internalType": "address",
          "name": "",
          "type": "address"
        }
      ],
      "name": "companies_claimedTokens",
      "outputs": [
        {
          "internalType": "bool",
          "name": "",
          "type": "bool"
        }
      ],
      "stateMutability": "view",
      "type": "function",
      "constant": true
    },
    {
      "inputs": [
        {
          "internalType": "address",
          "name": "",
          "type": "address"
        }
      ],
      "name": "datosAdmin",
      "outputs": [
        {
          "internalType": "string",
          "name": "name",
          "type": "string"
        }
      ],
      "stateMutability": "view",
      "type": "function",
      "constant": true
    },
    {
      "inputs": [
        {
          "internalType": "address",
          "name": "",
          "type": "address"
        }
      ],
      "name": "datosCompanies",
      "outputs": [
        {
          "internalType": "string",
          "name": "name",
          "type": "string"
        }
      ],
      "stateMutability": "view",
      "type": "function",
      "constant": true
    },
    {
      "inputs": [
        {
          "internalType": "address",
          "name": "",
          "type": "address"
        }
      ],
      "name": "datosHolders",
      "outputs": [
        {
          "internalType": "string",
          "name": "name",
          "type": "string"
        }
      ],
      "stateMutability": "view",
      "type": "function",
      "constant": true
    },
    {
      "inputs": [],
      "name": "owner",
      "outputs": [
        {
          "internalType": "address",
          "name": "",
          "type": "address"
        }
      ],
      "stateMutability": "view",
      "type": "function",
      "constant": true
    },
    {
      "inputs": [
        {
          "internalType": "address",
          "name": "",
          "type": "address"
        }
      ],
      "name": "s_claimedTokens",
      "outputs": [
        {
          "internalType": "bool",
          "name": "",
          "type": "bool"
        }
      ],
      "stateMutability": "view",
      "type": "function",
      "constant": true
    },
    {
      "inputs": [
        {
          "internalType": "uint256",
          "name": "",
          "type": "uint256"
        }
      ],
      "name": "s_traductores",
      "outputs": [
        {
          "internalType": "address",
          "name": "",
          "type": "address"
        }
      ],
      "stateMutability": "view",
      "type": "function",
      "constant": true
    },
    {
      "inputs": [],
      "name": "valorTraductores",
      "outputs": [
        {
          "internalType": "uint256",
          "name": "",
          "type": "uint256"
        }
      ],
      "stateMutability": "view",
      "type": "function",
      "constant": true
    },
    {
      "inputs": [
        {
          "internalType": "address",
          "name": "_newOwner",
          "type": "address"
        }
      ],
      "name": "setOwner",
      "outputs": [],
      "stateMutability": "nonpayable",
      "type": "function"
    },
    {
      "inputs": [
        {
          "internalType": "string",
          "name": "_name",
          "type": "string"
        },
        {
          "internalType": "address",
          "name": "_direccion",
          "type": "address"
        }
      ],
      "name": "createCompany",
      "outputs": [],
      "stateMutability": "nonpayable",
      "type": "function"
    },
    {
      "inputs": [],
      "name": "getCompanyLength",
      "outputs": [
        {
          "internalType": "uint256",
          "name": "",
          "type": "uint256"
        }
      ],
      "stateMutability": "view",
      "type": "function",
      "constant": true
    },
    {
      "inputs": [
        {
          "internalType": "uint256",
          "name": "_nuevoValorCompany",
          "type": "uint256"
        },
        {
          "internalType": "address",
          "name": "_companyaddress",
          "type": "address"
        }
      ],
      "name": "BurnCompany",
      "outputs": [],
      "stateMutability": "nonpayable",
      "type": "function"
    },
    {
      "inputs": [
        {
          "internalType": "uint256",
          "name": "_amount",
          "type": "uint256"
        },
        {
          "internalType": "address",
          "name": "recipient",
          "type": "address"
        }
      ],
      "name": "TransferCompany",
      "outputs": [],
      "stateMutability": "nonpayable",
      "type": "function"
    },
    {
      "inputs": [
        {
          "internalType": "string",
          "name": "_name",
          "type": "string"
        }
      ],
      "name": "createTraductor",
      "outputs": [],
      "stateMutability": "nonpayable",
      "type": "function"
    },
    {
      "inputs": [],
      "name": "getTraductorLength",
      "outputs": [
        {
          "internalType": "uint256",
          "name": "",
          "type": "uint256"
        }
      ],
      "stateMutability": "view",
      "type": "function",
      "constant": true
    },
    {
      "inputs": [
        {
          "internalType": "uint256",
          "name": "_nuevoValorTraductores",
          "type": "uint256"
        }
      ],
      "name": "modificarValorTraductores",
      "outputs": [],
      "stateMutability": "nonpayable",
      "type": "function"
    },
    {
      "inputs": [
        {
          "internalType": "uint256",
          "name": "_nuevoValorTraductores",
          "type": "uint256"
        }
      ],
      "name": "BurnTraductores",
      "outputs": [],
      "stateMutability": "nonpayable",
      "type": "function"
    },
    {
      "inputs": [
        {
          "internalType": "uint256",
          "name": "_nuevoValorTraductores",
          "type": "uint256"
        },
        {
          "internalType": "address",
          "name": "_traductoraddress",
          "type": "address"
        }
      ],
      "name": "BurnONETraductores",
      "outputs": [],
      "stateMutability": "nonpayable",
      "type": "function"
    },
    {
      "inputs": [
        {
          "internalType": "uint256",
          "name": "_nuevoValorTraductores",
          "type": "uint256"
        },
        {
          "internalType": "address",
          "name": "_traductoraddress",
          "type": "address"
        }
      ],
      "name": "MintONETraductores",
      "outputs": [],
      "stateMutability": "nonpayable",
      "type": "function"
    }
  ],
  "bytecode": "0x60806040523480156200001157600080fd5b506040516200167d3803806200167d8339810160408190526200003491620001c8565b600180546001600160a01b031990811690915560028054339083168117909155600a80549092166001600160a01b038516179091556040805160208082018352848252600093845260038152919092208251805184936200009a9284929101906200010c565b5050600a5460405163fe417fa560e01b8152336004820152606460248201526001600160a01b03909116915063fe417fa590604401600060405180830381600087803b158015620000ea57600080fd5b505af1158015620000ff573d6000803e3d6000fd5b5050505050505062000304565b8280546200011a90620002c8565b90600052602060002090601f0160209004810192826200013e576000855562000189565b82601f106200015957805160ff191683800117855562000189565b8280016001018555821562000189579182015b82811115620001895782518255916020019190600101906200016c565b50620001979291506200019b565b5090565b5b808211156200019757600081556001016200019c565b634e487b7160e01b600052604160045260246000fd5b60008060408385031215620001dc57600080fd5b82516001600160a01b0381168114620001f457600080fd5b602084810151919350906001600160401b03808211156200021457600080fd5b818601915086601f8301126200022957600080fd5b8151818111156200023e576200023e620001b2565b604051601f8201601f19908116603f01168101908382118183101715620002695762000269620001b2565b8160405282815289868487010111156200028257600080fd5b600093505b82841015620002a6578484018601518185018701529285019262000287565b82841115620002b85760008684830101525b8096505050505050509250929050565b600181811c90821680620002dd57607f821691505b602082108103620002fe57634e487b7160e01b600052602260045260246000fd5b50919050565b61136980620003146000396000f3fe608060405234801561001057600080fd5b50600436106101425760003560e01c80638da5cb5b116100b8578063dcbc96ed1161007c578063dcbc96ed146102ad578063eb3e4bcf146102c0578063f22f2a1a146102d3578063f851a440146102e6578063fd645bb4146102f9578063fe3f53eb1461030c57600080fd5b80638da5cb5b1461025857806394b499731461026b578063a029d0b51461027e578063c0b353ed14610287578063c53750131461029a57600080fd5b8063312ad67a1161010a578063312ad67a146101e557806334aac07d146101f75780633b518482146101ff5780633e019b1e146102125780636c2adec7146102325780637572e3a71461024557600080fd5b806303f8ac991461014757806313af4035146101775780631fac76bf1461018c5780632813d19d1461019f578063297e6fc8146101b2575b600080fd5b61015a610155366004611003565b61032f565b6040516001600160a01b0390911681526020015b60405180910390f35b61018a610185366004611038565b610359565b005b61018a61019a36600461105a565b610482565b61015a6101ad366004611003565b610602565b6101d56101c0366004611038565b60086020526000908152604090205460ff1681565b604051901515815260200161016e565b6004545b60405190815260200161016e565b6007546101e9565b61018a61020d36600461105a565b610612565b610225610220366004611038565b61067a565b60405161016e9190611086565b61018a61024036600461105a565b610718565b61018a610253366004611003565b610957565b60015461015a906001600160a01b031681565b61018a61027936600461117e565b610a78565b6101e960005481565b61018a610295366004611003565b610bca565b6102256102a8366004611038565b610ce7565b6102256102bb366004611038565b610d02565b600a5461015a906001600160a01b031681565b61018a6102e13660046111bb565b610d1d565b60025461015a906001600160a01b031681565b61018a61030736600461105a565b610ec5565b6101d561031a366004611038565b60056020526000908152604090205460ff1681565b6004818154811061033f57600080fd5b6000918252602090912001546001600160a01b0316905081565b6002546001600160a01b0316331461038c5760405162461bcd60e51b815260040161038390611200565b60405180910390fd5b6001546001600160a01b0316156103fc5760405162461bcd60e51b815260206004820152602e60248201527f4c6120646972656363696f6e2064656c206f776e657220616c207072696e636960448201526d070696f20646562652073657220360941b6064820152608401610383565b6001600160a01b0381166104605760405162461bcd60e51b815260206004820152602560248201527f4c6120646972656363696f6e2064656c206f776e6572206e6f20707565646520604482015264073657220360dc1b6064820152608401610383565b600180546001600160a01b0319166001600160a01b0392909216919091179055565b600a546040516370a0823160e01b815233600482015283916001600160a01b0316906370a0823190602401602060405180830381865afa1580156104ca573d6000803e3d6000fd5b505050506040513d601f19601f820116820180604052508101906104ee9190611237565b10156105335760405162461bcd60e51b8152602060048201526014602482015273496e73756666696369656e742062616c616e636560601b6044820152606401610383565b600a54604051632770a7eb60e21b8152336004820152602481018490526001600160a01b0390911690639dc29fac90604401600060405180830381600087803b15801561057f57600080fd5b505af1158015610593573d6000803e3d6000fd5b5050600a546040516340c10f1960e01b81526001600160a01b0385811660048301526024820187905290911692506340c10f1991506044015b600060405180830381600087803b1580156105e657600080fd5b505af11580156105fa573d6000803e3d6000fd5b505050505050565b6007818154811061033f57600080fd5b6001546001600160a01b0316331461063c5760405162461bcd60e51b815260040161038390611250565b6000829055600a54604051632770a7eb60e21b81526001600160a01b0383811660048301526024820185905290911690639dc29fac906044016105cc565b60096020526000908152604090208054819061069590611287565b80601f01602080910402602001604051908101604052809291908181526020018280546106c190611287565b801561070e5780601f106106e35761010080835404028352916020019161070e565b820191906000526020600020905b8154815290600101906020018083116106f157829003601f168201915b5050505050905081565b6002546001600160a01b031633146107425760405162461bcd60e51b815260040161038390611200565b6001600160a01b03811660009081526008602052604090205460ff166107a15760405162461bcd60e51b815260206004820152601460248201527310dbdb5c185b9e48191bd95cdb9d08195e1a5cdd60621b6044820152606401610383565b600a54604051632770a7eb60e21b81526001600160a01b0383811660048301526024820185905290911690639dc29fac90604401600060405180830381600087803b1580156107ef57600080fd5b505af1158015610803573d6000803e3d6000fd5b5050506001600160a01b0382166000908152600960205260408120915061082a8282610f2d565b50506001600160a01b0381166000908152600860205260408120805460ff191690555b60075481101561095257816001600160a01b031660078281548110610874576108746112c1565b6000918252602090912001546001600160a01b031603610940576007805461089e906001906112ed565b815481106108ae576108ae6112c1565b600091825260209091200154600780546001600160a01b0390921691839081106108da576108da6112c1565b9060005260206000200160006101000a8154816001600160a01b0302191690836001600160a01b03160217905550600780548061091957610919611304565b600082815260209020810160001990810180546001600160a01b0319169055019055505050565b8061094a8161131a565b91505061084d565b505050565b6001546001600160a01b031633146109815760405162461bcd60e51b815260040161038390611250565b60008181555b600454811015610a7457600a54600480546001600160a01b03909216916340c10f199190849081106109bb576109bb6112c1565b60009182526020909120015460405160e083901b6001600160e01b03191681526001600160a01b03909116600482015260248101859052604401600060405180830381600087803b158015610a0f57600080fd5b505af1158015610a23573d6000803e3d6000fd5b505050507fe9857e6de18423888a441fce9f512522c59fa98ec4f89d8d6f2a160ffdf374d1600054604051610a5a91815260200190565b60405180910390a180610a6c8161131a565b915050610987565b5050565b3360009081526005602052604090205460ff1615610ad15760405162461bcd60e51b8152602060048201526016602482015275416c726561647920636c61696d656420746f6b656e7360501b6044820152606401610383565b604080516020808201835283825233600090815260068252929092208151805192938493610b029284920190610f6a565b50503360008181526005602052604090819020805460ff19166001179055600a54905163fe417fa560e01b81526004810192909252606460248301526001600160a01b0316915063fe417fa590604401600060405180830381600087803b158015610b6c57600080fd5b505af1158015610b80573d6000803e3d6000fd5b5050600480546001810182556000919091527f8a35acfbc15ff81a39ae7d344fd709f28e8600b4aa8c65c6b64bfe7fe36bd19b0180546001600160a01b0319163317905550505050565b6001546001600160a01b03163314610bf45760405162461bcd60e51b815260040161038390611250565b60008181555b600454811015610a7457600a54600480546001600160a01b0390921691639dc29fac919084908110610c2e57610c2e6112c1565b60009182526020909120015460405160e083901b6001600160e01b03191681526001600160a01b03909116600482015260248101859052604401600060405180830381600087803b158015610c8257600080fd5b505af1158015610c96573d6000803e3d6000fd5b505050507fe9857e6de18423888a441fce9f512522c59fa98ec4f89d8d6f2a160ffdf374d1600054604051610ccd91815260200190565b60405180910390a180610cdf8161131a565b915050610bfa565b60036020526000908152604090208054819061069590611287565b60066020526000908152604090208054819061069590611287565b6002546001600160a01b03163314610d475760405162461bcd60e51b815260040161038390611200565b6001600160a01b03811660009081526008602052604090205460ff1615610da95760405162461bcd60e51b8152602060048201526016602482015275416c726561647920636c61696d656420746f6b656e7360501b6044820152606401610383565b60408051602080820183528482526001600160a01b038416600090815260098252929092208151805192938493610de39284920190610f6a565b5050506001600160a01b0382811660008181526008602052604090819020805460ff19166001179055600a54905163fe417fa560e01b81526004810192909252670de0b6b3a764000060248301529091169063fe417fa590604401600060405180830381600087803b158015610e5857600080fd5b505af1158015610e6c573d6000803e3d6000fd5b5050600780546001810182556000919091527fa66cc928b5edb82af9bd49922954155ab7b0942694bea4ce44661d9a8736c6880180546001600160a01b0319166001600160a01b03959095169490941790935550505050565b6001546001600160a01b03163314610eef5760405162461bcd60e51b815260040161038390611250565b6000829055600a546040516340c10f1960e01b81526001600160a01b03838116600483015260248201859052909116906340c10f19906044016105cc565b508054610f3990611287565b6000825580601f10610f49575050565b601f016020900490600052602060002090810190610f679190610fee565b50565b828054610f7690611287565b90600052602060002090601f016020900481019282610f985760008555610fde565b82601f10610fb157805160ff1916838001178555610fde565b82800160010185558215610fde579182015b82811115610fde578251825591602001919060010190610fc3565b50610fea929150610fee565b5090565b5b80821115610fea5760008155600101610fef565b60006020828403121561101557600080fd5b5035919050565b80356001600160a01b038116811461103357600080fd5b919050565b60006020828403121561104a57600080fd5b6110538261101c565b9392505050565b6000806040838503121561106d57600080fd5b8235915061107d6020840161101c565b90509250929050565b600060208083528351808285015260005b818110156110b357858101830151858201604001528201611097565b818111156110c5576000604083870101525b50601f01601f1916929092016040019392505050565b634e487b7160e01b600052604160045260246000fd5b600082601f83011261110257600080fd5b813567ffffffffffffffff8082111561111d5761111d6110db565b604051601f8301601f19908116603f01168101908282118183101715611145576111456110db565b8160405283815286602085880101111561115e57600080fd5b836020870160208301376000602085830101528094505050505092915050565b60006020828403121561119057600080fd5b813567ffffffffffffffff8111156111a757600080fd5b6111b3848285016110f1565b949350505050565b600080604083850312156111ce57600080fd5b823567ffffffffffffffff8111156111e557600080fd5b6111f1858286016110f1565b92505061107d6020840161101c565b6020808252601a908201527f456c2061646d696e207469656e65207175652068616365726c6f000000000000604082015260600190565b60006020828403121561124957600080fd5b5051919050565b6020808252601a908201527f456c206f776e6572207469656e65207175652068616365726c6f000000000000604082015260600190565b600181811c9082168061129b57607f821691505b6020821081036112bb57634e487b7160e01b600052602260045260246000fd5b50919050565b634e487b7160e01b600052603260045260246000fd5b634e487b7160e01b600052601160045260246000fd5b6000828210156112ff576112ff6112d7565b500390565b634e487b7160e01b600052603160045260246000fd5b60006001820161132c5761132c6112d7565b506001019056fea2646970667358221220ff1339f877d10d618564e335e520daf5cd10875ea38ab90e0a96b000bad1ece464736f6c634300080d0033",
  "immutableReferences": {},
  "source": "// SPDX-License-Identifier: MIT\npragma solidity ^0.8.0;\nimport \"./GovernanceToken.sol\";\ncontract Traductores {\n    uint public valorTraductores;\n    address public owner; //Gestor.sol es decir el contrato a Gobernar\n   \n\n\n\n ///////////////// Admin //////////////////////////////\n\n address public admin; //Cuenta de admin, se usa para posteriormente aadir Compaias\n\n    /// Datos.\n    struct DatosAdmin {\n        string name;\n    }\n\n    /// Acceder a los datos del ADMIN dado su address\n    mapping (address => DatosAdmin) public datosAdmin;\n\n ////////////////////////////////////////////////////// \n\n\n//////////////////  TRADUCTORES  //////////////////////\n    // Number of holders(traductores)\n    address[] public s_traductores;\n\n    /// Datos de una propuesta.\n    struct DatosHolders {\n        string name;\n    }\n      // Mappings para saber si ya se han registrado\n    mapping(address => bool) public s_claimedTokens;\n\n    /// Acceder a los datos de los holders dado su address\n    mapping (address => DatosHolders) public datosHolders;\n\n\n     uint256 constant TOKENS_PER_USER = 100;\n    /////////////////////////////////////////\n\n\n    //////////////////////// COMPANIAS /////////////////////////\n\n    // Number of holders(companias)\n    address[] public companies;\n\n    /// Datos de una propuesta.\n    struct DatosCompanies {\n        string name;\n\n    }\n      // Mappings para saber si ya se han registrado\n    mapping(address => bool) public companies_claimedTokens;\n\n    /// Acceder a los datos de los companies dado su address\n    mapping (address => DatosCompanies) public datosCompanies;\n\n    uint256 constant TOKENS_PER_COMPANY = 1 * 10**18;\n\n   \n\n/////////////////////////////////////////\n    //Para enalzarlo con GovernanceTokenContract\n    address public GovernanceTokenContract;\n\n    event ValorTraductoresModificado(uint nuevoValorTraductores);\n\n    modifier onlyOwner() {\n        require(owner == msg.sender, \"El owner tiene que hacerlo\");\n        _;\n    }\n\n    modifier onlyAdmin() {\n        require(admin == msg.sender, \"El admin tiene que hacerlo\");\n        _;\n    }\n\n    //Constructor que inicializa owner y admin y posterirmente agrega la direccin del admin y mina tokens\n    constructor(address _GovernanceTokenContract, string memory _name) {\n        owner = address(0);\n        admin = msg.sender;\n        GovernanceTokenContract = _GovernanceTokenContract;\n        \n        DatosAdmin memory datos = DatosAdmin(_name);\n        datosAdmin[msg.sender] = datos;\n        \n        GovernanceToken(GovernanceTokenContract).claimTokens(msg.sender,TOKENS_PER_USER);\n        \n\n    }\n    //Funcin para indicar el nuevo owner una nica vez\n    function setOwner(address _newOwner) external onlyAdmin {\n        require(owner == address(0), \"La direccion del owner al principio debe ser 0\");\n        require(_newOwner != address(0), \"La direccion del owner no puede ser 0\");\n        owner = _newOwner;\n\n\n\n    }\n\n    //////////////////////////////////////////////////////////////////////////////\n\n\n        //Funcin para crear las companies, solo lo puede crear el ADMIN\n    function createCompany(string memory _name, address _direccion) onlyAdmin public{\n         require(!companies_claimedTokens[_direccion], \"Already claimed tokens\");\n   //     s_traductores.push(msg.sender);\n        DatosCompanies memory datos = DatosCompanies(_name);\n        datosCompanies[_direccion] = datos;\n        companies_claimedTokens[_direccion] = true;\n        GovernanceToken(GovernanceTokenContract).claimTokens(_direccion, TOKENS_PER_COMPANY);\n        companies.push(_direccion);\n\n    }\n\n        //Funcin para ver el numero de compaias que hay\n        function getCompanyLength() external view returns (uint256) {\n        return companies.length;\n    }\n\n        //Funcin para Eliminar una Compaia\n        function BurnCompany(uint _nuevoValorCompany, address _companyaddress) external onlyAdmin {\n        require(companies_claimedTokens[_companyaddress], \"Company doesnt exist\");\n\n        GovernanceToken(GovernanceTokenContract).burn(_companyaddress, _nuevoValorCompany);\n\n        delete datosCompanies[_companyaddress];\n        companies_claimedTokens[_companyaddress] = false;\n\n        // Eliminar la compaa del array de companies\n        for (uint i = 0; i < companies.length; i++) {\n            if (companies[i] == _companyaddress) {\n                companies[i] = companies[companies.length - 1];\n                companies.pop();\n                break;\n            }\n        }\n        \n   }\n\n\n   function TransferCompany(uint256 _amount, address recipient) public {\n   \n    // Verificar que el comprador tiene suficientes tokens de gobierno para comprar el NFT\n    require(GovernanceToken(GovernanceTokenContract).balanceOf(msg.sender) >= _amount, \"Insufficient balance\");\n\n    // Transfiere los tokens de gobierno de una compaia a otra\n    GovernanceToken(GovernanceTokenContract).burn(msg.sender, _amount);\n    GovernanceToken(GovernanceTokenContract).mint(recipient, _amount);\n\n  \n}\n\n\n    ///////////////////////////////////////////////////////////////////////////////\n\n\n    //Funcin para crear los traductores\n    function createTraductor(string memory _name) public{\n         require(!s_claimedTokens[msg.sender], \"Already claimed tokens\");\n   //     s_traductores.push(msg.sender);\n        DatosHolders memory datos = DatosHolders(_name);\n        datosHolders[msg.sender] = datos;\n        s_claimedTokens[msg.sender] = true;\n        GovernanceToken(GovernanceTokenContract).claimTokens(msg.sender, TOKENS_PER_USER);\n        s_traductores.push(msg.sender);\n\n    }\n\n        //Funcin para ver el numero de traductores que hay\n        function getTraductorLength() external view returns (uint256) {\n        return s_traductores.length;\n    }\n\n\n        //Funcin para minar los tokens \n    function modificarValorTraductores(uint _nuevoValorTraductores) external onlyOwner {\n        valorTraductores = _nuevoValorTraductores;\n\n        for(uint i=0; i< s_traductores.length; i++)\n        {\n        GovernanceToken(GovernanceTokenContract).mint(s_traductores[i], _nuevoValorTraductores);\n        emit ValorTraductoresModificado(valorTraductores);\n        }\n        \n       \n\n\n    }\n\n        //Funcin para quemar los tokens \n        function BurnTraductores(uint _nuevoValorTraductores) external onlyOwner {\n        valorTraductores = _nuevoValorTraductores;\n\n        for(uint i=0; i< s_traductores.length; i++)\n        {\n        GovernanceToken(GovernanceTokenContract).burn(s_traductores[i], _nuevoValorTraductores);\n        emit ValorTraductoresModificado(valorTraductores);\n        }\n        \n       \n\n\n    }\n\n        //Funcin para quemar los tokens de 1 address en concreto\n        function BurnONETraductores(uint _nuevoValorTraductores, address _traductoraddress) external onlyOwner {\n        valorTraductores = _nuevoValorTraductores;\n\n      \n        GovernanceToken(GovernanceTokenContract).burn(_traductoraddress, _nuevoValorTraductores);\n        //emit ValorTraductoresModificado(valorTraductores);\n        \n        \n       \n\n\n    }\n        //Funcin para minar los tokens de 1 address en concreto\n           function MintONETraductores(uint _nuevoValorTraductores, address _traductoraddress) external onlyOwner {\n        valorTraductores = _nuevoValorTraductores;\n\n      \n        GovernanceToken(GovernanceTokenContract).mint(_traductoraddress, _nuevoValorTraductores);\n        //emit ValorTraductoresModificado(valorTraductores);\n        }\n        \n       \n\n\n    \n\n\n    /*\n      uint256 cantidad = datosHolders[msg.sender].amount;\n      DatosHolders memory datos = DatosHolders(cantidad + amount);\n      datosHolders[msg.sender] = datos;\n\n      if(s_claimedTokens[msg.sender] != true)\n      {\n      s_claimedTokens[msg.sender] = true;\n      s_traductores.push(msg.sender);  \n    }\n\n    */\n}\n",
  "sourcePath": "/home/pablo/Desktop/DAO/truffle/contracts/Traductores.sol",
  "compiler": {
    "name": "solc",
    "version": "0.8.13+commit.abaa5c0e.Emscripten.clang"
  },
  "schemaVersion": "3.4.14",
  "updatedAt": "2023-09-01T15:49:02.076Z",
  "networkType": "ethereum",
  "devdoc": {
    "kind": "dev",
    "methods": {},
    "version": 1
  },
  "userdoc": {
    "kind": "user",
    "methods": {
      "datosAdmin(address)": {
        "notice": "Acceder a los datos del ADMIN dado su address"
      },
      "datosCompanies(address)": {
        "notice": "Acceder a los datos de los companies dado su address"
      },
      "datosHolders(address)": {
        "notice": "Acceder a los datos de los holders dado su address"
      }
    },
    "version": 1
  }
}