{
  "contractName": "VariarNumero",
  "abi": [
    {
      "inputs": [],
      "stateMutability": "nonpayable",
      "type": "constructor"
    },
    {
      "inputs": [],
      "name": "numero",
      "outputs": [
        {
          "internalType": "uint256",
          "name": "",
          "type": "uint256"
        }
      ],
      "stateMutability": "view",
      "type": "function"
    },
    {
      "inputs": [],
      "name": "incrementar",
      "outputs": [],
      "stateMutability": "nonpayable",
      "type": "function"
    },
    {
      "inputs": [],
      "name": "decrementar",
      "outputs": [],
      "stateMutability": "nonpayable",
      "type": "function"
    }
  ],
  "bytecode": "0x608060405234801561001057600080fd5b50600a600055610169806100256000396000f3fe608060405234801561001057600080fd5b50600436106100415760003560e01c806391607a991461004657806391f5de3814610050578063a1058dd81461006b575b600080fd5b61004e610073565b005b61005960005481565b60405190815260200160405180910390f35b61004e610089565b60008054908061008283610103565b9190505550565b60008054116100de5760405162461bcd60e51b815260206004820152601f60248201527f456c206e756d65726f206e6f20707565646520736572206e6567617469766f00604482015260640160405180910390fd5b6000805490806100828361011c565b634e487b7160e01b600052601160045260246000fd5b600060018201610115576101156100ed565b5060010190565b60008161012b5761012b6100ed565b50600019019056fea26469706673582212209d26faa9d24e60def5db48015d613edb41bd0415a63f2db449990f853ab4e7d764736f6c634300080d0033",
  "immutableReferences": {},
  "source": "// SPDX-License-Identifier: MIT\npragma solidity ^0.8.0;\n\ncontract VariarNumero {\n    uint256 public numero; // Variable para almacenar el número\n\n    constructor() {\n        numero = 10;\n        \n    }\n    // Función para incrementar el número\n    function incrementar() public {\n        numero++;\n    }\n\n    // Función para decrementar el número\n    function decrementar() public {\n        require(numero > 0, \"El numero no puede ser negativo\");\n        numero--;\n    }\n}\n",
  "sourcePath": "/home/pablo/Desktop/DAO/truffle/contracts/VariarNumero.sol",
  "compiler": {
    "name": "solc",
    "version": "0.8.13+commit.abaa5c0e.Emscripten.clang"
  },
  "schemaVersion": "3.4.14",
  "updatedAt": "2023-08-08T15:14:07.045Z",
  "devdoc": {
    "kind": "dev",
    "methods": {},
    "version": 1
  },
  "userdoc": {
    "kind": "user",
    "methods": {},
    "version": 1
  }
}